:100000000C943F060C9486060C9486060C94860687
:100010000C9486060C9486060C9486060C94860630
:100020000C9486060C9486060C94AB300C947F31AD
:100030000C9420220C9486060C9486060C9486065A
:100040000C9486060C9486060C9486060C94860600
:100050000C9486060C9477220C9486060C948606E3
:100060000C9486060C9486060C9486060C948606E0
:100070000C9486060C9486060C9486060C948606D0
:100080000C9486060C9486060C9486060C948606C0
:100090000C9486060C9486060C9486060C948606B0
:1000A0000C9486060C9486060C94860600002400A8
:1000B000250026002A00000021002200230029003C
:1000C00000001E001F0020002B00F4000158270034
:1000D000370028000000010001000100005C000062
:1000E00001000100010057000000010001000100B3
:1000F0005600DE5C0100010001002E00444542551F
:10010000473A2064697361626C65642E0A00444555
:100110004255473A20656E61626C65642E0A0000A4
:10012000000000000000002A2B2800000000000052
:100130000000000000000000000029000000002C6A
:100140001E3420212224342627252E362D37382709
:100150001E1F202122232425263333362E37381F15
:100160000405060708090A0B0C0D0E0F10111213D7
:100170001415161718191A1B1C1D2F3130232D3575
:100180000405060708090A0B0C0D0E0F10111213B7
:100190001415161718191A1B1C1D2F3130354C0059
:1001A000000000000000000000000000000000004F
:1001B0000000007E0F00D4FFFFFFC7000000780A98
:1001C0000025303862003A200025303258000A728B
:1001D0002F632030313233343536370A000A002598
:1001E00030325820006B6579626F6172645F7265AE
:1001F000706F72743A20000A0025303258006B6527
:1002000079626F6172645F7365745F6C65643A20D4
:1002100000290A002575002F002575005D2800259E
:10022000640020002564002000256400200025646F
:10023000007C0025303258006D6F7573656B6579F1
:10024000205B62746E7C782079207620685D28724D
:1002500065702F61636C293A205B006D6B5F776876
:1002600065656C5F74696D655F746F5F6D61782043
:100270003D2025640A006D6B5F776865656C5F6D76
:1002800061785F7370656564203D2025640A006DA8
:100290006B5F74696D655F746F5F6D6178203D2081
:1002A00025640A006D6B5F6D61785F7370656564CE
:1002B000203D2025640A006D6B5F696E746572765F
:1002C000616C203D2025640A006D6B5F64656C6184
:1002D00079203D2025640A006D6B5F776865656C49
:1002E0005F74696D655F746F5F6D6178203D202577
:1002F000640A006D6B5F776865656C5F6D61785F40
:100300007370656564203D2025640A006D6B5F7421
:10031000696D655F746F5F6D6178203D2025640AAB
:10032000006D6B5F6D61785F7370656564203D2063
:1003300025640A006D6B5F696E74657276616C206E
:100340003D2025640A006D6B5F64656C6179203D1A
:100350002025640A000A00257500363A2077686572
:10036000656C5F74696D655F746F5F6D61783A206D
:10037000000A00257500353A20776865656C5F6D69
:1003800061785F73706565643A20000A0025750026
:10039000343A2074696D655F746F5F6D61783A20DF
:1003A000000A00257500333A206D61785F7370652F
:1003B00065643A20000A00257500323A20696E749F
:1003C000657276616C286D73293A20000A002575E4
:1003D00000313A2064656C6179282A31306D7329C7
:1003E0003A20000A092D2056616C756573202D0A8C
:1003F000004D3E004D25643E20003F007365742093
:1004000064656661756C740A00433E200077686518
:1004100072652064656C74613A20637572736F72E3
:100420003D25642C20776865656C3D25640A53651D
:100430006520687474703A2F2F656E2E77696B692A
:1004400070656469612E6F72672F77696B692F4DD4
:100450006F7573655F6B6579730A000A092D204D0E
:100460006F7573656B6579202D0A4553432F713A7B
:1004700009717569740A313A0964656C6179282AD1
:1004800031306D73290A323A09696E74657276618A
:100490006C286D73290A333A096D61785F73706552
:1004A00065640A343A0974696D655F746F5F6D61E4
:1004B000780A353A09776865656C5F6D61785F73B6
:1004C000706565640A363A09776865656C5F7469BA
:1004D0006D655F746F5F6D61780A0A703A097072BA
:1004E000696E742076616C7565730A643A09736588
:1004F000742064656661756C74730A75703A092BB3
:10050000310A646F776E3A092D310A706775703A57
:10051000092B31300A7067646F776E3A092D3130DC
:100520000A0A7370656564203D2064656C746120FF
:100530002A206D61785F7370656564202A202872B7
:100540006570656174202F2074696D655F746F5FDD
:100550006D6178290A003F004D3E2000433E200097
:100560004C25640A0074696D65725F72656164335D
:100570003228293A202530346C580A006B6579629C
:100580006F6172645F69646C653A2025580A006B7C
:100590006579626F6172645F70726F746F636F6CA4
:1005A0003A2025580A00686F73745F6B6579626F33
:1005B0006172645F6C65647328293A2025580A00CB
:1005C0000A092D20537461747573202D0A00474366
:1005D000433A20382E332E30204156522D4C49427A
:1005E000433A20322E302E30204156525F41524342
:1005F000483A20617672350A004F5054494F4E53A5
:100600003A204C554641204D4F5553454B455920B6
:1006100045585452414B455920434F4E534F4C453A
:1006200020434F4D4D414E4420343039360A00426C
:1006300055494C443A2022302E31302E392D312D5F
:100640006736343939656222202832313A34393AF2
:100650003339204F63742020342032303230290A5D
:10066000005649443A2030784445414628696D6334
:10067000686970776F6F6429205049443A20307858
:10068000303931332864756D6270616429205645B4
:10069000523A203078303030310A000A092D205685
:1006A000657273696F6E202D0A000A092D20436F51
:1006B0006E736F6C65202D0A4553432F713A097193
:1006C0007569740A6D3A096D6F7573656B65790AA2
:1006D000000A092D204D61676963202D0A443A09FB
:1006E0004465627567204D65737361676520546F5B
:1006F00067676C650A583A094D61747269782044DD
:1007000065627567204D6F646520546F67676C651F
:10071000202D2053686F77206B6579707265737335
:10072000657320696E206D617472697820677269E3
:10073000640A4B3A094B6579626F617264204465C3
:1007400062756720546F67676C65202D2053686F52
:1007500077206B65797072657373207265706F7244
:10076000740A4D3A094465627567204D6F7573656B
:1007700020546F67676C650A563A0956657273694B
:100780006F6E0A533A095374617475730A433A09D8
:10079000416374697661746520436F6E736F6C6535
:1007A000204D6F64650A46312D4631303A09537742
:1007B0006974636820746F204C6179657220302DF4
:1007C000392028463130203D204C30290A302D393F
:1007D0003A0953776974636820746F204C617965B6
:1007E0007220302D390A47524156453A09537769EC
:1007F00074636820746F204C617965722030202802
:10080000616C7465726E617465290A423A094A75B1
:100810006D7020746F20426F6F746C6F61646572CD
:100820000A4553433A094A756D7020746F20426F30
:100830006F746C6F616465722028616C7465726E90
:10084000617465290A453A095072696E74204545FC
:1008500050524F4D2053657474696E67730A42534A
:10086000504143453A09436C6561722045455052F9
:100870004F4D0A000A002575002E6E6B726F3A20EC
:10088000000A002575002E737761705F6261636BEB
:10089000736C6173685F6261636B73706163653A07
:1008A00020000A002575002E737761705F67726102
:1008B00076655F6573633A20000A002575002E6E29
:1008C0006F5F6775693A20000A002575002E7377FF
:1008D00061705F72616C745F726775693A20000ABB
:1008E000002575002E737761705F6C616C745F6CAE
:1008F0006775693A20000A002575002E73776170CC
:100900005F7263746C5F726775693A20000A002534
:1009100075002E737761705F6C63746C5F6C6775C4
:10092000693A20000A002575002E636170736C6FB0
:10093000636B5F746F5F636F6E74726F6C3A2000ED
:100940000A002575002E737761705F636F6E747295
:100950006F6C5F636170736C6F636B3A20000A00A9
:1009600025303258006B65796D61705F636F6E661C
:1009700069672E7261773A20000A002575002E6D96
:100980006F7573653A20000A002575002E6B657936
:10099000626F6172643A20000A002575002E6D6155
:1009A000747269783A20000A002575002E656E6120
:1009B000626C653A20000A00253032580064656296
:1009C00075675F636F6E6669672E7261773A2000A4
:1009D0000A0025750064656661756C745F6C6179E9
:1009E00065723A20003F000A6D6F7573653A206F9B
:1009F00066660A000A6D6F7573653A206F6E0A00AD
:100A00000A6B6579626F6172643A206F66660A00EC
:100A10000A6B6579626F6172643A206F6E0A000A30
:100A20006D61747269783A206F66660A000A6D61BA
:100A3000747269783A206F6E0A000A64656275679D
:100A40003A206F66660A000A64656275673A206F2D
:100A50006E0A000A0A4A756D70696E6720746F200D
:100A6000626F6F746C6F616465722E2E2E2000436E
:100A70003E2000436C656172696E672045455052A7
:100A80004F4D0A006565636F6E6669673A0A005BE1
:100A9000735D004B6579626F61726420737461727B
:100AA000742E0A005B575D005B535D005B525D0076
:100AB0005B445D005B435D000403300000001003F5
:100AC000640075006D006200700061006400000049
:100AD000160369006D00630068006900700077000C
:100AE0006F006F00640000000403090409027B002A
:100AF000040100A0FA09040000010301010009211A
:100B0000110100012240000705810308000A0904C1
:100B1000010002030000000921110100012222004E
:100B200007058203200001070503032000010904D3
:100B300002000103000000092111010001228100CF
:100B40000705840320000A090403000203000000D3
:100B5000092111010001222200070585032000015F
:100B6000070505032000011201100100000008AF75
:100B7000DE13090100010203010631FF0974A1011E
:100B80000975150026FF0095207508810209761564
:100B90000026FF00952075089102C00660FF0961DC
:100BA000A1010962150026FF009520750881020940
:100BB00063150026FF00952075089102C005010904
:100BC00002A10185020901A10005091901290515E4
:100BD00000250195057501810295017503810105C7
:100BE00001093009311581257F95027508810609B3
:100BF000381581257F950175088106050C0A380294
:100C00001581257F950175088106C0C00501098001
:100C1000A101850319012AB700150126B700950126
:100C200075108100C0050C0901A101850419012A74
:100C3000A002150126A002950175108100C00501D2
:100C40000906A101050719E029E715002501950806
:100C5000750181029501750881010507190029FFB9
:100C6000150026FF00950675088100050819012961
:100C700005950575019102950175039101C0112437
:100C80001FBECFEFDAE0DEBFCDBF04B603FE27C044
:100C900080917C0290917D02A0917E02B0917F02B2
:100CA0008730904BA740B04BD1F410927C02109249
:100CB0007D0210927E0210927F0214BE84B7877F5D
:100CC00084BF0FB6F894A8958091600088618093E6
:100CD0006000109260000FBEE0E0F8E3099511E0BB
:100CE000A0E0B1E0E4E2F8E602C005900D92AE3A71
:100CF000B107D9F722E0AEEAB1E001C01D92AC37EE
:100D0000B207E1F70E94642D0C94D5330C940000D7
:100D1000FF93EF93E091AE01F091AF01309709F0AE
:100D20000995EF91FF910895FC018591803011F0B4
:100D3000EFDFFBCF0895FF27E0E230E247FF0CC072
:100D4000419597FF09C0EDE260957095809590956B
:100D5000611D711D811D911D27FF02C0219530E38A
:100D600050E2AA27660F771F881F991FAA1FA41792
:100D700010F0A41B63955A95A9F7AA3008F0A95F53
:100D8000A05DAF93F395611571058105910541F75C
:100D9000ED3211F4EF93F395F21718F43F93F395B6
:100DA000FBCF8F91B5DFFA95E1F70895E991F991BD
:100DB0008591803021F0853219F0AADFF9CF0895AE
:100DC00020E0E89455915532C1F3503311F4689402
:100DD00055915A3348F4505390F3220F022E220FAC
:100DE000220F200D250FF4CF0EF4219589919991B2
:100DF000533619F3533729F1533559F1BC0188277C
:100E00009927E8945C3621F48991999168945591D9
:100E1000543639F446EF7EF077FF0DC08FEF9FEF29
:100E20000AC055374AE039F0583540E121F05236D2
:100E300042E009F00895FF93EF937DDFEF91FF917A
:100E4000B7CFFF93EF93FC0181918030B9F360DF5E
:100E5000FBCFFF93EF9368DFF1CFDF93CF93CDB755
:100E6000DEB72596A3DFCF91DF910895239A219ACB
:100E70000C9415162B9829980895CF92DF92EF9233
:100E8000FF926B017C010E946A2080FF0CC02B9AAC
:100E900081FF0BC0299AC701B601FF90EF90DF9048
:100EA000CF900C94061E2B98F3CF2998F4CF82E0B4
:100EB00090E02B9A29982FEF31EE44E021503040FA
:100EC0004040E1F700C000002B9A299A2FEF31EE45
:100ED00044E0215030404040E1F700C000002B9832
:100EE000299A2FEF31EE44E0215030404040E1F7A5
:100EF00000C000002B9829982FEF31EE44E02150DC
:100F000030404040E1F700C00000019711F40C941C
:100F1000950781E090E0CDCF0C9496070C94920752
:100F20000C94970781E00895089508950895089511
:100F3000CF93C62F811111C060912E0270912F02A4
:100F400080913002909131020E946A208AEAC11198
:100F500001C089EACF910C94A417CF91089581E044
:100F6000089508950C94B1071F93CF93DF9300D099
:100F700000D00F92CDB7DEB749835A836B8330918F
:100F8000E60189819A8131111DC06623B9F02223BF
:100F9000A9F00E94211F182F682F89819A810E9431
:100FA000CA1E69817A81812F0F900F900F900F9048
:100FB0000F90DF91CF911F910C946F0F0E94F81E3C
:100FC000182FEFCF0E94211F69817A81EDCFFC019C
:100FD000262F408151816281738184810C94B407F2
:100FE000CF93DF93EC0160E00E94E707BE01DF9141
:100FF000CF910C94B207FF920F931F93CF93DF937F
:10100000E82FF0E0E15EFE4FF490C82FC695C6953C
:10101000C695D0E0FE01E155FE4F0491877010E0C7
:10102000082E02C0159507950A94E2F70170112762
:10103000C156DE4FFE01C491D0E002C0D595C795E0
:101040008A95E2F7C170DD270115110519F081EECF
:101050000E942217209719F086EE0E9422178F2DEA
:101060000E94A417CD2B19F086EE0E947517012B54
:1010700041F081EEDF91CF911F910F91FF900C9481
:101080007517DF91CF911F910F91FF900895EF9207
:10109000FF920F931F93CF93DF93EC01162F0AE07B
:1010A0008881882309F454C0813009F04EC08981B9
:1010B000813099F47E0122E0E20EF11C8A810E94C7
:1010C000A417E7012196812F815050F3EFE9FFE04B
:1010D0003197F1F700C00000F7CF823041F47E0174
:1010E00082E0E80EF11C8A810E942217EACF833049
:1010F00041F47E01E2E0EE0EF11C8A810E94751738
:10110000E0CF843011F02196DDCF2A81229690E045
:1011100080E0AE014F5F5F4F2053330B2A30310523
:1011200048F0019778F2EFE9FFE03197F1F700C05E
:101130000000F7CF089FB001099F700D1124C9016D
:10114000860F971F2981EA01E4CF0E94FB07BACFDF
:10115000DF91CF911F910F91FF90EF90089560E084
:101160000C9447088F929F92AF92BF92CF92DF92DA
:10117000EF92FF920F931F936B017C0181E090E04F
:10118000A0E0B0E04C015D0104C0880C991CAA1CD1
:10119000BB1C4A95D2F7B501A4014C015D0104C006
:1011A000880C991CAA1CBB1C2A95D2F748295929DE
:1011B0006A297B2904C0880F991FAA1FBB1F0A95A3
:1011C000D2F78A019B010C211D212E213F210417FA
:1011D00015072607370789F48C299D29AE29BF29D1
:1011E000BC01CD011F910F91FF90EF90DF90CF9048
:1011F000BF90AF909F908F90089580959095A09507
:10120000B0958C219D21AE21BF21EACF0F93382FBD
:10121000262F60912E0270912F02809130029091C2
:101220003102042F432F0E94B2080F910C94081E24
:101230000E94AE220E94D520811102C00E9472211C
:101240000C9457070C948C0781E008950C942409A2
:10125000CF93C82F0E9490078C2FCF910C94260912
:101260000E94331A0E943A072FEF84E39CE021503A
:1012700080409040E1F700C000000C949B220F9347
:101280001F93CF93DF9300D0CDB7DEB78C0161E021
:101290000E94E7079A838983B801CE0101960E94D4
:1012A0006412811108C080E00F900F90DF91CF9100
:1012B0001F910F910895B80189819A810E94A80D0C
:1012C000882389F3B80189819A810E948E07882337
:1012D00051F3B80189819A810E94C510882319F3BE
:1012E000B80189819A810E9417118823E1F2B8011F
:1012F00089819A810E943A128823A9F2F801828199
:10130000882329F189819A818130FCE59F0751F07A
:101310008F3D2CE59207C1F081159C45C1F40E94D8
:101320003009C1CF90914302892F8E7F90FF816059
:101330008093430280FF05C08EE091E00E949406F6
:10134000B2CF8CEF90E0FACF0E947221ACCFC801EF
:101350000E94AF07A9CF90E080E008950895FC01B6
:10136000EE0FFF1FE154FE4F859194910895CF93A6
:10137000DF930E946F0F0E94CC0AEC01811520E5DB
:10138000920708F042C0811530E4930708F0BDC011
:10139000883E910528F5803E910508F09DC0883A69
:1013A000910588F4853A910508F08FC08130910548
:1013B00009F492C0009709F48FC0049708F08CC01C
:1013C000D0E0C0E089C08F3B910508F489C0805C03
:1013D0009109C03CD105A0F30E94AF09EC017CC08B
:1013E0008115904250F4C11581E0D80708F074C00F
:1013F000C03FD10528F3D0656FC0C11590E3D90770
:1014000008F079C0CE019F70E7CF811525E59207DE
:1014100058F5811534E5930708F0A6C0811542E51B
:10142000940750F4C11581E5D80708F471C0DC2F8A
:10143000CC27C16FD06A50C0982F969596959E0183
:1014400023703327C115D34508F07FC0C1E0D0E039
:1014500002C0CC0FDD1F2A95E2F720E2929FC00167
:101460001124C82BD92B6FC0C11589E5D807A8F462
:10147000C11598E5D90708F07CC0C11526E5D2074B
:1014800008F09ECF8C2F0E94630BC82FD0E0DC2F7A
:10149000CC27CC27DF71D0621FC0C1153AE5D30736
:1014A00008F46CC0CE0190568115904208F088CFA8
:1014B0008D2F8F710E94630B90E0982F88278827CB
:1014C0009F719C012C2BE901E6CFC55AD0E0CD5B82
:1014D000DE4FC881D0E0D064CE01DF91CF91089576
:1014E000C85AD0E0CC0FDD1FCB5EDE4F0990D8810B
:1014F000C02DD464F1CFCE019927D3FF03C0EC01F6
:10150000D86CEACFEC01D06CE7CFDF70D06AE4CFC3
:10151000CE01E4E096958795EA95E1F783702C2F4C
:1015200026952695237090E2299F90011124382B4F
:101530008C2F8370C1E0D0E002C0CC0FDD1F8A95F4
:10154000E2F7C22BD32BDC68C7CFC1E0D0E002C0EA
:10155000CC0FDD1F2A95E2F730E2939FC0011124E2
:10156000C82BD92BDA68B8CFD82FCC27C46FD06A54
:10157000B3CFDC2FCC27C06FD06AAECF8C2F8F704B
:101580000E94630B34E0D695C7953A95E1F7CF708A
:101590009C2FEC01D069A0CF82389105B1F1B0F455
:1015A0008133910509F475C048F48932910509F435
:1015B00069C08A32910509F473C008958533910595
:1015C00009F459C08933910501F10895833E9105CD
:1015D000A9F138F4803E9105F9F0823E910549F178
:1015E0000895863E9105A9F1873E9105C9F1843E93
:1015F000910519F520916E0221FF1FC080916D02A7
:1016000084FD14C087EE90E0089520916D02237050
:10161000A1F080EE90E0089520916D0220FD47C07A
:1016200030916E0230FF09C024FF44C090E080E09A
:1016300004C020916D0222FDF7CF089520916D0224
:1016400022FD3BC030916E0230FDE3CF24FFF5CF89
:10165000EDCF20916D0223FFF0CF24FDE7CFD2CF55
:1016600020916D0223FD2CC030916E0231FFEECF30
:1016700084EE90E0089520916D0225FFDECF89E28F
:1016800090E0089520916D0225FFD7CF85E390E08B
:10169000089520916D0226FFD0CF8AE290E0089550
:1016A00020916D0226FFC9CF81E390E0089589E380
:1016B00090E0089583EE90E0089582EE90E0089522
:1016C00086EE90E0089590916D0292FF06C0282F5B
:1016D00028712830F9F4877F846093FF06C0282F93
:1016E00028712831F1F4877E846120916E0220FFF9
:1016F00006C0382F38713830D9F4877F816021FFD8
:1017000006C0282F28712831D1F4877E816194FD8D
:10171000877E0895282F24712430F9F68B7F886006
:10172000DCCF282F2471243101F78B7E8861DDCF37
:10173000382F3171313019F78E7F8860E0CF282F34
:101740002171213121F78E7E8861E1CFE82FF0E011
:10175000EB59FD4F80810895CF92DF92EF92FF9277
:101760000F931F93CF93DF938EEC91E00E9494062A
:1017700085E6E82E82E0F82ED0E0C0E099ECC92E94
:1017800091E0D92E01EC11E0DF93CF93DF92CF925D
:101790000E942D0786EC91E00E949406F70181914A
:1017A0007F010E94B7201F928F931F930F930E9477
:1017B0002D078FEB91E00E94940621968DB79EB77E
:1017C00008960FB6F8949EBF0FBE8DBFC430D105EA
:1017D000D9F6DF91CF911F910F91FF90EF90DF909D
:1017E000CF90089580EA8A95F1F70895CF93DF931B
:1017F000ABE4B1E04FE451E0C1E0D0E08D91E82FDF
:10180000E295EF70F0E061A18F709E0101C0220FA0
:101810008A95EAF7922F9095962391A382A1822B25
:1018200082A34A175B0751F7A6E4B1E04BE451E00D
:10183000C1E0D0E08D91E82FE295EF70F0E061A17A
:101840008F709E0101C0220F8A95EAF7922F909522
:10185000962391A382A1822B82A34A175B0751F79B
:10186000109261021092650210926202109266025A
:101870001092630210926702109264021092680242
:1018800084E00E94C70CDF91CF910C9418098F92CD
:101890009F92AF92BF92CF92DF92EF92FF920F93FF
:1018A0001F93CF93DF938BE4A82E81E0B82E01E63F
:1018B00012E0912CCC24C394D12CF50181915F01CD
:1018C000C82FC295CF70D0E099A18F70760101C06A
:1018D000EE0C8A95EAF7892F8E2989A38AA18E2C8E
:1018E000809488218AA30E94F20BE6E4F1E050E0A4
:1018F00040E020E03191A32FA295AF70B0E0909628
:101900008C9190E03F7002C0959587953A95E2F7EB
:1019100080FD39C08C2D042E01C0880F0A94EAF78F
:10192000282B4F5F5F4F4530510521F789A1882251
:1019300089A28AA1E82AEAA2F8018081281729F160
:10194000208381E0982A0F5F1F4FFFE4AF16F1E07C
:10195000BF0609F0B2CF292D44E065E672E081E6CA
:1019600092E00E94C80C0E942209892DDF91CF913C
:101970001F910F91FF90EF90DF90CF90BF90AF90AD
:101980009F908F90089580E0CBCF80E0DBCF0895CB
:10199000FF920F931F93CF93DF93F82E092F162FEB
:1019A000D72FC42F222349F081E08093B2010E94F7
:1019B00050229093B1018093B0018091B2018823AD
:1019C000A1F08091B0019091B1010E946822069728
:1019D00060F0EF2DF02FA12FBD2FCE0FDF2FD11DE7
:1019E000EC17FD0741F41092B201DF91CF911F91E6
:1019F0000F91FF90089581918D93F2CF0C949807E9
:101A00005098589A54985C9A89B181704C9905C045
:101A100090E0892B8093B501089592E0FACFE09190
:101A2000B501EE0FEE0FE093B50149B1842F81703F
:101A300049B144FB222720F944FF02C022E030E0F4
:101A4000822BE82BE093B501EF70F0E0E15BFE4FF5
:101A500080819091B401890F8093B40184304CF05F
:101A60008091B3018F5F8093B30160E080E00E94BA
:101A7000FE0C8091B4018D3F4CF48091B3018150F4
:101A80008093B30161E080E00E94FE0C8091B4017C
:101A9000837887FF03C081508C6F8F5F8093B40180
:101AA000089582E290E00E949333803289F483E2C9
:101AB00090E00E949333803159F484E290E00E94D8
:101AC000933391E0843009F090E0892F817008957C
:101AD00080E0FCCFCF93C82F6FEF811160E282E2EC
:101AE00090E00E94A1336FEFC11160E183E290E0CA
:101AF0000E94A1336FEFC11164E084E290E0CF91C6
:101B00000C94A13380E00E946A0D0C94CF200895BC
:101B100085E290E00E949333682F70E090E080E0CF
:101B2000089585E290E00C94A1330E94870D0E94F5
:101B3000510D81110CC060E070E0CB010E94910D4D
:101B40000E94E90E0E94D30F81E00C946A0D089563
:101B5000CF93FB01C281CC2309F19C0122513F4567
:101B60002031310520F582510E94E30FC0E08C2F17
:101B7000CF91089581E00E942E1E43E062E081E053
:101B80000E940609F3CF81E00E944F1E43E062E00D
:101B900081E00E940609EBCF82E0F6CF8031FFE5BD
:101BA0009F0789F381319F45B9F3C1E0E0CF8031D0
:101BB000EFE59E07F9F281319F45C9F682E0DBCF60
:101BC0002FEFFC0120830895EF92FF920F931F9354
:101BD000CF93DF93EC01062FE881E150E33108F069
:101BE0005EC0F0E0E952FC4C0C945033198289E05D
:101BF0008A83602FCE01DF91CF911F910F91FF90CB
:101C0000EF900C94002C8981823069F0833071F060
:101C10008130D9F40E945C220E9456336A837B8310
:101C20008C839D83E6CF0E94880DF6CF7E0122E053
:101C3000E20EF11C10E0812F0E94A60BF7018193A8
:101C40007F011F5F1430B9F7D4CF602FCE010E94FF
:101C5000E00DCFCF89818230C1F76A817B818C8191
:101C60009D810E9456330E94910DC3CF4B816A81A2
:101C700089810E94BB0E9827892798279D838C8392
:101C8000B8CF2C813D813227232732274B816A81AF
:101C900089810E94D40EADCF0E94E90EAACF8FEFAA
:101CA0008883A7CF0E947C0F8983A3CF0E947E0FD9
:101CB0009827892798279A8389839BCF6B8170E027
:101CC00089819A81AE014C5F5F4F982789279827B9
:101CD0000E94810F8ECF6B8170E089819A81AE0165
:101CE0004C5F5F4F9827892798270E94A80F81CFC4
:101CF0000E94D30F7ECF0E94A90ED6CF6B8170E0D9
:101D000089819A81AE014C5F5F4F98278927982778
:101D10000E94210F6ECF6B8170E089819A81AE01A4
:101D20004C5F5F4F9827892798270E94460F61CF05
:101D30000E94820D5ECF0E94002CFFEF21EE84E016
:101D4000F15020408040E1F700C000000E949B223B
:101D500050CF84E0089550E0440F551F9AE0699FEA
:101D6000400D511D112498E2899F400D511D1124F1
:101D7000CA01869608950F931F93CF93DF930E9415
:101D8000AB0E8C010E949333C82FD0E0DC2FCC2700
:101D9000C80101960E9493339E01282BC901DF914F
:101DA000CF911F910F9108950F931F93CF93DF93BE
:101DB000122F032F0E94AB0EEC01602F0E94A13363
:101DC000612FCE010196DF91CF911F910F910C945D
:101DD000A133AF92BF92CF92DF92EF92FF921F9307
:101DE000CF93DF938CEAC82E80E0D82ED0E0760126
:101DF000C0E014C0F50125913491412F6C2F8D2F37
:101E00000E94D40E82E0A80EB11C1F5F153091F71E
:101E10008AE0E80EF11CCF5FC43019F0570110E0E2
:101E2000E9CFDF5F88E2C80ED11CD43001F7DF9123
:101E3000CF911F91FF90EF90DF90CF90BF90AF9028
:101E40000895EF92FF920F931F93CF93DF93EC01CE
:101E50008A017C01E60EF71ECE018696CE15DF05BF
:101E600039F4DF91CF911F910F91FF90EF9008957A
:101E7000C03AD10540F40E949333F80180830F5F8C
:101E80001F4F2196E9CFF8011082F9CFCF92DF9250
:101E9000EF92FF920F931F93CF93DF937C016A0120
:101EA0008C01060F171FEC01CE018696C017D107D3
:101EB00049F4DF91CF911F910F91FF90EF90DF9048
:101EC000CF900895C03AD10540F4FE01EE19FF0904
:101ED000EC0DFD1D60810E94A1332196E5CF462FB8
:101EE000843038F4743028F4653018F4672F0C947B
:101EF000BB0E90E080E0089580E108958AE393E0CE
:101F00000895EF92FF920F931F93CF93DF93EC010D
:101F10008A017C01E60EF71ECE018A539F4FCE1533
:101F2000DF0539F4DF91CF911F910F91FF90EF9072
:101F30000895CA3323E0D20740F40E949333F80196
:101F400080830F5F1F4F2196E7CFF8011082F9CFF2
:101F5000CF92DF92EF92FF920F931F93CF93DF9375
:101F60007C016A018C01060F171FEC01CE018A5318
:101F70009F4FC017D10749F4DF91CF911F910F9167
:101F8000FF90EF90DF90CF900895CA3323E0D207FF
:101F900040F4FE01EE19FF09EC0DFD1D60810E9469
:101FA000A1332196E3CFCF93DF93C6ECD0E060E07E
:101FB000CE010E94A1332196C11584E0D807B9F75C
:101FC000DF91CF910895DF92EF92FF920F931F93CD
:101FD000CF93DF9300D000D0CDB7DEB7F82E8FE0DF
:101FE0008F1540F08FEF93E00E94933306EC10E0E2
:101FF0008823C1F00F900F900F900F90DF91CF9139
:102000001F910F91FF90EF90DF900895011584E0EC
:10201000180781F3C8010E949333811101C0FA941B
:102020000F5F1F4FF110F2CF19821A821B821C82A0
:10203000DD24D39478018FEFE81AF80AC8010E94D2
:10204000933389831A828823A9F29FEF980F9330E4
:1020500078F48A83D9820E5F1F4FC7010E949333A1
:102060008B83882339F2CE0101960E94AF08E2CF1C
:102070008701F9CFAF92BF92CF92DF92EF92FF929A
:102080000F931F93CF93DF937C015B01C42FD22F5B
:10209000FC0182818823F9F04093B8010E9450220C
:1020A0009093B7018093B60180E28C0F883008F0DE
:1020B00061C0C77081E001C0880FCA95EAF7DF915F
:1020C000CF911F910F91FF90EF90DF90CF90BF9035
:1020D000AF900C94B7171091B801141340C08091C1
:1020E000B6019091B7010E9468226C01B701C50149
:1020F0000E94A91CC816D90690F5C0E2CD0F1D1785
:10210000B9F080E2810F883040F4177081E001C09F
:10211000880F1A95EAF70E94BE17C83048F481E08C
:102120009D2F977001C0880F9A95EAF70E94B71704
:10213000802F0E94A417C830E8F4D77081E001C056
:10214000880FDA95EAF7DF91CF911F910F91FF90F9
:10215000EF90DF90CF90BF90AF900C94BE1780E2CD
:102160008C0F883038F4C77081E001C0880FCA95A1
:10217000EAF7E9CFDF91CF911F910F91FF90EF9098
:10218000DF90CF90BF90AF9008950F939C01CB014B
:10219000243F4CE5340759F1A8F4283DFCE53F07FE
:1021A00001F1293D4CE53407D1F1273D3C4591F43F
:1021B00006E221EE41EE67ED7CE50E943A1080E0F8
:1021C0000F910895263FFCE53F07E9F0B0F0273F67
:1021D0003C45F9F0FC018281882339F11092B80165
:1021E000EFCF07E225EE45EE68ED7CE5E6CF06E2AF
:1021F00021EE40EE64EF7CE5E0CF07E225EE44EE11
:1022000065EF7CE5DACF06E221EE42EE66EF7CE593
:10221000D4CF07E225EE46EE67EF7CE5CECF08E2AD
:1022200021E045EE69ED7CE5C8CF81E0C9CFCF93D1
:10223000DF93EC01FB018281882309F419C1C230CC
:10224000FCE5DF07C0F1C6319CE5D90730F09E01FF
:102250002B5F3C452930310570F50E94E8209093B2
:102260006E0280936D02C031ECE5DE0709F4CFC049
:1022700008F05BC0C8308CE5D80709F4B6C088F513
:10228000C430ECE5DE0709F4A8C0C0F4C2308CE528
:10229000D80709F49CC080916D028260C330DC4590
:1022A00009F498C080916D0290916E020E94F62010
:1022B0000E94331A80E0DF91CF91089580916D02E2
:1022C0008061C630ECE5DE0709F484C080916D02C0
:1022D0008860C730DC4508F47DC080916D02806263
:1022E00079C0CC308CE5D80709F489C070F48091AE
:1022F0006D028C60CA30ECE5DE0709F46BC008F4AF
:1023000078C080916D028E7F65C0CE308CE5D80795
:1023100009F479C080916D028B7FCF30DC4508F4E1
:1023200059C080916D028F7E55C0CC3FECE5DE0731
:1023300009F457C030F5C3318CE5D80709F46FC0F4
:1023400078F4C131ECE5DE0709F465C0C231DC4543
:1023500009F0A8CF0E94331A80916D028F773AC09E
:10236000C5318CE5D80709F462C008F476C08091C5
:102370006E028160CB3FDC4509F094CF80936E0202
:1023800091CFC115FDE5DF0709F44DC088F48091B8
:102390006E028D7FCE3F9CE5D90781F380916E025E
:1023A0008E7FCF3FDC4550F380916E028360E6CF95
:1023B000C230FDE5DF0709F459C008F444C080E0ED
:1023C000C330DD4509F06ECF0E9474216BCF809140
:1023D0006D02816080936D0265CF80916D02846093
:1023E000F9CF80916E028260C9CF80916D028064C6
:1023F000F1CF0E94331A80916D028068EBCF8091FB
:102400006D028D7FE7CF80916D02877FE3CF809152
:102410006D028F7DDFCF80916D028F7BDBCF80914E
:102420006D02837FD7CF80916E028C7FA7CF809182
:102430006D0282FB992790F921E0922790FB82F9A7
:1024400090FB83F9C7CF80916E02982F9095917081
:102450008E7F892B90FB81F991CF0E94331A909146
:102460006D02892F97FB87F98058B4CF81E0ACCFFC
:1024700081E021CFCF93DF93EB0186319C4511F5AD
:102480000E94B61F9A81992399F08A7A91E009F403
:1024900090E09093B901811109C089E20E94911FD7
:1024A0000E94022080E0DF91CF91089585E3F6CF6E
:1024B0008091B901811104C089E20E94981FF0CF78
:1024C00085E3FBCF81E0EFCF4F925F926F927F92D7
:1024D0008F929F92AF92BF92CF92DF92EF92FF9234
:1024E0000F931F93CF93DF93EC01E881F981CF0124
:1024F000815095458F3F910510F485E5F827DB0164
:1025000012964C90442009F46AC2EF3FF10509F19C
:1025100000F1EE3DFC4521F01092BA01A42D07C058
:102520008091BA0191E089278093BA01A0E08A2FB7
:10253000DF91CF911F910F91FF90EF90DF90CF909F
:10254000BF90AF909F908F907F906F905F904F90D3
:102550000895A091BA01AA2309F4E9C01092BA0122
:10256000E03CF105F0F5E038F10508F0AAC0E034F0
:10257000F10508F070C021E030E040E050E060E09C
:1025800070E080E090E00E2F0E945D33B091BB01BF
:102590002B2BB091BC013B2BB091BD014B2BB091CB
:1025A000BE015B2BB091BF016B2BB091C0017B2BA7
:1025B000B091C1018B2BB091C2019B2B2093BB0129
:1025C0003093BC014093BD015093BE016093BF01A5
:1025D0007093C0018093C1019093C201F983E88395
:1025E000A6CFEF3FF10509F030F621E030E040E002
:1025F00050E060E070E080E090E08F01005C110945
:102600000E945D33B091D3012B2BB091D4013B2BB1
:10261000B091D5014B2BB091D6015B2BB091D70176
:102620006B2BB091D8017B2BB091D9018B2BB09142
:10263000DA019B2B2093D3013093D4014093D50131
:102640005093D6016093D7017093D8018093D9013C
:102650009093DA01C3CF21E030E040E050E060E049
:1026600070E080E090E08F01005411090E945D331A
:10267000B091C3012B2BB091C4013B2BB091C5018C
:102680004B2BB091C6015B2BB091C7016B2BB09166
:10269000C8017B2BB091C9018B2BB091CA019B2B38
:1026A0002093C3013093C4014093C5015093C601E8
:1026B0006093C7017093C8018093C9019093CA01C8
:1026C0008DCF21E030E040E050E060E070E080E05D
:1026D00090E08F01005811090E945D33B091CB0149
:1026E0002B2BB091CC013B2BB091CD014B2BB0915A
:1026F000CE015B2BB091CF016B2BB091D0017B2B26
:10270000B091D1018B2BB091D2019B2B2093CB01A7
:102710003093CC014093CD015093CE016093CF0113
:102720007093D0018093D1019093D20157CFE034C0
:10273000F10508F06BC07090BB018090BC019090D7
:10274000BD01D091BE01C091BF01B091C0015090B8
:10275000C1016090C20121E030E040E050E060E063
:1027600070E080E090E00E2F0E945D3359016A0115
:102770007B018C01272D2A21382D3B21492D4C210D
:102780005D2F5D216C2F6E217B2F7F21852D802376
:10279000962D91230E94763309F0C0CEE03CF105DE
:1027A00008F08EC0E038F10508F0EBC0E034F10528
:1027B00008F0B9C021E030E040E050E060E070E0B7
:1027C00080E090E00E2F0E945D332095309540957B
:1027D00050956095709580959095272138214921D5
:1027E0005D236C237B23852196212093BB013093AD
:1027F000BC014093BD015093BE016093BF01709333
:10280000C0018093C1019093C20191CEE038F105DF
:10281000E0F47090C3018090C4019090C501D09104
:10282000C601C091C701B091C8015090C901609024
:10283000CA0121E030E040E050E060E070E080E07C
:1028400090E08F01005411098FCFE03CF105E0F4D6
:102850007090CB018090CC019090CD01D091CE01B1
:10286000C091CF01B091D0015090D1016090D201C0
:1028700021E030E040E050E060E070E080E090E097
:102880008F010058110970CF7090D3018090D4014E
:102890009090D501D091D601C091D701B091D801C7
:1028A0005090D9016090DA0121E030E040E050E042
:1028B00060E070E080E090E08F01005C110954CF8F
:1028C000EF3FF10511F008F075CF8F01005C1109A1
:1028D00021E030E040E050E060E070E080E090E037
:1028E0000E945D3320953095409550956095709588
:1028F000809590952721382149215D236C237B23E6
:10290000852196212093D3013093D4014093D501A2
:102910005093D6016093D7017093D8018093D90169
:102920009093DA0104CE8F010054110921E030E0C8
:1029300040E050E060E070E080E090E00E945D33B5
:10294000209530954095509560957095809590951F
:102950002721382149215D236C237B238521962162
:102960002093C3013093C4014093C5015093C60125
:102970006093C7017093C8018093C9019093CA0105
:10298000D6CD8F010058110921E030E040E050E041
:1029900060E070E080E090E00E945D33209530952B
:1029A0004095509560957095809590952721382198
:1029B00049215D236C237B23852196212093CB0124
:1029C0003093CC014093CD015093CE016093CF0161
:1029D0007093D0018093D1019093D201A8CDA1E052
:1029E000EF3FF10509F0B8F5E034F105B0F580905E
:1029F000BB019090BC01D091BD01C091BE01B091CE
:102A0000BF01A091C0016090C1017090C20121E09E
:102A100030E040E050E060E070E080E090E00E2FB9
:102A20000E945D3359016A017B018C01282D2A2106
:102A3000392D3B214D2F4C215C2F5D216B2F6E21B9
:102A40007A2F7F21A1E0862D8023972D91230E944C
:102A5000763309F4A0E0A1706ACDE038F105E0F426
:102A60008090C3019090C401D091C501C091C6016E
:102A7000B091C701A091C8016090C9017090CA01CE
:102A80008F010054110921E030E040E050E060E0A7
:102A900070E080E090E0C4CFE03CF105A0F48090CD
:102AA000CB019090CC01D091CD01C091CE01B091DD
:102AB000CF01A091D0016090D1017090D2018F011F
:102AC00000581109E0CF8090D3019090D401D091AB
:102AD000D501C091D601B091D701A091D8016090E5
:102AE000D9017090DA018F01005C1109CCCF90936D
:102AF000E0018093DF010895E091DF01F091E001B2
:102B0000309721F00190F081E02D099480E0089544
:102B1000EF92FF920F931F93CF93DF938C01E0917D
:102B2000DF01F091E0013097C1F10280F381E02DE7
:102B300009958091430282FF30C080FF04C085EE7A
:102B400091E00E949406D0E0C0E08FEDE82E81E095
:102B5000F82E8091430280FF0EC0F801EC0FFD1F9C
:102B600080811F928F93FF92EF920E942D070F900A
:102B70000F900F900F902196C830D10551F780919A
:102B8000430280FF0AC08DED91E0DF91CF911F914C
:102B90000F91FF90EF900C949406DF91CF911F91CD
:102BA0000F91FF90EF900895E091DF01F091E00127
:102BB000309739F022E0DC012C930480F581E02D80
:102BC000099408952091DD013091DE01281739071D
:102BD00071F09093DE018093DD01E091DF01F091CF
:102BE000E001309721F00680F781E02D09940895E7
:102BF0002091DB013091DC012817390771F09093A7
:102C0000DC018093DB01E091DF01F091E00130977E
:102C100021F00084F185E02D0994089585B780683E
:102C200085BF85B7806885BF0895089508950C9481
:102C300094070E940E160E9416160C94360781E027
:102C400008950C941F160E9447220E94F60B0E94C2
:102C5000950D0E94C2220E94000D0C941716CF936E
:102C6000C82F8091430282FF1EC080FF1CC08EEFE0
:102C700091E00E9494068091430280FF14C01F924D
:102C8000CF9389EF91E09F938F930E942D078091BE
:102C900043020F900F900F900F9080FF04C087EFBA
:102CA00091E00E9494068C2FCF910C942809AF924A
:102CB000BF92CF92DF92EF92FF920F931F93CF9329
:102CC000DF93CDB7DEB72A970FB6F894DEBF0FBEFD
:102CD000CDBF0E94470C0E942116882309F461C0D1
:102CE00082EEA82E81E0B82E10E000E0C02E802FEA
:102CF0000E94A60BE82EF501D1905F01D81609F4C9
:102D00004AC08091430281FD0E94AC0B80E0FF2409
:102D1000F394DE249D2D9F21C9F18E83CF82EF2075
:102D200081E009F480E088870E9450228160782F3A
:102D30009A8789874E815F8168858A850E94F3160C
:102D4000F801EE51FE4F8081F826F0820E940F0DAF
:102D50000E94EF240E947C159091E101891791F166
:102D60000E947C158093E1012A960FB6F894DEBF8D
:102D70000FBECDBFDF91CF911F910F91FF90EF90CC
:102D8000DF90CF90BF90AF900C942F168F5FFF0C09
:102D9000853009F0BFCF0F5F1F4F0430110509F0D8
:102DA000A5CF8FEF89838A831B820E945022816086
:102DB000782F9D838C8349815A816B818D810E94FC
:102DC000F316C4CF2A960FB6F894DEBF0FBECDBF60
:102DD000DF91CF911F910F91FF90EF90DF90CF90F7
:102DE000BF90AF900895CF93DF93CDB7DEB72B9709
:102DF0000FB6F894DEBF0FBECDBF4F8358876987EB
:102E00007A878B871E821D8285E0FE013796DE0160
:102E1000119601900D928A95E1F749815A816B8153
:102E20007C818D819E812B960FB6F894DEBF0FBEFC
:102E3000CDBFDF91CF910C94AC1CFC0180819181BE
:102E40000C94631FCF93C82F882309F44CC08CEFD8
:102E50008C0F813AC8F48C2F0E94D029811143C075
:102E60006C2F80910001909101010E948B21882399
:102E700029F08C2F0E94981F0E9402208C2F0E9404
:102E8000911FCF910C94022080E28C0F883048F47F
:102E9000C77081E001C0880FCA95EAF70E94B91F88
:102EA000F0CFEBE5EC0FE33040F4F0E0E357FE4FFA
:102EB000808190E0CF910C94E215E8E5EC0FE731CA
:102EC00050F4F0E0EE0FFF1FE15AFE4F8081918138
:102ED000CF910C94F815C03F30F08C2F0E946723DF
:102EE000CF910C945224CF910895882361F19CEFE7
:102EF000980F913A20F40E94981F0C94022090E2BF
:102F0000980F983050F4877091E001C0990F8A951E
:102F1000EAF7892F0E94BF1FF0CF9BE5980F9330EF
:102F200020F490E080E00C94E21598E5980F97313A
:102F300020F490E080E00C94F815803F20F00E948F
:102F4000CF230C9452240895CF93C82F0E942217A8
:102F5000C93349F42FEF87EE93E021508040904031
:102F6000E1F700C000008C2FCF910C9475178823D7
:102F700021F00E94B91F0C9402200895882321F0AB
:102F80000E94BF1F0C9402200895BF92CF92DF923F
:102F9000EF92FF920F931F93CF93DF936C01D62F85
:102FA000C72FFC01058102950F70128111110E943B
:102FB000D61F0E94AF1FE82E882391F01123D1F075
:102FC0008C2F807F803421F080E28D0F883090F04C
:102FD00082E00E944D200E94AF1F91E0E82EE9267A
:102FE000BC2EB2949FE0B922EB2DF0E0E651FC4CF0
:102FF0000C945033E12CF4CF0C2F0F70C07F11F0E4
:103000000295007F1123A9F0002359F080E28D0F73
:10301000883010F0D11109C0802F0E94B91F0E9482
:1030200002208D2F0E94221714C0802F0E94C91FDA
:10303000F6CF8D2F0E947517002359F080E28D0F77
:10304000883010F0D1112CC0802F0E94BF1F0E9429
:1030500002202B2D2850330B2430310520F40E9400
:103060007C150E942809EE2009F49EC10E94AB1F26
:1030700080FD9AC1F60112820E94A51F0E942E1E99
:10308000C6010E94F5190E94A51FDF91CF911F91E3
:103090000F91FF90EF90DF90CF90BF900C944F1E58
:1030A000802F0E94CF1FD3CFFC2FFF70FF2EC07F39
:1030B000C03219F0F29480EFF822DD2369F0D130AC
:1030C00049F1112391F1002351F1F601858180FF2F
:1030D000A8CF8F70858323C0112381F0011106C012
:1030E0000E94E91F8F290E94B717B3CF0130C1F7A3
:1030F0000E94E91F8F290E94EF1FABCF011106C06C
:103100000E94F81F8F2D0E94BE17A3CF013009F433
:10311000A0CFF6CF112329F0033008F09ACF8F2DDE
:10312000E2CF023008F095CFEDCF002359F3D93329
:1031300049F4FFEF27EE33E0F15020403040E1F753
:1031400000C000008D2F0E94751783CF8C2F8695AD
:103150008695837069F0813009F07BCF8D2F9C2F8D
:103160009370111102C090E080E00E94F81571CFB9
:103170008D2F9C2F9370111102C090E080E00E946F
:10318000E21567CF8D2F112329F00E9467230E943B
:1031900052245FCF0E94CF23FACF8C2F837009F087
:1031A00041C0111156CF4D2F429546954770440F9F
:1031B000440F0D2F0F7010E030E020E0042E04C00B
:1031C000000F111F221F331F0A94D2F760E070E036
:1031D000CB01D4FF0FC06FE070E080E090E004C04E
:1031E000660F771F881F991F4A95D2F760957095D3
:1031F00080959095C695C695C370602B712B822BD8
:10320000932BC23049F058F4C13019F00E94E21DEE
:1032100020CF0E94D01D1DCF0E94F41D1ACF0E9406
:10322000CE1D17CF8695112311F08C2F8170882326
:1032300009F40FCF4D2F429546954770440F440F28
:103240000D2F0F7010E030E020E0042E04C0000FBE
:10325000111F221F331F0A94D2F760E070E0CB01E8
:10326000D4FF0FC06FE070E080E090E004C0660F14
:10327000771F881F991F4A95D2F7609570958095A2
:103280009095C695C695C370602B712B822B932B9E
:10329000C23049F058F4C13019F00E94A51ED9CEB1
:1032A0000E94931ED6CE0E94B71ED3CE0E94081E47
:1032B000D0CECF70112329F08C2F0E942E1E8D2F7F
:1032C00012CF8D2F0E94BE178C2F0E944F1EC1CE91
:1032D000D23F89F160F4D03FC9F0D13F29F11123E9
:1032E00009F442C001119DCE8C2F8F7121C0D33FB4
:1032F00039F1D43FA1F7112369F1CF718C2F0E94CE
:103300002E1E63E08C2F0E943820A3CE112341F0A3
:10331000023008F09ECE8C2F8F710E94721E99CEC3
:10332000033008F096CEF7CF8C2F8F71112369F2FE
:103330000E942E1E8ECE8C2F8F711123C9F3C5CF04
:10334000112329F08C2F8F710E94191E82CE0E94AA
:10335000141E7FCE81E00E944D20023008F479CE09
:1033600082E00E944D2075CE002359F0D93309F038
:10337000E9CE8FEF97EEE3E081509040E040E1F737
:10338000DFCE8C2F8F71A1CF4C2F4F706D2FC601C8
:103390000E94AB090E94461D5CCE4C2F4F706D2FD2
:1033A000C6010E94AE0955CEDF91CF911F910F91BA
:1033B000FF90EF90DF90CF90BF9008950F931F93F1
:1033C000CF93DF93EC01688179818A810E946D1F20
:1033D0008C010E94C91E0E94CD1DB801CE01DF9153
:1033E000CF911F910F910C94C517CF93DF93EC01F0
:1033F0008B819C81892B29F08881998189238F3F3A
:1034000059F4DF91CF910895CE010E94DE19CE01CB
:10341000DF91CF910C94F007CE010E943F098111FA
:10342000F3CF0E94AF1F882361F38A81882349F379
:1034300082E0DF91CF910C944D200E94D61F0E9414
:10344000E61F0E9402200E94FB250E94522490E069
:1034500080E00E94E21590E080E00C94F8150E9454
:103460009F1F0C941D1A0E94C61F0C942F1AE92F3F
:10347000E295EF70E250EE3070F4F0E0E650FC4C74
:103480000C945033803F19F020F4883E20F481E002
:103490000895843FE1F380E00895883EC0F3813FC2
:1034A000D1F7F5CF93FB882780F908950E94631F19
:1034B0000C94371ACF93DF9300D000D00F92CDB782
:1034C000DEB70F900F900F900F900F90DF91CF917C
:1034D0000895CF93DF9300D000D000D0CDB7DEB7F2
:1034E00026960FB6F894DEBF0FBECDBFDF91CF9109
:1034F00008951F93CF93DF93C091E70116E0809169
:10350000E8018C1304C0DF91CF911F910895D0E0A2
:103510001C9FF0011D9FF00D1124E751FE4F4081CB
:10352000518162817381848195810E94691A2196FB
:10353000C770E5CF4091190250911A0260911B02A9
:1035400070911C0280911D0290911E020C94691AC8
:103550001F93CF93DF9380911E02807FA9F4809107
:103560001B02882389F08091E701C091E8016091F6
:10357000190270911A02A0911C02B0911D02D62F5F
:10358000D72316E0C81304C0DF91CF911F9108958F
:1035900090E0109711F0DF3F19F401968770F2CF99
:1035A000189F9001199F300D1124F901E751FE4F2A
:1035B00041814713F2CF40814613EFCF4281411141
:1035C000ECCF438154814A1B5B0B483C510528F7E3
:1035D00080911E028F70806180931E02F901E2517A
:1035E000FE4F80818F708061808389E192E00E942C
:1035F000F519DF91CF911F910C94791AAF92BF9278
:10360000CF92DF92EF92FF920F931F93CF93DF93AE
:10361000CDB7DEB761970FB6F894DEBF0FBECDBF52
:103620008C0185E0F801DE011D9601900D928A95CE
:10363000E1F7F80140815181E28089E1C82E82E002
:10364000D82E60911C0270911D026115710509F45C
:1036500061C19091190220911A02892F82238F3F14
:1036600009F458C1A380B480F0901B02F501E61B59
:10367000F70BFF2009F4FCC080911E02382F307F29
:10368000E83CF10508F0B2C0311179C0FE2C2513D9
:1036900023C0941321C0E1101FC08F7080618093FC
:1036A0001E020E949A1AC6010E94F51980911E02FC
:1036B000F80185838F2D61960FB6F894DEBF0FBE9B
:1036C000CDBFDF91CF911F910F91FF90EF90DF90D1
:1036D000CF90BF90AF900895AB2829F0842F852319
:1036E0008F3F09F033C180E0F82FF170DF2E80FFAB
:1036F0003CC08091E7012091E80136E0821315C0BB
:103700004D875E878D859E850E94631F292F229598
:103710002F702230F0F0243018F59F70F1F0F8018E
:103720009581907FD1F4D12C1EC090E0389FF0019C
:10373000399FF00D1124E751FE4F6181651306C0DA
:103740006081641303C062816E110FC0019687709F
:10375000D5CF9F7011F0882331F3805E883018F345
:10376000C8010E94F519FD2CA5CFEE2009F4A2CFC7
:1037700080911E02816080931E02F12C9BCF251345
:1037800006C0941304C0F801EE2009F48DC04D87E3
:103790005E878D859E850E94561A882319F1EE203A
:1037A00009F180911E02803270F02091190230914F
:1037B0001A0238872F831986BB86AA868C87CE018A
:1037C00007960E94F51986E0F801A9E1B2E00190A0
:1037D0000D928A95E1F70E94A81A0E949A1AFF2476
:1037E000F39468CFC8010E94F519F9CF311113C0C5
:1037F0007A2DB98AA88A6E2D89890E945A1A89E180
:1038000092E00E94F51986E0F60111928A95E9F797
:103810000E949A1AB2CF25130FC094130DC0E11065
:103820000BC0F8018583C8010E94F51986E0F601F6
:1038300011928A95E9F73ECF4D875E878D859E85EB
:103840000E94561A882371F2EE2061F280911E02C6
:10385000803208F4B8CF2091190230911A023A83CD
:1038600029831B82BD82AC828E83CE010196A9CFB3
:10387000E83CF10508F041C0FE2CEE2009F4B2CF7F
:1038800025132AC0941328C080911E0280FD1BC0FE
:10389000982F907FC1F0F8018583903F31F0982FE9
:1038A000907F905F8F70892B8583C8010E94F519E6
:1038B00086E0F801A9E1B2E001900D928A95E1F766
:1038C0000E949A1AF7CE86E0F801A9E1B2E00190D1
:1038D0000D928A95E1F7EECE4D875E878D859E85A8
:1038E0000E94561A81116FCF80911E0281608093D1
:1038F0001E02C8010E94F519DDCE7A2DB98AA88A68
:103900006E2D89890E945A1A86E0F60111928A95D5
:10391000E9F7D6CFEE2009F465CF4D875E878D8518
:103920009E850E94561AF82E882309F45BCF86E004
:10393000F801A9E1B2E001900D928A95E1F789E1E1
:1039400092E00E941D170E94A81ABACF81E08E252E
:10395000CBCE88EC90E008951F93CF93DF93CDB743
:10396000DEB72C970FB6F894DEBF0FBECDBF4F83E6
:10397000588769877A878B879C87CE0107960E9434
:10398000FE1A882369F08A859B85892B39F04F813F
:103990005885842F85238F3F09F071C016E05FC0E2
:1039A00086E0FE013796DE01119601900D928A9510
:1039B000E1F78A859B85892B89F388859F818923F7
:1039C0008F3F61F32091E80130E0C90101968770D3
:1039D00099274091E7014817190671F40E94331A9C
:1039E0001092E8011092E70186E0E9E1F2E0DF01E0
:1039F0001D928A95E9F7D2CF96E0929FD001939FCE
:103A0000B00D1124A751BE4FFE01319601900D92C9
:103A10009A95E1F78093E8010E94791ABFCF819FC0
:103A2000C001112487519E4F0E94FE1A8823E9F09D
:103A3000E091E7011E9FF0011124E751FE4F408104
:103A4000518162817381848195810E94691A80917C
:103A5000E70190E00196877099278093E7018091B4
:103A6000E7019091E8018913DACF2C960FB6F8940C
:103A7000DEBF0FBECDBFDF91CF911F910895698545
:103A80007A858B859C850E94691A88CFEF92FF9278
:103A90000F931F93CF93DF938C01892B81F0F12C2F
:103AA000EE24E394E8012196F8018491843770F4C0
:103AB000843008F05FC08130B1F08230A1F1DF9135
:103AC000CF911F910F91FF90EF900895853709F4E2
:103AD0004CC008F43DC09CE7980F903780F78F7773
:103AE0000E94751749C00E5F1F4FFE01849190E23E
:103AF000980F983060F48770FE2D01C0FF0F8A95F3
:103B0000EAF78F2F0E94D91F0E94022002C00E9454
:103B100022178F2D815030F2EFE9FFE03197F1F756
:103B200000C00000F7CF0E5F1F4FFE01849190E2AE
:103B3000980F983050F48770FE2D01C0FF0F8A95C2
:103B4000EAF78F2F0E94DF1FDFCF0E947517E1CFAA
:103B50000E5F1F4FFE01C491C150D8F28FE99FE064
:103B60000197F1F700C00000F7CF0E5F1F4FFE0175
:103B7000F490CFCF0E9422178E01CBCF08950C94E2
:103B8000BE1D0E94BF1D609332027093330280936A
:103B90003402909335020C941D1A08950C94C11DA3
:103BA0000F931F930091320210913302209134023F
:103BB00030913502602B712B822B932B1F910F912B
:103BC0000C94C11D0F931F93009132021091330288
:103BD0002091340230913502602371238223932394
:103BE0001F910F910C94C11D0F931F9300913202EE
:103BF00010913302209134023091350260277127F1
:103C0000822793271F910F910C94C11D0C94BE1D08
:103C10000E943D0760932E0270932F028093300222
:103C2000909331020C941D1A60E070E0CB010C946B
:103C3000081E0F931F9341E050E060E070E08A019E
:103C40009B0104C0000F111F221F331F8A95D2F75A
:103C5000C901B8011F910F910C94081E0F931F9377
:103C600041E050E060E070E004C0440F551F661F63
:103C7000771F8A95D2F780912E0290912F02A09102
:103C80003002B09131028A019B01082B192B2A2B9B
:103C90003B2BC901B8011F910F910C94081E0F9383
:103CA0001F9341E050E060E070E004C0440F551FF6
:103CB000661F771F8A95D2F7CB01BA016095709580
:103CC0008095909500912E0210912F022091300244
:103CD0003091310260237123822393231F910F912E
:103CE0000C94081E0F931F9341E050E060E070E0D9
:103CF00004C0440F551F661F771F8A95D2F7809125
:103D00002E0290912F02A0913002B09131028A01CF
:103D10009B01082719272A273B27C901B8011F91B2
:103D20000F910C94081E0F931F9300912E02109177
:103D30002F022091300230913102602B712B822BA7
:103D4000932B1F910F910C94081E0F931F930091BA
:103D50002E0210912F022091300230913102602307
:103D60007123822393231F910F910C94081E0F93AC
:103D70001F9300912E0210912F022091300230915A
:103D8000310260277127822793271F910F910C948E
:103D9000081E0895E92FEE0FEE0F9E0F890F982F42
:103DA000977041E001C0440F9A95EAF78695869591
:103DB000869595E0899FF0011124E15EFD4F30E08A
:103DC00020E070E05191DF011197CB01022E02C07B
:103DD000969587950A94E2F78170819585278423CB
:103DE00085278C932F5F3F4F2530310559F7089574
:103DF000E92FEE0FEE0F9E0F890F982F9770869583
:103E00008695869525E0829FF0011124E15EFD4FA5
:103E100050E040E080E0219130E0092E02C036956C
:103E200027950A94E2F721703327042E01C0220F50
:103E30000A94EAF7822B4F5F5F4F4530510559F7DF
:103E40000895BF92CF92DF92EF92FF920F931F934C
:103E5000CF93DF938C01C0902E02D0902F02E09080
:103E60003002F09031028091320290913302A091A1
:103E70003402B0913502C82AD92AEA2AFB2ACFE1B6
:103E8000D0E0BC2ED701C6010C2E04C0B695A79574
:103E9000979587950A94D2F780FD0EC0219788F7F1
:103EA000B12C8B2DDF91CF911F910F91FF90EF904F
:103EB000DF90CF90BF900895B8018C2F0E94B70972
:103EC000019761F3EECFCF93DF93EC010E94211FA6
:103ED000BE01DF91CF910C94B7091F93CF93DF936D
:103EE000EB019091E601992331F0CB01DF91CF9165
:103EF0001F910C94631F882379F0CB010E94211F2E
:103F0000182F682FCE010E94CA1EBE01812FDF919B
:103F1000CF911F910C94B709CB010E94F81E182F66
:103F2000F4CF682F80910001909101010C94C12180
:103F3000682F80910001909101010C94C321809120
:103F40000001909101010C94C52180913602859564
:103F50008595859508958091360287700895909192
:103F60003602977081E009F480E008958091420262
:103F7000089590914202892B809342020895809582
:103F80009091420298239093420208951092420227
:103F9000089590914102892B809341020895809564
:103FA000909141029823909341020895109241020A
:103FB000089590914002892B809340020895809546
:103FC00090914002982390934002089510924002ED
:103FD000089580913702089508950C94EC1F9091F4
:103FE0003702981721F0809337020C94ED1F089543
:103FF00080913702882329F01092370280E00C94D8
:10400000ED1F0895E0910001F091010180914202BD
:104010008083E0910001F091010180819091410243
:10402000892B8083E0910001F091010180819091C2
:104030004002892B808390913702992381F0E0918F
:104040000001F09101018081892B80838091000122
:10405000909101010E94792181110E94F81F8091A5
:104060000001909101010C94881508950C9435205D
:1040700098E0899F90011124622B609336020E9480
:104080002E1E809136028595859585950C94362057
:104090001092360280E00C94362090913602809582
:1040A000892380933602282F277071F4282F082E39
:1040B000000C330B9217130639F08595859585957D
:1040C0000E944F1E0C94482008959093AF01809356
:1040D000AE010895CF92DF92EF92FF926C01EE2431
:1040E000FF2420E0C114D104E104F10419F0C70158
:1040F000B60120E1C72ED82EE92EFF24C114D10429
:10410000E104F10419F0285FC701B6016B017C01DD
:1041100054E0F694E794D794C7945A95D1F7C11414
:10412000D104E104F10419F02C5FC701B6016B0161
:104130007C0142E0F694E794D794C7944A95D1F76E
:10414000C114D104E104F10419F02E5FC701B601D6
:104150009695879577956795672B682B692B09F05E
:104160002F5F822FFF90EF90DF90CF900895829580
:1041700090E09C01220F331F220F331F2C7C95955A
:104180008795959587958373282B30E0C901880F13
:10419000991F8A7A359527952575822B08956FEF9B
:1041A0007FEF90E080E00C94BF3390E080E00E94CD
:1041B0009B3321E08C3E9E4F09F020E0822F089532
:1041C00082E090E00C94933383E090E00C9493337E
:1041D000CF9384E090E00E949333C82F81E290E077
:1041E0000E949333982F8C2FCF910895CF93C92F8E
:1041F000682F84E090E00E94A1336C2F81E290E070
:10420000CF910C94A133AB01BC018FE090E00C94F2
:10421000B333AB01BC0183E190E00C94B33360E0B5
:1042200070E0CB010C94092160E070E0CB010E94AA
:1042300003210C940F216CEE7EEF90E080E00E9451
:10424000BF3360E082E090E00E94A13360E083E051
:1042500090E00E94A1331092320210923302109229
:1042600034021092350260E084E090E00E94A133B5
:1042700060E081E290E00E94A13360E085E090E0A0
:104280000E94A13360E086E090E00E94A1336FEFCE
:1042900087E090E00E94A13340E050E0BA0188E05E
:1042A00090E00E94B33360E08DE090E00E94A13383
:1042B00040E050E0BA0188E190E00E94B33360E052
:1042C00087E190E00E94A13340E050E0BA018CE128
:1042D00090E00E94B33360E080E290E00E94A1335E
:1042E0000C9414210C941B21682F8EE090E00C9408
:1042F000A1339C012E5F3F4FAC01485F5F4F80E0D0
:104300002417350709F40895F90191919F01992324
:10431000B9F38F5FF5CF662349F0FC01329608961A
:104320002191261729F0E817F907D1F780E00895C1
:1043300081E008959C01FC0132969FEF80E041915D
:10434000461751F09F3F19F4411101C0982F8F5F1C
:104350008630A9F79F3F09F40895290F311D97FD75
:104360003A95F90162830895FC01329608962191ED
:10437000261303C0DF0111971C92E817F907B9F75C
:1043800008950C949A210C94B421029626E0FC0125
:1043900011922A95E9F70895089508950C94CD2176
:1043A0000E94CE2180917302843049F11092440220
:1043B00088E190E020E40FB6F894A895809360001F
:1043C0000FBE2093600080E00E9428090E94CE2149
:1043D00083B7817F846083BF83B7816083BF789414
:1043E000889583B78E7F83BF0FB6F894A895809188
:1043F0006000886180936000109260000FBE089595
:104400000895CF930E94CC210E94470C0E94002265
:10441000C0E08C2F0E94A60B811105C0CF5FC43075
:10442000C1F7CF91089581E0FCCF08950C94152237
:104430000E94331A0E947C150E9428090C941622AF
:104440001F921FB61F9211248F939F93AF93BF9318
:1044500080914402811113C08091690290916A0297
:10446000A0916B02B0916C024196A11DB11D809389
:10447000690290936A02A0936B02B0936C02BF91A1
:10448000AF919F918F911F901FBE1F90189582E052
:1044900084BD93E095BD9AEF97BD80936E0008951B
:1044A0002FB7F8948091690290916A02A0916B02F3
:1044B000B0916C022FBF08952FB7F89460916902F4
:1044C00070916A0280916B0290916C022FBF0895E7
:1044D0009C014FB7F8948091690290916A02A09173
:1044E0006B02B0916C024FBF821B930B08957894BE
:1044F0001F921FB61F9211248F939F93AF93BF9368
:104500008091690290916A02A0916B02B0916C0255
:104510000196A11DB11D8093690290936A02A09338
:104520006B02B0936C02BF91AF919F918F911F90DE
:104530001FBE1F90189587E797E790930108809317
:10454000000888E19AE00FB6F894A895809360007F
:104550000FBE90936000FFCF0C94820D0E94470C19
:104560008FE39CE90197F1F700C000000E94470C1F
:1045700083E00E94A60B80FF04C00E94AC220C9432
:104580009B2208950E94D520811102C00E947221B1
:104590000E94E020809343020E94E82090936E02E4
:1045A00080936D020E94E420682F70E090E080E02C
:1045B0000E94CE1D60912E0270912F0280913002D8
:1045C000909131020C943D0780914B0280FF12C004
:1045D0006091070185E0689FB0011124759567958A
:1045E0007595679560387105A8F561157105A1F19C
:1045F000862F089581FF09C06091070185E0689FBB
:10460000B001112475956795EDCF6091070182FD8A
:104610000AC080914A028823D1F0909106016091EE
:104620000701891728F085E0689FB0011124DACFCF
:10463000869FB001112485E0869F9001879F300DF1
:104640001124692F70E0C9010E943C33CBCF65E093
:1046500070E0CECF8FE7089581E0089580914B02FE
:1046600080FF0CC06091030170E0759567957595AA
:1046700067956115710549F1862F089581FF06C080
:104680006091030170E075956795F3CF6091030128
:1046900082FD0BC0909149029923A1F06091020123
:1046A00080910301961738F0682F70E0603871052B
:1046B00000F38FE70895899FC001112470E00E94E4
:1046C0003C33F4CF61E070E0D7CF81E00895803FC4
:1046D00031F40E94E422819580934F020895813F36
:1046E00019F40E94E422F8CF823F31F40E94E422C0
:1046F000819580934E020895833F19F40E94E4222D
:10470000F8CF893F29F40E942E2380935002089508
:104710008A3F21F40E942E238195F7CF8B3F31F4FD
:104720000E942E2381958093510208958C3F19F4A5
:104730000E942E23F8CF843F31F480914D02816096
:1047400080934D020895853F21F480914D0282604F
:10475000F7CF863F21F480914D028460F1CF873FEF
:1047600021F480914D028860EBCF883F21F4809145
:104770004D028061E5CF8D3F31F480914B02816025
:1047800080934B0208958E3F21F480914B0282600A
:10479000F7CF8F3FB9F780914B028460F1CF9091B2
:1047A0004E02803F59F480914F0287FF0DC0109256
:1047B0004F0291110BC010924A0208C0813F81F450
:1047C00080914F0218169CF3992381F0809150023A
:1047D00090915102892B09F064C01092490208950A
:1047E000823F49F497FFF0CF10924E0280914F0222
:1047F0008111ECCFE0CF833F19F41916ACF3E4CF6D
:1048000020915002893F29F41216F4F610925002BA
:10481000DBCF8A3F19F427FFD7CFF8CF2091510281
:104820008B3F29F427FFD0CF10925102CDCF8C3F80
:1048300019F41216CCF3C8CF843F31F480914D02A5
:104840008E7F80934D02C0CF853F21F480914D0231
:104850008D7FF7CF863F21F480914D028B7FF1CF82
:10486000873F21F480914D02877FEBCF883F21F471
:1048700080914D028F7EE5CF8D3F31F480914B02C8
:104880008E7F80934B02A0CF8E3F21F480914B020C
:104890008D7FF7CF8F3F09F097CF80914B028B7FB1
:1048A000F0CF08958091430283FF7EC088E392E0B9
:1048B0000E94940680914D021F928F9383E392E0B1
:1048C0009F938F930E942D0781E392E00E949406AC
:1048D00080914E02282F082E000C330B3F938F93AC
:1048E0008EE292E09F938F930E942D078CE292E0DC
:1048F0000E94940680914F02282F082E000C330B43
:104900003F938F9389E292E09F938F930E942D07AC
:1049100087E292E00E94940680915002282F082E90
:10492000000C330B3F938F9384E292E09F938F931D
:104930000E942D0782E292E00E949406809151022B
:10494000282F082E000C330B3F938F938FE192E0BA
:104950009F938F930E942D078CE192E00E94940612
:1049600080914A021F928F9389E192E09F938F93E7
:104970000E942D0787E192E00E94940680914B02ED
:104980001F928F9384E192E09F938F930E942D0753
:1049900081E192E00E9494068DB79EB74C960FB6C7
:1049A000F8949EBF0FBE8DBF0E9450229C01909133
:1049B0004E0280914F02982B21F0309348022093B1
:1049C00047029091500280915102982B21F0309330
:1049D0004602209345028CE492E00C94D415EF92A9
:1049E000FF920F931F93CF93DF9300D000D000D09E
:1049F000CDB7DEB786E0ECE4F2E0DE01119601907F
:104A00000D928A95E1F7E0904E02F0904F020091EE
:104A100050021091510210924E0210924F021092C9
:104A20005002109251028E2D8F2991F080914702F1
:104A3000909148020E946822AC0190914A02992309
:104A400009F43FC0809108018417150608F447C097
:104A5000802F812B91F080914502909146020E9417
:104A60006822AC0190914902992309F477C08091A2
:104A700004018417150608F47FC080914E029091BE
:104A80004F02892B90915002892B90915102892BD2
:104A900011F00E94522486E0FE013196ACE4B2E0AF
:104AA00001900D928A95E1F726960FB6F894DEBF35
:104AB0000FBECDBFDF91CF911F910F91FF90EF906F
:104AC0000895209109018AE0289F9001112424175C
:104AD000350708F0BDCF9F5F90934A0202C09F3F09
:104AE000D1F7EE2059F00E94E4229FEF1E140CF43F
:104AF00091E0899F802D112480934E02FF2059F070
:104B00000E94E4229FEF1F140CF491E0899F802DF6
:104B1000112480934F0230914E02332309F498CF31
:104B200020914F02222309F493CF45EB3403C001B7
:104B30001124992359F090934E0245EB24039001E0
:104B40001124332339F030934F0282CF81E08093D8
:104B50004E02F3CF81E080934F027ACF209105017E
:104B60008AE0289F900111242417350708F085CF8B
:104B70009F5F9093490202C09F3FD1F7002359F0F5
:104B80000E942E239FEF10160CF491E0899F802D38
:104B9000112480935002112359F00E942E239FEF7D
:104BA00011160CF491E0899F802D112480935102FD
:104BB00030915002332309F460CF20915102222317
:104BC00009F45BCF45EB3403C0011124992359F05C
:104BD0009093500245EB240390011124332339F0C4
:104BE000309351024ACF81E080935002F3CF81E0AD
:104BF0008093510242CF86E0ECE4F2E0DF011D92A7
:104C00008A95E9F710924A021092490210924B02DB
:104C100008958BE594E00E9494061F9281E08F93A3
:104C20001F9285E08F938DE094E09F938F930E9475
:104C30002D070F900F900F900F900F900F900895E9
:104C4000833009F445C028F4813061F0823049F1A5
:104C50000895853009F46AC008F451C0863009F41B
:104C60007CC0089580910901482F460F5527551F94
:104C70004F3F510594F4680F609309018091090139
:104C80001F928F9386E493E09F938F930E942D074A
:104C90000F900F900F900F9008958FEF8093090160
:104CA000EDCF80910801482F460F5527551F4F3FE4
:104CB000510554F4680F60930801809108011F9218
:104CC0008F9384E393E0E0CF8FEF80930801F5CFDB
:104CD00080910701482F460F5527551F4F3F51051B
:104CE00054F4680F60930701809107011F928F931E
:104CF00081E293E0C9CF8FEF80930701F5CF8091D8
:104D00000601482F460F5527551F4F3F510554F4B4
:104D1000680F60930601809106011F928F938CE0CB
:104D200093E0B2CF8FEF80930601F5CF809103011E
:104D3000482F460F5527551F4F3F510554F4680F14
:104D400060930301809103011F928F9383EF92E0A0
:104D50009BCF8FEF80930301F5CF80910201482F05
:104D6000460F5527551F4F3F510554F4680F609368
:104D70000201809102011F928F9388ED92E084CF0F
:104D80008FEF80930201F5CF8330C9F128F4813091
:104D900061F0823019F10895853009F452C008F4A9
:104DA0003FC0863009F45EC00895809109016817FC
:104DB00090F4861B80930901809109011F928F93C3
:104DC00089EC92E09F938F930E942D070F900F9094
:104DD0000F900F90089510920901EECF8091080175
:104DE000681750F4861B80930801809108011F9278
:104DF0008F9387EB92E0E6CF10920801F6CF809177
:104E00000701681750F4861B809307018091070102
:104E10001F928F9384EA92E0D5CF10920701F6CFCC
:104E200080910601681750F4861B809306018091DB
:104E300006011F928F938FE892E0C4CF1092060173
:104E4000F6CF80910301681750F4861B809303010D
:104E5000809103011F928F9386E792E0B3CF109267
:104E60000301F6CF80910201681750F4861B8093EE
:104E70000201809102011F928F938BE592E0A2CFF5
:104E800010920201F6CFCF93C82F1F928F9380E626
:104E900095E09F938F930E942D0761E070E080E082
:104EA00090E004C0660F771F881F991FCA95D2F73C
:104EB0000E94CE1D0F900F900F900F90CF910C94E9
:104EC000331ACF93DF938B3109F4FAC108F09CC1F8
:104ED0008B3009F4B8C108F06AC1863009F4C6C144
:104EE00048F4853009F49EC185EE99E00E9494064D
:104EF00080E0CCC1873009F4CCC18830A9F784E8C0
:104F00009AE00E94940685ED99E00E9494060E9422
:104F1000E4201F928F9382ED99E09F938F930E94DC
:104F20002D0780ED99E00E9494060E94E020C82F92
:104F30008DEB99E00E9494061F92CF9388EB99E045
:104F40009F938F930E942D0786EB99E00E94940611
:104F50008CEA99E00E9494068C2F81701F928F93A7
:104F600089EA99E09F938F930E942D0787EA99E041
:104F70000E9494068DE999E00E949406C1FB88275F
:104F800080F91F928F938AE999E09F938F930E94F3
:104F90002D0788E999E00E9494068CE899E00E9428
:104FA0009406C2FB882780F91F928F9389E899E0C5
:104FB0009F938F930E942D0787E899E00E949406A3
:104FC0008EE799E00E949406C3FBCC27C0F91F929C
:104FD000CF938BE799E09F938F930E942D0789E7EA
:104FE00099E00E9494060E94E820EC0185E699E091
:104FF0000E949406DF93CF9380E699E09F938F936E
:105000000E942D078EE599E00E94940685E499E0C0
:105010000E9494068C2F81701F928F9382E499E0F6
:105020009F938F930E942D078DB79EB780960FB6E2
:10503000F8949EBF0FBE8DBF80E499E00E94940655
:1050400089E299E00E949406C1FB882780F91F92AB
:105050008F9386E299E09F938F930E942D0784E2BD
:1050600099E00E94940682E199E00E9494068D2FB7
:1050700081701F928F938FE099E09F938F930E948E
:105080002D078DE099E00E9494068BEF98E00E9436
:105090009406D695D1701F92DF9388EF98E09F9386
:1050A0008F930E942D0786EF98E00E94940684EE6D
:1050B00098E00E949406C2FB882780F91F928F9384
:1050C00081EE98E09F938F930E942D078FED98E0DB
:1050D0000E9494068DEC98E00E949406C3FB8827FA
:1050E00080F91F928F938AEC98E09F938F930E9490
:1050F0002D0788EC98E00E9494068EEB98E00E94C1
:105100009406C4FB882780F91F928F938BEB98E05D
:105110009F938F930E942D0789EB98E00E9494063D
:1051200087EA98E00E949406C5FB882780F91F92C1
:105130008F9384EA98E09F938F930E942D0782EAD1
:1051400098E00E94940686E898E00E949406C6FBC8
:10515000882780F91F928F9383E898E09F938F931D
:105160000E942D078DB79EB780960FB6F8949EBF0C
:105170000FBE8DBF81E898E00E94940689E798E011
:105180000E949406C7FBCC27C0F91F92CF9386E7F5
:1051900098E09F938F930E942D0784E798E00E94E8
:1051A00094060F900F900F900F9081E06FC08031A8
:1051B00009F49EC080F48E3009F096CE909143029F
:1051C000892F8B7F92FF84608093430282FF8DC082
:1051D00080E19AE081C0863109F49AC0893109F0F2
:1051E00083CE8BE996E00E94940681E696E00E94C9
:1051F00094068FE296E00E94940689EF95E00E9463
:1052000094068EEC95E021C08A3249F190F4873201
:1052100011F128F48E3108F467CE8D511DC089320A
:1052200009F062CE83E59AE00E9494060E9430095C
:10523000BCCF833468F48A3308F0A1C0853359F0B9
:10524000883309F051CE81ED96E00E949406ADCFEF
:10525000833409F049CE80E00E944327A6CF83E73C
:105260009AE00E9494060E9472219FCF809143028F
:10527000807F809343028AEA96E00E9494068FE63C
:105280009AE00E94940681E080935302DF91CF91CF
:10529000089590914302892F8E7F90FF81608093C3
:1052A000430280FF03C087E49AE0CFCF8AE39AE00D
:1052B0000E94940680914302817F8093430275CFC0
:1052C00090914302892F8D7F91FF826080934302EA
:1052D00081FF08C08DE29AE00E949406809143020B
:1052E0008160EBCF8FE19AE0B0CF80E09AE0ADCF64
:1052F00090914302892F877F93FF886080934302B8
:1053000083FF03C084EF99E0E7CF87EE99E09DCF5C
:1053100080EC95E00E9494060E947C151F928F936A
:1053200086EA95E09F938F930E942D078091140148
:105330001F928F938FE895E09F938F930E942D0784
:10534000809160021F928F938CE795E09F938F93DB
:105350000E942D070E945C229F938F937F936F93EF
:1053600085E695E09F938F930E942D078DB79EB79A
:1053700042960FB6F8949EBF0FBE8DBF16CF8953CD
:105380006BCF80E008950C94C1298E518A3030F49F
:10539000E82FF0E0E057FE4F8081089580E0089507
:1053A000CF93C82F809153028130C1F0882339F008
:1053B000823009F447C01092530280E00DC00E9471
:1053C000B61F8232D1F78C2F0E94C12981111BC0D8
:1053D0008C2F0E9461278170CF9108950E94B61F83
:1053E000823289F38C2F0E94C32981111BC0C431E2
:1053F000D9F060F4CB3071F0C031D1F086E595E0A2
:105400000E94940613C081E090E0E5CFC93261F0BC
:10541000C833A1F78AEA96E00E9494068CE595E0ED
:105420000E94940681E0D7CF1092530280E0D3CF40
:105430000E94092688E595E00E94940682E0809308
:105440005302F0CFC432C8F4CE3108F0BEC0CB3026
:10545000E1F040F4C73009F4CCC08AEF93E00E9439
:10546000940626C0C331C1F1C431B9F7809152020C
:10547000882351F1109252020AC0CB3409F4B7C00C
:10548000C8F4C93299F3C83341F70E9409268091C4
:105490005202882309F4C4C01F928F9384EF93E0D3
:1054A0009F938F930E942D070F900F900F900F9056
:1054B00081E092CFC13509F494C0C23509F48BC0A4
:1054C000CE3459F66AE08EC089E094E00E949406DA
:1054D00081E08093530280CF83EE93E00E94940694
:1054E00081ED93E00E949406809109011F928F93B1
:1054F0008EEC93E09F938F930E942D078CEC93E0AA
:105500000E9494068AEB93E00E9494068091080121
:105510001F928F9387EB93E09F938F930E942D07A9
:1055200085EB93E00E94940686EA93E00E9494063D
:10553000809107011F928F9383EA93E09F938F934B
:105540000E942D0781EA93E00E94940680E993E08F
:105550000E949406809106011F928F938DE893E03C
:105560009F938F930E942D078BE893E00E949406EF
:1055700086E793E00E949406809103011F928F9327
:1055800083E793E09F938F930E942D0781E793E039
:105590000E9494068AE593E00E949406809102019D
:1055A0001F928F9387E593E09F938F930E942D071F
:1055B00085E593E00E9494068DB79EB748960FB696
:1055C000F8949EBF0FBE8DBF62CF8C2F0E94C5295D
:1055D000809352025CCF61E0809152020E942026AB
:1055E00056CF61E0809152020E94C42650CF6AE0FB
:1055F000F3CF8EE18093090182E3809308018AE072
:105600008093070184E18093060188E08093030181
:1056100088E2809302018CEF93E00E94940637CFDA
:1056200081EF93E01CCF80915F0208959FB7F894BB
:10563000109256029FBF90917302943009F048C0B7
:105640002091E9002F703091EC00932F917030FD84
:1056500090E8922B25E02093E9002091EB0020FFB9
:1056600034C02091EE0027FF30C020915402222345
:1056700021F02091E80025FF28C01092540226E076
:105680003091E80035FF14C08093F1008091E8006C
:1056900085FD27C08091E80080FFFCCF8091E80065
:1056A0008E778093E8009F709093E90080E00895E2
:1056B00030917302343049F43091EB0035FD05C070
:1056C000215041F481E0809354029F709093E9004F
:1056D0008FEF0895EFE9FFE03197F1F700C0000088
:1056E000CFCF8FB7F89421E0209356028FBFDBCF46
:1056F000CF93DF9300D00F92CDB7DEB790917302B6
:10570000943011F589837B836A839093E9008FEF4E
:105710009091E800815095FD06C095ED9A95F1F7BE
:1057200000008111F5CF8091E80085FF0DC050E0A9
:1057300040E063E070E0CE0101960E94512E80911E
:10574000E8008E778093E8000F900F900F90DF9124
:10575000CF910895BC0184E00C94782BBC0183E0C8
:105760000C94782B9C0184E08093E9009FEF80915A
:10577000E800915085FD06C085ED8A95F1F700009F
:105780009111F5CF8091E80085FF0CC050E040E01A
:1057900066E070E0C9010E94512E8091E8008E778A
:1057A0008093E8000895CF93DF93EC0181E080932C
:1057B000E9008FEF9091E800815095FD06C095EDCE
:1057C0009A95F1F700008111F5CF8091E80085FFEF
:1057D00014C050E040E068E070E0CE010E94512E1D
:1057E0008091E8008E778093E80088E0FE01A7E5CD
:1057F000B2E001900D928A95E1F7DF91CF91089583
:10580000CF93FC01603221F580917302843001F561
:10581000C091E900CF702091EC00922F917020FD93
:1058200090E8C92B82E08093E9008091E80080FF36
:105830000CC050E040E060E270E0CF010E94512EC9
:105840008091E8008E778093E800CF70C093E900E4
:10585000CF91089584EB9AE00E94940680917202A1
:10586000811109C00E9430300E948D308091E20089
:1058700084608093E200089580EB9AE00E94940691
:105880001092720208958CEA9AE00C94940688EAC9
:105890009AE00C94940684EA9AE00E9494060C9490
:1058A0001822209155022F5F822F62E30E9430332D
:1058B000992319F020935502089510925502809172
:1058C00056028823F1F0809173028430C1F49091E4
:1058D000E9009F702091EC00822F817020FD80E80C
:1058E000892B95E09093E9009091EB0090FF04C024
:1058F0009091EE0097FD08C08F708093E9001092A0
:10590000560208951092F1009091E80095FDFACFAB
:105910009091E80090FFF0CF9091E8009E779093EF
:10592000E800EACF42E061EC81E00E94AC2F42E265
:1059300061EC84E00E94AC2F42E261EC82E00E94C4
:10594000AC2F42E260EC83E00E94AC2F42E261ECBB
:1059500085E00C94AC2F80917502833009F461C00E
:1059600030F48130D1F1823009F49DC008958A303D
:1059700009F489C08B3009F46FC0893009F050C038
:1059800080917402813209F04BC08091780290912D
:105990007902009719F0029709F042C08091E8005F
:1059A000877F8093E8008091E80082FF35C0909166
:1059B000F3008091F200029729F48091F1008B7F2F
:1059C000813021F48091F10080935F028091E800A2
:1059D0008B778093E8000C94E02F80917402813AD9
:1059E000F9F48091E800877F8093E8008091780245
:1059F00090917902892B61F468E087E592E070E08C
:105A00000E94EF2E8091E8008B778093E800089544
:105A100060E090E080E0F3CF809173028111C3CF0A
:105A2000089580917402813AD9F78091780290911B
:105A30007902892BA9F78091E800877F8093E8009D
:105A40008091E80080FFFCCF809114018093F100E9
:105A50008091E8008E77BDCF80917402813201F78A
:105A60008091780290917902892BD1F68091E8009B
:105A7000877F8093E8000E94E02F809176028093D8
:105A800014010C94331A80917402813249F680918A
:105A9000E800877F8093E8000E94E02F80917702E2
:105AA00080936002089580917402813A09F0B8CF22
:105AB0008091E800877F8093E8008091E80080FF74
:105AC000FCCF80916002C2CFCDB7DEB7A0970FB6F2
:105AD000F894DEBF0FBECDBF84B7877F84BF0FB6FB
