:100000000C9443060C948A060C948A060C948A0677
:100010000C948A060C948A060C948A060C948A0620
:100020000C948A060C948A060C94AF300C9483319D
:100030000C9424220C948A060C948A060C948A064A
:100040000C948A060C948A060C948A060C948A06F0
:100050000C948A060C947B220C948A060C948A06D3
:100060000C948A060C948A060C948A060C948A06D0
:100070000C948A060C948A060C948A060C948A06C0
:100080000C948A060C948A060C948A060C948A06B0
:100090000C948A060C948A060C948A060C948A06A0
:1000A0000C948A060C948A060C948A06000024009C
:1000B000250026002A00000021002200230029003C
:1000C00000001E001F0020002B00F4000158270034
:1000D000370028000000010001000100005C000062
:1000E00001000100010057000000010001000100B3
:1000F0005600DE5C0100010001002E00444542551F
:10010000473A2064697361626C65642E0A00444555
:100110004255473A20656E61626C65642E0A0000A4
:10012000000000000000002A2B2800000000000052
:100130000000000000000000000029000000002C6A
:100140001E3420212224342627252E362D37382709
:100150001E1F202122232425263333362E37381F15
:100160000405060708090A0B0C0D0E0F10111213D7
:100170001415161718191A1B1C1D2F3130232D3575
:100180000405060708090A0B0C0D0E0F10111213B7
:100190001415161718191A1B1C1D2F3130354C0059
:1001A000000000000000000000000000000000004F
:1001B0000000007E0F00D4FFFFFFC7000000780A98
:1001C0000025303862003A200025303258000A728B
:1001D0002F632030313233343536370A000A002598
:1001E00030325820006B6579626F6172645F7265AE
:1001F000706F72743A20000A0025303258006B6527
:1002000079626F6172645F7365745F6C65643A20D4
:1002100000290A002575002F002575005D2800259E
:10022000640020002564002000256400200025646F
:10023000007C0025303258006D6F7573656B6579F1
:10024000205B62746E7C782079207620685D28724D
:1002500065702F61636C293A205B006D6B5F776876
:1002600065656C5F74696D655F746F5F6D61782043
:100270003D2025640A006D6B5F776865656C5F6D76
:1002800061785F7370656564203D2025640A006DA8
:100290006B5F74696D655F746F5F6D6178203D2081
:1002A00025640A006D6B5F6D61785F7370656564CE
:1002B000203D2025640A006D6B5F696E746572765F
:1002C000616C203D2025640A006D6B5F64656C6184
:1002D00079203D2025640A006D6B5F776865656C49
:1002E0005F74696D655F746F5F6D6178203D202577
:1002F000640A006D6B5F776865656C5F6D61785F40
:100300007370656564203D2025640A006D6B5F7421
:10031000696D655F746F5F6D6178203D2025640AAB
:10032000006D6B5F6D61785F7370656564203D2063
:1003300025640A006D6B5F696E74657276616C206E
:100340003D2025640A006D6B5F64656C6179203D1A
:100350002025640A000A00257500363A2077686572
:10036000656C5F74696D655F746F5F6D61783A206D
:10037000000A00257500353A20776865656C5F6D69
:1003800061785F73706565643A20000A0025750026
:10039000343A2074696D655F746F5F6D61783A20DF
:1003A000000A00257500333A206D61785F7370652F
:1003B00065643A20000A00257500323A20696E749F
:1003C000657276616C286D73293A20000A002575E4
:1003D00000313A2064656C6179282A31306D7329C7
:1003E0003A20000A092D2056616C756573202D0A8C
:1003F000004D3E004D25643E20003F007365742093
:1004000064656661756C740A00433E200077686518
:1004100072652064656C74613A20637572736F72E3
:100420003D25642C20776865656C3D25640A53651D
:100430006520687474703A2F2F656E2E77696B692A
:1004400070656469612E6F72672F77696B692F4DD4
:100450006F7573655F6B6579730A000A092D204D0E
:100460006F7573656B6579202D0A4553432F713A7B
:1004700009717569740A313A0964656C6179282AD1
:1004800031306D73290A323A09696E74657276618A
:100490006C286D73290A333A096D61785F73706552
:1004A00065640A343A0974696D655F746F5F6D61E4
:1004B000780A353A09776865656C5F6D61785F73B6
:1004C000706565640A363A09776865656C5F7469BA
:1004D0006D655F746F5F6D61780A0A703A097072BA
:1004E000696E742076616C7565730A643A09736588
:1004F000742064656661756C74730A75703A092BB3
:10050000310A646F776E3A092D310A706775703A57
:10051000092B31300A7067646F776E3A092D3130DC
:100520000A0A7370656564203D2064656C746120FF
:100530002A206D61785F7370656564202A202872B7
:100540006570656174202F2074696D655F746F5FDD
:100550006D6178290A003F004D3E2000433E200097
:100560004C25640A0074696D65725F72656164335D
:100570003228293A202530346C580A006B6579629C
:100580006F6172645F69646C653A2025580A006B7C
:100590006579626F6172645F70726F746F636F6CA4
:1005A0003A2025580A00686F73745F6B6579626F33
:1005B0006172645F6C65647328293A2025580A00CB
:1005C0000A092D20537461747573202D0A00474366
:1005D000433A20382E332E30204156522D4C49427A
:1005E000433A20322E302E30204156525F41524342
:1005F000483A20617672350A004F5054494F4E53A5
:100600003A204C554641204D4F5553454B455920B6
:1006100045585452414B455920434F4E534F4C453A
:1006200020434F4D4D414E4420343039360A00426C
:1006300055494C443A2022302E392E35302D33394D
:100640002D673837386162312D64697274792220E0
:100650002831393A35363A343720417567203330FE
:100660002032303230290A005649443A203078444A
:1006700045414628696D63686970776F6F6429200A
:100680005049443A203078303931332864756D62EE
:1006900070616429205645523A203078303030312C
:1006A0000A000A092D2056657273696F6E202D0AA3
:1006B000000A092D20436F6E736F6C65202D0A456B
:1006C00053432F713A09717569740A6D3A096D6F58
:1006D0007573656B65790A000A092D204D6167699C
:1006E00063202D0A443A094465627567204D65739D
:1006F0007361676520546F67676C650A583A094DE6
:100700006174726978204465627567204D6F646515
:1007100020546F67676C65202D2053686F77206BBE
:1007200065797072657373657320696E206D61748D
:1007300072697820677269640A4B3A094B6579627D
:100740006F61726420446562756720546F67676CDF
:1007500065202D2053686F77206B65797072657303
:1007600073207265706F72740A4D3A094465627540
:1007700067204D6F75736520546F67676C650A5607
:100780003A0956657273696F6E0A533A0953746178
:100790007475730A433A094163746976617465201C
:1007A000436F6E736F6C65204D6F64650A46312D23
:1007B0004631303A0953776974636820746F204C6E
:1007C0006179657220302D392028463130203D2056
:1007D0004C30290A302D393A0953776974636820FF
:1007E000746F204C6179657220302D390A4752416F
:1007F00056453A0953776974636820746F204C61D9
:1008000079657220302028616C7465726E61746540
:10081000290A423A094A756D7020746F20426F6F41
:10082000746C6F616465720A4553433A094A756D89
:100830007020746F20426F6F746C6F6164657220FA
:1008400028616C7465726E617465290A453A0950B5
:1008500072696E7420454550524F4D205365747433
:10086000696E67730A4253504143453A09436C65C8
:10087000617220454550524F4D0A000A002575000F
:100880002E6E6B726F3A20000A002575002E73776A
:1008900061705F6261636B736C6173685F626163F7
:1008A0006B73706163653A20000A002575002E7332
:1008B0007761705F67726176655F6573633A200088
:1008C0000A002575002E6E6F5F6775693A20000A71
:1008D000002575002E737761705F72616C745F72B2
:1008E0006775693A20000A002575002E73776170DC
:1008F0005F6C616C745F6C6775693A20000A002553
:1009000075002E737761705F7263746C5F726775C8
:10091000693A20000A002575002E737761705F6CBC
:1009200063746C5F6C6775693A20000A0025750076
:100930002E636170736C6F636B5F746F5F636F6E58
:1009400074726F6C3A20000A002575002E7377616F
:10095000705F636F6E74726F6C5F636170736C6FE6
:10096000636B3A20000A0025303258006B65796DC0
:1009700061705F636F6E6669672E7261773A2000FF
:100980000A002575002E6D6F7573653A20000A0008
:100990002575002E6B6579626F6172643A20000ADA
:1009A000002575002E6D61747269783A20000A0086
:1009B0002575002E656E61626C653A20000A00257F
:1009C0003032580064656275675F636F6E66696791
:1009D0002E7261773A20000A002575006465666111
:1009E000756C745F6C617965723A20003F000A6D26
:1009F0006F7573653A206F66660A000A6D6F7573CE
:100A0000653A206F6E0A000A6B6579626F617264E5
:100A10003A206F66660A000A6B6579626F617264DC
:100A20003A206F6E0A000A6D61747269783A206F1D
:100A300066660A000A6D61747269783A206F6E0A00
:100A4000000A64656275673A206F66660A000A6488
:100A5000656275673A206F6E0A000A0A4A756D7002
:100A6000696E6720746F20626F6F746C6F6164656C
:100A7000722E2E2E2000433E2000436C6561726969
:100A80006E6720454550524F4D0A006565636F6E95
:100A90006669673A0A005B735D004B6579626F6156
:100AA00072642073746172742E0A005B575D005B80
:100AB000535D005B525D005B445D005B435D000481
:100AC00003300000001003640075006D00620070C8
:100AD00000610064000000160369006D0063006897
:100AE000006900700077006F006F00640000000470
:100AF00003090409027B00040100A0FA09040000B4
:100B00000103010100092111010001224000070534
:100B1000810308000A090401000203000000092102
:100B200011010001222200070582032000010705B0
:100B30000303200001090402000103000000092151
:100B4000110100012281000705840320000A090425
:100B5000030002030000000921110100012222000C
:100B60000705850320000107050503200001120188
:100B7000100100000008AFDE1309010001020301AB
:100B80000631FF0974A1010975150026FF009520A3
:100B9000750881020976150026FF009520750891D9
:100BA00002C00660FF0961A1010962150026FF006D
:100BB0009520750881020963150026FF00952075B0
:100BC000089102C005010902A10185020901A100E5
:100BD00005091901290515002501950575018102F1
:100BE0009501750381010501093009311581257FC2
:100BF00095027508810609381581257F95017508CC
:100C00008106050C0A38021581257F95017508813A
:100C100006C0C005010980A101850319012AB7009A
:100C2000150126B700950175108100C0050C09015A
:100C3000A101850419012AA002150126A00295012F
:100C400075108100C005010906A101050719E029F9
:100C5000E715002501950875018102950175088148
:100C6000010507190029FF150026FF0095067508E4
:100C70008100050819012905950575019102950165
:100C800075039101C00011241FBECFEFDAE0DEBF73
:100C9000CDBF04B603FE27C080917C0290917D02F7
:100CA000A0917E02B0917F028730904BA740B04B5D
:100CB000D1F410927C0210927D0210927E0210926A
:100CC0007F0214BE84B7877F84BF0FB6F894A895BF
:100CD00080916000886180936000109260000FBE78
:100CE000E0E0F8E3099511E0A0E0B1E0ECE2F8E61D
:100CF00002C005900D92AE3AB107D9F722E0AEEAF4
:100D0000B1E001C01D92AC37B207E1F70E94682D37
:100D10000C94D9330C940000FF93EF93E091AE0153
:100D2000F091AF01309709F00995EF91FF91089587
:100D3000FC018591803011F0EFDFFBCF0895FF2794
:100D4000E0E230E247FF0CC0419597FF09C0EDE2B9
:100D50006095709580959095611D711D811D911D07
:100D600027FF02C0219530E350E2AA27660F771FC4
:100D7000881F991FAA1FA41710F0A41B63955A95EA
:100D8000A9F7AA3008F0A95FA05DAF93F3956115AC
:100D900071058105910541F7ED3211F4EF93F3955B
:100DA000F21718F43F93F395FBCF8F91B5DFFA95C7
:100DB000E1F70895E991F9918591803021F085322C
:100DC00019F0AADFF9CF089520E0E8945591553243
:100DD000C1F3503311F4689455915A3348F4505389
:100DE00090F3220F022E220F220F200D250FF4CF99
:100DF0000EF4219589919991533619F3533729F1BE
:100E0000533559F1BC0188279927E8945C3621F4C1
:100E10008991999168945591543639F446EF7EF052
:100E200077FF0DC08FEF9FEF0AC055374AE039F0CA
:100E3000583540E121F0523642E009F00895FF9321
:100E4000EF937DDFEF91FF91B7CFFF93EF93FC011D
:100E500081918030B9F360DFFBCFFF93EF9368DFC0
:100E6000F1CFDF93CF93CDB7DEB72596A3DFCF9138
:100E7000DF910895239A219A0C9419162B9829989A
:100E80000895CF92DF92EF92FF926B017C010E9456
:100E90006E2080FF0CC02B9A81FF0BC0299AC701DE
:100EA000B601FF90EF90DF90CF900C940A1E2B9824
:100EB000F3CF2998F4CF82E090E02B9A29982FEF76
:100EC00031EE44E0215030404040E1F700C00000E6
:100ED0002B9A299A2FEF31EE44E0215030404040C8
:100EE000E1F700C000002B98299A2FEF31EE44E083
:100EF000215030404040E1F700C000002B98299875
:100F00002FEF31EE44E0215030404040E1F700C087
:100F10000000019711F40C94990781E090E0CDCF87
:100F20000C949A070C9496070C949B0781E0089503
:100F30000895089508950895CF93C62F811111C083
:100F400060912E0270912F028091300290913102B7
:100F50000E946E208BE4C11101C08EE4CF910C94ED
:100F6000A817CF91089581E0089508950C94B507CE
:100F70001F93CF93DF9300D000D00F92CDB7DEB791
:100F800049835A836B833091E60189819A813111BB
:100F90001DC06623B9F02223A9F00E94251F182F37
:100FA000682F89819A810E94CE1E69817A81812F62
:100FB0000F900F900F900F900F90DF91CF911F9196
:100FC0000C94730F0E94FC1E182FEFCF0E94251F58
:100FD00069817A81EDCFFC01262F408151816281A8
:100FE000738184810C94B807CF93DF93EC0160E0A8
:100FF0000E94EB07BE01DF91CF910C94B607FF92E0
:101000000F931F93CF93DF93E82FF0E0E15EFE4F45
:10101000F490C82FC695C695C695D0E0FE01E1555F
:10102000FE4F0491877010E0082E02C015950795B9
:101030000A94E2F701701127C156DE4FFE01C491F8
:10104000D0E002C0D595C7958A95E2F7C170DD273B
:101050000115110519F081EE0E942617209719F04D
:1010600086EE0E9426178F2D0E94A817CD2B19F00F
:1010700086EE0E947917012B41F081EEDF91CF912E
:101080001F910F91FF900C947917DF91CF911F91D1
:101090000F91FF900895EF92FF920F931F93CF93BC
:1010A000DF93EC01162F0AE08881882309F454C0ED
:1010B000813009F04EC08981813099F47E0122E0AF
:1010C000E20EF11C8A810E94A817E7012196812F68
:1010D000815050F3EFE9FFE03197F1F700C00000D5
:1010E000F7CF823041F47E0182E0E80EF11C8A8164
:1010F0000E942617EACF833041F47E01E2E0EE0E33
:10110000F11C8A810E947917E0CF843011F021967A
:10111000DDCF2A81229690E080E0AE014F5F5F4FE5
:101120002053330B2A30310548F0019778F2EFE96C
:10113000FFE03197F1F700C00000F7CF089FB00142
:10114000099F700D1124C901860F971F2981EA019B
:10115000E4CF0E94FF07BACFDF91CF911F910F918B
:10116000FF90EF90089560E00C944B088F929F924F
:10117000AF92BF92CF92DF92EF92FF920F931F93A5
:101180006B017C0181E090E0A0E0B0E04C015D01EA
:1011900004C0880C991CAA1CBB1C4A95D2F7B50147
:1011A000A4014C015D0104C0880C991CAA1CBB1C45
:1011B0002A95D2F7482959296A297B2904C0880F22
:1011C000991FAA1FBB1F0A95D2F78A019B010C2108
:1011D0001D212E213F21041715072607370789F403
:1011E0008C299D29AE29BF29BC01CD011F910F91EA
:1011F000FF90EF90DF90CF90BF90AF909F908F9037
:10120000089580959095A095B0958C219D21AE2153
:10121000BF21EACF0F93382F262F60912E027091B5
:101220002F028091300290913102042F432F0E94AF
:10123000B6080F910C940C1E0E94B2220E94D92075
:10124000811102C00E9476210C945B070C949007D8
:1012500081E008950C942809CF93C82F0E94940729
:101260008C2FCF910C942A090E94371A0E943E07B6
:101270002FEF84E39CE0215080409040E1F700C0D4
:1012800000000C949F220F931F93CF93DF9300D005
:10129000CDB7DEB78C0161E00E94EB079A838983AA
:1012A000B801CE0101960E946812811108C080E049
:1012B0000F900F90DF91CF911F910F910895B8017A
:1012C00089819A810E94AC0D882389F3B8018981B4
:1012D0009A810E949207882351F3B80189819A81EB
:1012E0000E94C910882319F3B80189819A810E944C
:1012F0001B118823E1F2B80189819A810E943E1274
:101300008823A9F2F8018281882329F189819A81B1
:101310008130FCE59F0751F08F3D2CE59207C1F02D
:1013200081159C45C1F40E943409C1CF90914302BC
:10133000892F8E7F90FF81608093430280FF05C0DC
:101340008EE091E00E949806B2CF8CEF90E0FACF49
:101350000E947621ACCFC8010E94B307A9CF90E0CC
:1013600080E008950895FC01EE0FFF1FE154FE4F49
:10137000859194910895CF93DF930E94730F0E94FB
:10138000D00AEC01811520E5920708F042C08115D2
:1013900030E4930708F0BDC0883E910528F5803EF3
:1013A000910508F09DC0883A910588F4853A910529
:1013B00008F08FC08130910509F492C0009709F4BC
:1013C0008FC0049708F08CC0D0E0C0E089C08F3B8C
:1013D000910508F489C0805C9109C03CD105A0F357
:1013E0000E94B309EC017CC08115904250F4C115F4
:1013F00081E0D80708F074C0C03FD10528F3D0655C
:101400006FC0C11590E3D90708F079C0CE019F7075
:10141000E7CF811525E5920758F5811534E5930747
:1014200008F0A6C0811542E5940750F4C11581E586
:10143000D80708F471C0DC2FCC27C16FD06A50C028
:10144000982F969596959E0123703327C115D34505
:1014500008F07FC0C1E0D0E002C0CC0FDD1F2A95AC
:10146000E2F720E2929FC0011124C82BD92B6FC054
:10147000C11589E5D807A8F4C11598E5D90708F082
:101480007CC0C11526E5D20708F09ECF8C2F0E94A4
:10149000670BC82FD0E0DC2FCC27CC27DF71D062C0
:1014A0001FC0C1153AE5D30708F46CC0CE019056B1
:1014B0008115904208F088CF8D2F8F710E94670BA5
:1014C00090E0982F882788279F719C012C2BE90199
:1014D000E6CFC55AD0E0CD5BDE4FC881D0E0D06406
:1014E000CE01DF91CF910895C85AD0E0CC0FDD1F17
:1014F000CB5EDE4F0990D881C02DD464F1CFCE01F0
:101500009927D3FF03C0EC01D86CEACFEC01D06C73
:10151000E7CFDF70D06AE4CFCE01E4E096958795FF
:10152000EA95E1F783702C2F26952695237090E29B
:10153000299F90011124382B8C2F8370C1E0D0E0BB
:1015400002C0CC0FDD1F8A95E2F7C22BD32BDC68DB
:10155000C7CFC1E0D0E002C0CC0FDD1F2A95E2F773
:1015600030E2939FC0011124C82BD92BDA68B8CF81
:10157000D82FCC27C46FD06AB3CFDC2FCC27C06F55
:10158000D06AAECF8C2F8F700E94670B34E0D69557
:10159000C7953A95E1F7CF709C2FEC01D069A0CFA9
:1015A00082389105B1F1B0F48133910509F475C029
:1015B00048F48932910509F469C08A32910509F429
:1015C00073C008958533910509F459C08933910595
:1015D00001F10895833E9105A9F138F4803E91050B
:1015E000F9F0823E910549F10895863E9105A9F1F1
:1015F000873E9105C9F1843E910519F520916E024F
:1016000021FF1FC080916D0284FD14C087EE90E021
:10161000089520916D022370A1F080EE90E008956E
:1016200020916D0220FD47C030916E0230FF09C04D
:1016300024FF44C090E080E004C020916D0222FDB0
:10164000F7CF089520916D0222FD3BC030916E02CC
:1016500030FDE3CF24FFF5CFEDCF20916D0223FFC6
:10166000F0CF24FDE7CFD2CF20916D0223FD2CC017
:1016700030916E0231FFEECF84EE90E0089520911C
:101680006D0225FFDECF89E290E0089520916D0282
:1016900025FFD7CF85E390E0089520916D0226FFC6
:1016A000D0CF8AE290E0089520916D0226FFC9CF45
:1016B00081E390E0089589E390E0089583EE90E05F
:1016C000089582EE90E0089586EE90E0089590915E
:1016D0006D0292FF06C0282F28712830F9F4877F09
:1016E000846093FF06C0282F28712831F1F4877E8B
:1016F000846120916E0220FF06C0382F3871383087
:10170000D9F4877F816021FF06C0282F28712831F6
:10171000D1F4877E816194FD877E0895282F2471FE
:101720002430F9F68B7F8860DCCF282F2471243198
:1017300001F78B7E8861DDCF382F3171313019F799
:101740008E7F8860E0CF282F2171213121F78E7E96
:101750008861E1CFE82FF0E0EB59FD4F80810895DB
:10176000CF92DF92EF92FF920F931F93CF93DF936D
:101770008EEC91E00E94980685E6E82E82E0F82E35
:10178000D0E0C0E099ECC92E91E0D92E01EC11E037
:10179000DF93CF93DF92CF920E94310786EC91E0E6
:1017A0000E949806F70181917F010E94BB201F9241
:1017B0008F931F930F930E9431078FEB91E00E944C
:1017C000980621968DB79EB708960FB6F8949EBFDF
:1017D0000FBE8DBFC430D105D9F6DF91CF911F91D7
:1017E0000F91FF90EF90DF90CF90089580EA8A9557
:1017F000F1F70895CF93DF93ABE4B1E04FE451E00C
:10180000C1E0D0E08D91E82FE295EF70F0E061A1AA
:101810008F709E0101C0220F8A95EAF7922F909552
:10182000962391A382A1822B82A34A175B0751F7CB
:10183000A6E4B1E04BE451E0C1E0D0E08D91E82FA7
:10184000E295EF70F0E061A18F709E0101C0220F60
:101850008A95EAF7922F9095962391A382A1822BE5
:1018600082A34A175B0751F710926102109265023A
:101870001092620210926602109263021092670246
:10188000109264021092680284E00E94CB0CDF91F7
:10189000CF910C941C098F929F92AF92BF92CF92DE
:1018A000DF92EF92FF920F931F93CF93DF938BE41E
:1018B000A82E81E0B82E01E612E0912CCC24C3942E
:1018C000D12CF50181915F01C82FC295CF70D0E076
:1018D00099A18F70760101C0EE0C8A95EAF7892FE5
:1018E0008E2989A38AA18E2C809488218AA30E94A4
:1018F000F60BE6E4F1E050E040E020E03191A32F68
:10190000A295AF70B0E090968C9190E03F7002C0CD
:10191000959587953A95E2F780FD39C08C2D042E78
:1019200001C0880F0A94EAF7282B4F5F5F4F4530BC
:10193000510521F789A1882289A28AA1E82AEAA271
:10194000F8018081281729F1208381E0982A0F5F10
:101950001F4FFFE4AF16F1E0BF0609F0B2CF292D0B
:1019600044E065E672E081E692E00E94CC0C0E94C1
:101970002609892DDF91CF911F910F91FF90EF9054
:10198000DF90CF90BF90AF909F908F90089580E0B0
:10199000CBCF80E0DBCF0895FF920F931F93CF93BF
:1019A000DF93F82E092F162FD72FC42F222349F0AB
:1019B00081E08093B2010E9454229093B101809300
:1019C000B0018091B2018823A1F08091B001909183
:1019D000B1010E946C22069760F0EF2DF02FA12F2D
:1019E000BD2FCE0FDF2FD11DEC17FD0741F4109254
:1019F000B201DF91CF911F910F91FF9008958191D6
:101A00008D93F2CF0C949C075098589A54985C9AF6
:101A100089B181704C9905C090E0892B8093B50104
:101A2000089592E0FACFE091B501EE0FEE0FE0934A
:101A3000B50149B1842F817049B144FB222720F9B7
:101A400044FF02C022E030E0822BE82BE093B50196
:101A5000EF70F0E0E15BFE4F80819091B401890F5F
:101A60008093B40184304CF08091B3018F5F8093F8
:101A7000B30160E080E00E94020D8091B4018D3FCF
:101A80004CF48091B30181508093B30161E080E018
:101A90000E94020D8091B401837887FF03C08150BA
:101AA0008C6F8F5F8093B401089582E290E00E9472
:101AB0009733803289F483E290E00E949733883034
:101AC00059F484E290E00E94973391E0803309F06A
:101AD00090E0892F8170089580E0FCCFCF93C82FCC
:101AE0006FEF811160E282E290E00E94A5336FEF18
:101AF000C11168E083E290E00E94A5336FEFC1114D
:101B000060E384E290E0CF910C94A53380E00E94E2
:101B10006E0D0C94D320089585E290E00E949733D7
:101B2000682F70E090E080E0089585E290E00C94EA
:101B3000A5330E948B0D0E94550D81110CC060E0F1
:101B400070E0CB010E94950D0E94ED0E0E94D70F10
:101B500081E00C946E0D0895CF93FB01C281CC23DC
:101B600009F19C0122513F452031310520F5825178
:101B70000E94E70FC0E08C2FCF91089581E00E9472
:101B8000321E43E062E081E00E940A09F3CF81E067
:101B90000E94531E43E062E081E00E940A09EBCFFD
:101BA00082E0F6CF8031FFE59F0789F381319F45C1
:101BB000B9F3C1E0E0CF8031EFE59E07F9F2813162
:101BC0009F45C9F682E0DBCF2FEFFC01208308950B
:101BD000EF92FF920F931F93CF93DF93EC01062FA9
:101BE000E881E150E33108F05EC0F0E0E552FC4CE2
:101BF0000C945433198289E08A83602FCE01DF91DF
:101C0000CF911F910F91FF90EF900C94042C89813C
:101C1000823069F0833071F08130D9F40E94602203
:101C20000E945A336A837B838C839D83E6CF0E9414
:101C30008C0DF6CF7E0122E0E20EF11C10E0812F28
:101C40000E94AA0BF70181937F011F5F1430B9F73F
:101C5000D4CF602FCE010E94E40DCFCF8981823096
:101C6000C1F76A817B818C819D810E945A330E94D9
:101C7000950DC3CF4B816A8189810E94BF0E982741
:101C8000892798279D838C83B8CF2C813D8132276B
:101C9000232732274B816A8189810E94D80EADCFDC
:101CA0000E94ED0EAACF8FEF8883A7CF0E94800FEE
:101CB0008983A3CF0E94820F9827892798279A8328
:101CC00089839BCF6B8170E089819A81AE014C5FE3
:101CD0005F4F9827892798270E94850F8ECF6B81A9
:101CE00070E089819A81AE014C5F5F4F9827892708
:101CF00098270E94AC0F81CF0E94D70F7ECF0E9401
:101D0000AD0ED6CF6B8170E089819A81AE014C5FB8
:101D10005F4F9827892798270E94250F6ECF6B81E8
:101D200070E089819A81AE014C5F5F4F98278927C7
:101D300098270E944A0F61CF0E94860D5ECF0E94B5
:101D4000042CFFEF21EE84E0F15020408040E1F7C9
:101D500000C000000E949F2250CF84E0089550E010
:101D6000440F551F9AE0699F400D511D112498E2C0
:101D7000899F400D511D1124CA01869608950F9325
:101D80001F93CF93DF930E94AF0E8C010E94973375
:101D9000C82FD0E0DC2FCC27C80101960E949733D2
:101DA0009E01282BC901DF91CF911F910F910895BA
:101DB0000F931F93CF93DF93122F032F0E94AF0E29
:101DC000EC01602F0E94A533612FCE010196DF91B7
:101DD000CF911F910F910C94A533AF92BF92CF92E8
:101DE000DF92EF92FF921F93CF93DF938CEAC82E7E
:101DF00080E0D82ED0E07601C0E014C0F501259136
:101E00003491412F6C2F8D2F0E94D80E82E0A80EA6
:101E1000B11C1F5F153091F78AE0E80EF11CCF5F0F
:101E2000C43019F0570110E0E9CFDF5F88E2C80E37
:101E3000D11CD43001F7DF91CF911F91FF90EF902B
:101E4000DF90CF90BF90AF900895EF92FF920F93E5
:101E50001F93CF93DF93EC018A017C01E60EF71EFE
:101E6000CE018696CE15DF0539F4DF91CF911F9113
:101E70000F91FF90EF900895C03AD10540F40E9471
:101E80009733F80180830F5F1F4F2196E9CFF80148
:101E90001082F9CFCF92DF92EF92FF920F931F93B0
:101EA000CF93DF937C016A018C01060F171FEC01B1
:101EB000CE018696C017D10749F4DF91CF911F91CB
:101EC0000F91FF90EF90DF90CF900895C03AD10529
:101ED00040F4FE01EE19FF09EC0DFD1D60810E942A
:101EE000A5332196E5CF462F843038F4743028F49A
:101EF000653018F4672F0C94BF0E90E080E00895D1
:101F000080E108958AE393E00895EF92FF920F93A2
:101F10001F93CF93DF93EC018A017C01E60EF71E3D
:101F2000CE018A539F4FCE15DF0539F4DF91CF9153
:101F30001F910F91FF90EF900895CA3323E0D207CD
:101F400040F40E949733F80180830F5F1F4F219662
:101F5000E7CFF8011082F9CFCF92DF92EF92FF9294
:101F60000F931F93CF93DF937C016A018C01060FBF
:101F7000171FEC01CE018A539F4FC017D10749F4B8
:101F8000DF91CF911F910F91FF90EF90DF90CF9055
:101F90000895CA3323E0D20740F4FE01EE19FF0989
:101FA000EC0DFD1D60810E94A5332196E3CFCF93F8
:101FB000DF93C6ECD0E060E0CE010E94A53321960D
:101FC000C11584E0D807B9F7DF91CF910895DF926A
:101FD000EF92FF920F931F93CF93DF9300D000D027
:101FE000CDB7DEB7F82E8FE08F1540F08FEF93E07E
:101FF0000E94973306EC10E08823C1F00F900F90F9
:102000000F900F90DF91CF911F910F91FF90EF9064
:10201000DF900895011584E0180781F3C8010E943C
:102020009733811101C0FA940F5F1F4FF110F2CF67
:1020300019821A821B821C82DD24D39478018FEFCF
:10204000E81AF80AC8010E94973389831A82882304
:10205000A9F29FEF980F933078F48A83D9820E5FAC
:102060001F4FC7010E9497338B83882339F2CE011B
:1020700001960E94B308E2CF8701F9CFAF92BF92D9
:10208000CF92DF92EF92FF920F931F93CF93DF9344
:102090007C015B01C42FD22FFC0182818823F9F0DF
:1020A0004093B8010E9454229093B7018093B601E7
:1020B00080E28C0F883008F061C0C77081E001C0F9
:1020C000880FCA95EAF7DF91CF911F910F91FF908A
:1020D000EF90DF90CF90BF90AF900C94BB17109112
:1020E000B801141340C08091B6019091B7010E94CD
:1020F0006C226C01B701C5010E94AD1CC816D9063F
:1021000090F5C0E2CD0F1D17B9F080E2810F883045
:1021100040F4177081E001C0880F1A95EAF70E9419
:10212000C217C83048F481E09D2F977001C0880F16
:102130009A95EAF70E94BB17802F0E94A817C83013
:10214000E8F4D77081E001C0880FDA95EAF7DF91F3
:10215000CF911F910F91FF90EF90DF90CF90BF90A4
:10216000AF900C94C21780E28C0F883038F4C7709F
:1021700081E001C0880FCA95EAF7E9CFDF91CF91DE
:102180001F910F91FF90EF90DF90CF90BF90AF9095
:1021900008950F939C01CB01243F4CE5340759F17E
:1021A000A8F4283DFCE53F0701F1293D4CE5340743
:1021B000D1F1273D3C4591F406E221EE41EE67ED79
:1021C0007CE50E943E1080E00F910895263FFCE5DB
:1021D0003F07E9F0B0F0273F3C45F9F0FC01828170
:1021E000882339F11092B801EFCF07E225EE45EED2
:1021F00068ED7CE5E6CF06E221EE40EE64EF7CE59B
:10220000E0CF07E225EE44EE65EF7CE5DACF06E2AB
:1022100021EE42EE66EF7CE5D4CF07E225EE46EEF6
:1022200067EF7CE5CECF08E221E045EE69ED7CE585
:10223000C8CF81E0C9CFCF93DF93EC01FB0182814E
:10224000882309F419C1C230FCE5DF07C0F1C631AB
:102250009CE5D90730F09E012B5F3C4529303105C4
:1022600070F50E94EC2090936E0280936D02C03155
:10227000ECE5DE0709F4CFC008F05BC0C8308CE5A0
:10228000D80709F4B6C088F5C430ECE5DE0709F4D8
:10229000A8C0C0F4C2308CE5D80709F49CC0809176
:1022A0006D028260C330DC4509F498C080916D02F4
:1022B00090916E020E94FA200E94371A80E0DF910E
:1022C000CF91089580916D028061C630ECE5DE0704
:1022D00009F484C080916D028860C730DC4508F441
:1022E0007DC080916D02806279C0CC308CE5D807CA
:1022F00009F489C070F480916D028C60CA30ECE5FD
:10230000DE0709F46BC008F478C080916D028E7FFF
:1023100065C0CE308CE5D80709F479C080916D0294
:102320008B7FCF30DC4508F459C080916D028F7EE1
:1023300055C0CC3FECE5DE0709F457C030F5C3319A
:102340008CE5D80709F46FC078F4C131ECE5DE07FD
:1023500009F465C0C231DC4509F0A8CF0E94371AE4
:1023600080916D028F773AC0C5318CE5D80709F4AA
:1023700062C008F476C080916E028160CB3FDC457C
:1023800009F094CF80936E0291CFC115FDE5DF0770
:1023900009F44DC088F480916E028D7FCE3F9CE59C
:1023A000D90781F380916E028E7FCF3FDC4550F3D9
:1023B00080916E028360E6CFC230FDE5DF0709F44D
:1023C00059C008F444C080E0C330DD4509F06ECF49
:1023D0000E9478216BCF80916D02816080936D02A5
:1023E00065CF80916D028460F9CF80916E0282602A
:1023F000C9CF80916D028064F1CF0E94371A80911D
:102400006D028068EBCF80916D028D7FE7CF809168
:102410006D02877FE3CF80916D028F7DDFCF80914A
:102420006D028F7BDBCF80916D02837FD7CF809150
:102430006E028C7FA7CF80916D0282FB992790F965
:1024400021E0922790FB82F990FB83F9C7CF80911E
:102450006E02982F909591708E7F892B90FB81F959
:1024600091CF0E94371A90916D02892F97FB87F9BF
:102470008058B4CF81E0ACCF81E021CFCF93DF9300
:10248000EB0186319C4511F50E94BA1F9A81992370
:1024900099F08A7A91E009F490E09093B901811162
:1024A00009C089E20E94951F0E94062080E0DF910A
:1024B000CF91089585E3F6CF8091B901811104C0D1
:1024C00089E20E949C1FF0CF85E3FBCF81E0EFCF34
:1024D0004F925F926F927F928F929F92AF92BF9234
:1024E000CF92DF92EF92FF920F931F93CF93DF93E0
:1024F000EC01E881F981CF01815095458F3F91052D
:1025000010F485E5F827DB0112964C90442009F47D
:102510006AC2EF3FF10509F100F1EE3DFC4521F003
:102520001092BA01A42D07C08091BA0191E08927C9
:102530008093BA01A0E08A2FDF91CF911F910F9174
:10254000FF90EF90DF90CF90BF90AF909F908F90D3
:102550007F906F905F904F900895A091BA01AA2349
:1025600009F4E9C01092BA01E03CF105F0F5E03859
:10257000F10508F0AAC0E034F10508F070C021E0D0
:1025800030E040E050E060E070E080E090E00E2F4E
:102590000E946133B091BB012B2BB091BC013B2B4E
:1025A000B091BD014B2BB091BE015B2BB091BF012F
:1025B0006B2BB091C0017B2BB091C1018B2BB091E3
:1025C000C2019B2B2093BB013093BC014093BD0102
:1025D0005093BE016093BF017093C0018093C1010D
:1025E0009093C201F983E883A6CFEF3FF10509F08C
:1025F00030F621E030E040E050E060E070E080E064
:1026000090E08F01005C11090E946133B091D30109
:102610002B2BB091D4013B2BB091D5014B2BB0911A
:10262000D6015B2BB091D7016B2BB091D8017B2BDE
:10263000B091D9018B2BB091DA019B2B2093D30160
:102640003093D4014093D5015093D6016093D701C4
:102650007093D8018093D9019093DA01C3CF21E020
:1026600030E040E050E060E070E080E090E08F011A
:10267000005411090E946133B091C3012B2BB0911A
:10268000C4013B2BB091C5014B2BB091C6015B2B14
:10269000B091C7016B2BB091C8017B2BB091C901E0
:1026A0008B2BB091CA019B2B2093C3013093C401A3
:1026B0004093C5015093C6016093C7017093C80150
:1026C0008093C9019093CA018DCF21E030E040E0B2
:1026D00050E060E070E080E090E08F010058110968
:1026E0000E946133B091CB012B2BB091CC013B2BDD
:1026F000B091CD014B2BB091CE015B2BB091CF01AE
:102700006B2BB091D0017B2BB091D1018B2BB09171
:10271000D2019B2B2093CB013093CC014093CD0170
:102720005093CE016093CF017093D0018093D1017B
:102730009093D20157CFE034F10508F06BC0709050
:10274000BB018090BC019090BD01D091BE01C091B1
:10275000BF01B091C0015090C1016090C20121E061
:1027600030E040E050E060E070E080E090E00E2F6C
:102770000E94613359016A017B018C01272D2A21B6
:10278000382D3B21492D4C215D2F5D216C2F6E2171
:102790007B2F7F21852D8023962D91230E947A33D4
:1027A00009F0C0CEE03CF10508F08EC0E038F1053C
:1027B00008F0EBC0E034F10508F0B9C021E030E0EA
:1027C00040E050E060E070E080E090E00E2F0E947A
:1027D0006133209530954095509560957095809522
:1027E00090952721382149215D236C237B23852166
:1027F00096212093BB013093BC014093BD015093BF
:10280000BE016093BF017093C0018093C10190939A
:10281000C20191CEE038F105E0F47090C3018090E0
:10282000C4019090C501D091C601C091C701B0917B
:10283000C8015090C9016090CA0121E030E040E039
:1028400050E060E070E080E090E08F0100541109FA
:102850008FCFE03CF105E0F47090CB018090CC018B
:102860009090CD01D091CE01C091CF01B091D00117
:102870005090D1016090D20121E030E040E050E082
:1028800060E070E080E090E08F010058110970CFA7
:102890007090D3018090D4019090D501D091D60151
:1028A000C091D701B091D8015090D9016090DA0160
:1028B00021E030E040E050E060E070E080E090E057
:1028C0008F01005C110954CFEF3FF10511F008F0C2
:1028D00075CF8F01005C110921E030E040E050E04D
:1028E00060E070E080E090E00E94613320953095D8
:1028F0004095509560957095809590952721382149
:1029000049215D236C237B23852196212093D301CC
:102910003093D4014093D5015093D6016093D701F1
:102920007093D8018093D9019093DA0104CE8F017E
:102930000054110921E030E040E050E060E070E038
:1029400080E090E00E94613320953095409550954D
:1029500060957095809590952721382149215D23B8
:102960006C237B23852196212093C3013093C401DE
:102970004093C5015093C6016093C7017093C8018D
:102980008093C9019093CA01D6CD8F0100581109D7
:1029900021E030E040E050E060E070E080E090E076
:1029A0000E946133209530954095509560957095C3
:1029B000809590952721382149215D236C237B2325
:1029C000852196212093CB013093CC014093CD01FA
:1029D0005093CE016093CF017093D0018093D101C9
:1029E0009093D201A8CDA1E0EF3FF10509F0B8F531
:1029F000E034F105B0F58090BB019090BC01D0911E
:102A0000BD01C091BE01B091BF01A091C001609015
:102A1000C1017090C20121E030E040E050E060E090
:102A200070E080E090E00E2F0E94613359016A014E
:102A30007B018C01282D2A21392D3B214D2F4C2142
:102A40005C2F5D216B2F6E217A2F7F21A1E0862DD7
:102A50008023972D91230E947A3309F4A0E0A1707E
:102A60006ACDE038F105E0F48090C3019090C40194
:102A7000D091C501C091C601B091C701A091C80114
:102A80006090C9017090CA018F010054110921E0C2
:102A900030E040E050E060E070E080E090E0C4CFE3
:102AA000E03CF105A0F48090CB019090CC01D09156
:102AB000CD01C091CE01B091CF01A091D001609025
:102AC000D1017090D2018F0100581109E0CF8090A0
:102AD000D3019090D401D091D501C091D601B0918D
:102AE000D701A091D8016090D9017090DA018F01CF
:102AF000005C1109CCCF9093E0018093DF01089531
:102B0000E091DF01F091E001309721F00190F08138
:102B1000E02D099480E00895EF92FF920F931F93A8
:102B2000CF93DF938C01E091DF01F091E0013097CA
:102B3000C1F10280F381E02D09958091430282FF6B
:102B400030C080FF04C085EE91E00E949806D0E07E
:102B5000C0E08FEDE82E81E0F82E8091430280FFE7
:102B60000EC0F801EC0FFD1F80811F928F93FF9222
:102B7000EF920E9431070F900F900F900F902196C7
:102B8000C830D10551F78091430280FF0AC08DED16
:102B900091E0DF91CF911F910F91FF90EF900C94F6
:102BA0009806DF91CF911F910F91FF90EF900895BC
:102BB000E091DF01F091E001309739F022E0DC0193
:102BC0002C930480F581E02D099408952091DD0176
:102BD0003091DE012817390771F09093DE01809360
:102BE000DD01E091DF01F091E001309721F00680F6
:102BF000F781E02D099408952091DB013091DC01EB
:102C00002817390771F09093DC018093DB01E09184
:102C1000DF01F091E001309721F00084F185E02D93
:102C20000994089585B7806885BF85B7806885BF9A
:102C30000895089508950C9498070E9412160E9412
:102C40001A160C943A0781E008950C9423160E94FA
:102C50004B220E94FA0B0E94990D0E94C6220E94EC
:102C6000040D0C941B16CF93C82F8091430282FF52
:102C70001EC080FF1CC08EEF91E00E9498068091DC
:102C8000430280FF14C01F92CF9389EF91E09F937E
:102C90008F930E943107809143020F900F900F9005
:102CA0000F9080FF04C087EF91E00E9498068C2F60
:102CB000CF910C942C09AF92BF92CF92DF92EF92FA
:102CC000FF920F931F93CF93DF93CDB7DEB72A9771
:102CD0000FB6F894DEBF0FBECDBF0E944B0C0E9412
:102CE0002516882309F461C082EEA82E81E0B82E53
:102CF00010E000E0C02E802F0E94AA0BE82EF50104
:102D0000D1905F01D81609F44AC08091430281FD39
:102D10000E94B00B80E0FF24F394DE249D2D9F21C0
:102D2000C9F18E83CF82EF2081E009F480E08887AB
:102D30000E9454228160782F9A8789874E815F8113
:102D400068858A850E94F716F801EE51FE4F808152
:102D5000F826F0820E94130D0E94F3240E94801531
:102D60009091E101891791F10E9480158093E10112
:102D70002A960FB6F894DEBF0FBECDBFDF91CF917C
:102D80001F910F91FF90EF90DF90CF90BF90AF9089
:102D90000C9433168F5FFF0C853009F0BFCF0F5FA7
:102DA0001F4F0430110509F0A5CF8FEF89838A8367
:102DB0001B820E9454228160782F9D838C834981DD
:102DC0005A816B818D810E94F716C4CF2A960FB667
:102DD000F894DEBF0FBECDBFDF91CF911F910F9151
:102DE000FF90EF90DF90CF90BF90AF900895CF937A
:102DF000DF93CDB7DEB72B970FB6F894DEBF0FBECB
:102E0000CDBF4F83588769877A878B871E821D8243
:102E100085E0FE013796DE01119601900D928A95AC
:102E2000E1F749815A816B817C818D819E812B964E
:102E30000FB6F894DEBF0FBECDBFDF91CF910C94DB
:102E4000B01CFC01808191810C94671FCF93C82F27
:102E5000882309F44CC08CEF8C0F813AC8F48C2F76
:102E60000E94D429811143C06C2F80910001909160
:102E700001010E948F21882329F08C2F0E949C1F22
:102E80000E9406208C2F0E94951FCF910C94062043
:102E900080E28C0F883048F4C77081E001C0880F51
:102EA000CA95EAF70E94BD1FF0CFEBE5EC0FE330C7
:102EB00040F4F0E0E357FE4F808190E0CF910C9416
:102EC000E615E8E5EC0FE73150F4F0E0EE0FFF1FF8
:102ED000E15AFE4F80819181CF910C94FC15C03F47
:102EE00030F08C2F0E946B23CF910C945624CF91FD
:102EF0000895882361F19CEF980F913A20F40E9485
:102F00009C1F0C94062090E2980F983050F4877024
:102F100091E001C0990F8A95EAF7892F0E94C31F9B
:102F2000F0CF9BE5980F933020F490E080E00C9474
:102F3000E61598E5980F973120F490E080E00C9426
:102F4000FC15803F20F00E94D3230C945624089552
:102F5000CF93C82F0E942617C93349F42FEF87EE6D
:102F600093E0215080409040E1F700C000008C2F9A
:102F7000CF910C947917882321F00E94BD1F0C94E7
:102F800006200895882321F00E94C31F0C94062078
:102F90000895BF92CF92DF92EF92FF920F931F930B
:102FA000CF93DF936C01D62FC72FFC0105810295CB
:102FB0000F70128111110E94DA1F0E94B31FE82EB8
:102FC000882391F01123D1F08C2F807F803421F061
:102FD00080E28D0F883090F082E00E9451200E94A4
:102FE000B31F91E0E82EE926BC2EB2949FE0B922EF
:102FF000EB2DF0E0E251FC4C0C945433E12CF4CF77
:103000000C2F0F70C07F11F00295007F1123A9F0E3
:10301000002359F080E28D0F883010F0D11109C0E3
:10302000802F0E94BD1F0E9406208D2F0E94261710
:1030300014C0802F0E94CD1FF6CF8D2F0E947917CC
:10304000002359F080E28D0F883010F0D1112CC090
:10305000802F0E94C31F0E9406202B2D2850330B67
:103060002430310520F40E9480150E942C09EE20A6
:1030700009F49EC10E94AF1F80FD9AC1F601128221
:103080000E94A91F0E94321EC6010E94F9190E94C7
:10309000A91FDF91CF911F910F91FF90EF90DF90CB
:1030A000CF90BF900C94531E802F0E94D31FD3CF7C
:1030B000FC2FFF70FF2EC07FC03219F0F29480EF1A
:1030C000F822DD2369F0D13049F1112391F1002379
:1030D00051F1F601858180FFA8CF8F70858323C0D1
:1030E000112381F0011106C00E94ED1F8F290E945B
:1030F000BB17B3CF0130C1F70E94ED1F8F290E948B
:10310000F31FABCF011106C00E94FC1F8F2D0E9440
:10311000C217A3CF013009F4A0CFF6CF112329F0B5
:10312000033008F09ACF8F2DE2CF023008F095CF10
:10313000EDCF002359F3D93349F4FFEF27EE33E005
:10314000F15020403040E1F700C000008D2F0E9478
:10315000791783CF8C2F86958695837069F081309F
:1031600009F07BCF8D2F9C2F9370111102C090E03E
:1031700080E00E94FC1571CF8D2F9C2F9370111150
:1031800002C090E080E00E94E61567CF8D2F1123EA
:1031900029F00E946B230E9456245FCF0E94D32304
:1031A000FACF8C2F837009F041C0111156CF4D2FEB
:1031B000429546954770440F440F0D2F0F7010E055
:1031C00030E020E0042E04C0000F111F221F331F27
:1031D0000A94D2F760E070E0CB01D4FF0FC06FE03B
:1031E00070E080E090E004C0660F771F881F991F91
:1031F0004A95D2F76095709580959095C695C6953D
:10320000C370602B712B822B932BC23049F058F482
:10321000C13019F00E94E61D20CF0E94D41D1DCFA1
:103220000E94F81D1ACF0E94D21D17CF8695112338
:1032300011F08C2F8170882309F40FCF4D2F429508
:1032400046954770440F440F0D2F0F7010E030E08B
:1032500020E0042E04C0000F111F221F331F0A9408
:10326000D2F760E070E0CB01D4FF0FC06FE070E0F8
:1032700080E090E004C0660F771F881F991F4A9571
:10328000D2F76095709580959095C695C695C37058
:10329000602B712B822B932BC23049F058F4C13034
:1032A00019F00E94A91ED9CE0E94971ED6CE0E9468
:1032B000BB1ED3CE0E940C1ED0CECF70112329F09E
:1032C0008C2F0E94321E8D2F12CF8D2F0E94C2177D
:1032D0008C2F0E94531EC1CED23F89F160F4D03FA3
:1032E000C9F0D13F29F1112309F442C001119DCE4B
:1032F0008C2F8F7121C0D33F39F1D43FA1F7112317
:1033000069F1CF718C2F0E94321E63E08C2F0E94D6
:103310003C20A3CE112341F0023008F09ECE8C2F2A
:103320008F710E94761E99CE033008F096CEF7CFAB
:103330008C2F8F71112369F20E94321E8ECE8C2F3A
:103340008F711123C9F3C5CF112329F08C2F8F71F1
:103350000E941D1E82CE0E94181E7FCE81E00E9418
:103360005120023008F479CE82E00E94512075CEBF
:10337000002359F0D93309F0E9CE8FEF97EEE3E05F
:1033800081509040E040E1F7DFCE8C2F8F71A1CFCC
:103390004C2F4F706D2FC6010E94AF090E944A1D2D
:1033A0005CCE4C2F4F706D2FC6010E94B20955CED6
:1033B000DF91CF911F910F91FF90EF90DF90CF9011
:1033C000BF9008950F931F93CF93DF93EC01688113
:1033D00079818A810E94711F8C010E94CD1E0E94FA
:1033E000D11DB801CE01DF91CF911F910F910C94A7
:1033F000C917CF93DF93EC018B819C81892B29F036
:103400008881998189238F3F59F4DF91CF91089565
:10341000CE010E94E219CE01DF91CF910C94F40706
:10342000CE010E9443098111F3CF0E94B31F88236C
:1034300061F38A81882349F382E0DF91CF910C9474
:1034400051200E94DA1F0E94EA1F0E9406200E945B
:10345000FF250E94562490E080E00E94E61590E04F
:1034600080E00C94FC150E94A31F0C94211A0E946A
:10347000CA1F0C94331AE92FE295EF70E250EE3038
:1034800070F4F0E0E250FC4C0C945433803F19F09F
:1034900020F4883E20F481E00895843FE1F380E049
:1034A0000895883EC0F3813FD1F7F5CF93FB88277D
:1034B00080F908950E94671F0C943B1ACF93DF9305
:1034C00000D000D00F92CDB7DEB70F900F900F90C5
:1034D0000F900F90DF91CF910895CF93DF9300D09D
:1034E00000D000D0CDB7DEB726960FB6F894DEBF79
:1034F0000FBECDBFDF91CF9108951F93CF93DF9380
:10350000C091E70116E08091E8018C1304C0DF91BF
:10351000CF911F910895D0E01C9FF0011D9FF00DE9
:103520001124E751FE4F4081518162817381848172
:1035300095810E946D1A2196C770E5CF40911902BE
:1035400050911A0260911B0270911C0280911D0221
:1035500090911E020C946D1A1F93CF93DF9380916C
:103560001E02807FA9F480911B02882389F080913C
:10357000E701C091E8016091190270911A02A091CF
:103580001C02B0911D02D62FD72316E0C81304C029
:10359000DF91CF911F91089590E0109711F0DF3FD8
:1035A00019F401968770F2CF189F9001199F300D82
:1035B0001124F901E751FE4F41814713F2CF4081B9
:1035C0004613EFCF42814111ECCF438154814A1B16
:1035D0005B0B483C510528F780911E028F7080617B
:1035E00080931E02F901E251FE4F80818F7080614D
:1035F000808389E192E00E94F919DF91CF911F91B8
:103600000C947D1AAF92BF92CF92DF92EF92FF920D
:103610000F931F93CF93DF93CDB7DEB761970FB6AC
:10362000F894DEBF0FBECDBF8C0185E0F801DE014E
:103630001D9601900D928A95E1F7F8014081518124
:10364000E28089E1C82E82E0D82E60911C02709140
:103650001D026115710509F461C190911902209153
:103660001A02892F82238F3F09F458C1A380B480A6
:10367000F0901B02F501E61BF70BFF2009F4FCC0DC
:1036800080911E02382F307FE83CF10508F0B2C06F
:10369000311179C0FE2C251323C0941321C0E110F1
:1036A0001FC08F70806180931E020E949E1AC60107
:1036B0000E94F91980911E02F80185838F2D619671
:1036C0000FB6F894DEBF0FBECDBFDF91CF911F9133
:1036D0000F91FF90EF90DF90CF90BF90AF90089543
:1036E000AB2829F0842F85238F3F09F033C180E078
:1036F000F82FF170DF2E80FF3CC08091E701209110
:10370000E80136E0821315C04D875E878D859E8562
:103710000E94671F292F22952F702230F0F024304D
:1037200018F59F70F1F0F8019581907FD1F4D12CBC
:103730001EC090E0389FF001399FF00D1124E75131
:10374000FE4F6181651306C06081641303C062810E
:103750006E110FC001968770D5CF9F7011F088232E
:1037600031F3805E883018F3C8010E94F919FD2CEE
:10377000A5CFEE2009F4A2CF80911E028160809334
:103780001E02F12C9BCF251306C0941304C0F80130
:10379000EE2009F48DC04D875E878D859E850E9441
:1037A0005A1A882319F1EE2009F180911E02803205
:1037B00070F02091190230911A0238872F831986F0
:1037C000BB86AA868C87CE0107960E94F91986E0EF
:1037D000F801A9E1B2E001900D928A95E1F70E940B
:1037E000AC1A0E949E1AFF24F39468CFC8010E946D
:1037F000F919F9CF311113C07A2DB98AA88A6E2D23
:1038000089890E945E1A89E192E00E94F91986E096
:10381000F60111928A95E9F70E949E1AB2CF2513FC
:103820000FC094130DC0E1100BC0F8018583C801CF
:103830000E94F91986E0F60111928A95E9F73ECFC8
:103840004D875E878D859E850E945A1A882371F266
:10385000EE2061F280911E02803208F4B8CF2091F0
:10386000190230911A023A8329831B82BD82AC82ED
:103870008E83CE010196A9CFE83CF10508F041C046
:10388000FE2CEE2009F4B2CF25132AC0941328C0D1
:1038900080911E0280FD1BC0982F907FC1F0F8011F
:1038A0008583903F31F0982F907F905F8F70892BA8
:1038B0008583C8010E94F91986E0F801A9E1B2E008
:1038C00001900D928A95E1F70E949E1AF7CE86E04C
:1038D000F801A9E1B2E001900D928A95E1F7EECEF0
:1038E0004D875E878D859E850E945A1A81116FCF04
:1038F00080911E02816080931E02C8010E94F91906
:10390000DDCE7A2DB98AA88A6E2D89890E945E1A29
:1039100086E0F60111928A95E9F7D6CFEE2009F4F8
:1039200065CF4D875E878D859E850E945A1AF82E39
:10393000882309F45BCF86E0F801A9E1B2E00190A9
:103940000D928A95E1F789E192E00E9421170E9489
:10395000AC1ABACF81E08E25CBCE88EC90E00895EA
:103960001F93CF93DF93CDB7DEB72C970FB6F894A4
:10397000DEBF0FBECDBF4F83588769877A878B879D
:103980009C87CE0107960E94021B882369F08A85D6
:103990009B85892B39F04F815885842F85238F3F54
:1039A00009F071C016E05FC086E0FE013796DE01C7
:1039B000119601900D928A95E1F78A859B85892B56
:1039C00089F388859F8189238F3F61F32091E801E6
:1039D00030E0C9010196877099274091E7014817A7
:1039E000190671F40E94371A1092E8011092E7014B
:1039F00086E0E9E1F2E0DF011D928A95E9F7D2CF96
:103A000096E0929FD001939FB00D1124A751BE4F15
:103A1000FE01319601900D929A95E1F78093E801AD
:103A20000E947D1ABFCF819FC001112487519E4FF4
:103A30000E94021B8823E9F0E091E7011E9FF0013C
:103A40001124E751FE4F408151816281738184814D
:103A500095810E946D1A8091E70190E00196877030
:103A600099278093E7018091E7019091E8018913FC
:103A7000DACF2C960FB6F894DEBF0FBECDBFDF9124
:103A8000CF911F91089569857A858B859C850E94C9
:103A90006D1A88CFEF92FF920F931F93CF93DF930E
:103AA0008C01892B81F0F12CEE24E394E80121961E
:103AB000F8018491843770F4843008F05FC081305D
:103AC000B1F08230A1F1DF91CF911F910F91FF9062
:103AD000EF900895853709F44CC008F43DC09CE789
:103AE000980F903780F78F770E94791749C00E5F43
:103AF0001F4FFE01849190E2980F983060F4877018
:103B0000FE2D01C0FF0F8A95EAF78F2F0E94DD1F5F
:103B10000E94062002C00E9426178F2D815030F28D
:103B2000EFE9FFE03197F1F700C00000F7CF0E5F3B
:103B30001F4FFE01849190E2980F983050F48770E7
:103B4000FE2D01C0FF0F8A95EAF78F2F0E94E31F19
:103B5000DFCF0E947917E1CF0E5F1F4FFE01C491A6
:103B6000C150D8F28FE99FE00197F1F700C0000043
:103B7000F7CF0E5F1F4FFE01F490CFCF0E942617A4
:103B80008E01CBCF08950C94C21D0E94C31D60937B
:103B900032027093330280933402909335020C9476
:103BA000211A08950C94C51D0F931F9300913202A2
:103BB000109133022091340230913502602B712B29
:103BC000822B932B1F910F910C94C51D0F931F9364
:103BD000009132021091330220913402309135026B
:103BE00060237123822393231F910F910C94C51D91
:103BF0000F931F93009132021091330220913402EF
:103C00003091350260277127822793271F910F91EA
:103C10000C94C51D0C94C21D0E94410760932E0296
:103C200070932F0280933002909331020C94211AEA
:103C300060E070E0CB010C940C1E0F931F9341E0E9
:103C400050E060E070E08A019B0104C0000F111F8A
:103C5000221F331F8A95D2F7C901B8011F910F9116
:103C60000C940C1E0F931F9341E050E060E070E055
:103C700004C0440F551F661F771F8A95D2F78091A5
:103C80002E0290912F02A0913002B09131028A0150
:103C90009B01082B192B2A2B3B2BC901B8011F9123
:103CA0000F910C940C1E0F931F9341E050E060E0C5
:103CB00070E004C0440F551F661F771F8A95D2F726
:103CC000CB01BA01609570958095909500912E0278
:103CD00010912F0220913002309131026023712324
:103CE000822393231F910F910C940C1E0F931F930B
:103CF00041E050E060E070E004C0440F551F661FD3
:103D0000771F8A95D2F780912E0290912F02A09171
:103D10003002B09131028A019B01082719272A2716
:103D20003B27C901B8011F910F910C940C1E0F93F2
:103D30001F9300912E0210912F022091300230919A
:103D40003102602B712B822B932B1F910F910C94BE
:103D50000C1E0F931F9300912E0210912F022091A1
:103D600030023091310260237123822393231F910B
:103D70000F910C940C1E0F931F9300912E02109123
:103D80002F02209130023091310260277127822763
:103D900093271F910F910C940C1E0895E92FEE0F9D
:103DA000EE0F9E0F890F982F977041E001C0440FCE
:103DB0009A95EAF786958695869595E0899FF00114
:103DC0001124E15EFD4F30E020E070E05191DF0111
:103DD0001197CB01022E02C0969587950A94E2F7BF
:103DE000817081958527842385278C932F5F3F4F92
:103DF0002530310559F70895E92FEE0FEE0F9E0F8C
:103E0000890F982F977086958695869525E0829FD5
:103E1000F0011124E15EFD4F50E040E080E021918F
:103E200030E0092E02C0369527950A94E2F72170FA
:103E30003327042E01C0220F0A94EAF7822B4F5F2A
:103E40005F4F4530510559F70895BF92CF92DF92E9
:103E5000EF92FF920F931F93CF93DF938C01C0904B
:103E60002E02D0902F02E0903002F090310280912B
:103E7000320290913302A0913402B0913502C82AE7
:103E8000D92AEA2AFB2ACFE1D0E0BC2ED701C6010D
:103E90000C2E04C0B695A795979587950A94D2F7EE
:103EA00080FD0EC0219788F7B12C8B2DDF91CF912B
:103EB0001F910F91FF90EF90DF90CF90BF900895EA
:103EC000B8018C2F0E94BB09019761F3EECFCF930D
:103ED000DF93EC010E94251FBE01DF91CF910C946E
:103EE000BB091F93CF93DF93EB019091E6019923D8
:103EF00031F0CB01DF91CF911F910C94671F882384
:103F000079F0CB010E94251F182F682FCE010E9447
:103F1000CE1EBE01812FDF91CF911F910C94BB0962
:103F2000CB010E94FC1E182FF4CF682F8091000156
:103F3000909101010C94C521682F8091000190910E
:103F400001010C94C72180910001909101010C9412
:103F5000C921809136028595859585950895809132
:103F600036028770089590913602977081E009F4C7
:103F700080E0089580914202089590914202892B39
:103F800080934202089580959091420298239093E5
:103F90004202089510924202089590914102892BA5
:103FA00080934102089580959091410298239093C7
:103FB0004102089510924102089590914002892B88
:103FC00080934002089580959091400298239093A9
:103FD000400208951092400208958091370208959A
:103FE00008950C94F01F90913702981721F0809358
:103FF00037020C94F11F089580913702882329F02D
:104000001092370280E00C94F11F0895E0910001B6
:10401000F0910101809142028083E0910001F091D2
:104020000101808190914102892B8083E091000100
:10403000F0910101808190914002892B80839091C1
:104040003702992381F0E0910001F0910101808114
:10405000892B808380910001909101010E947D2134
:1040600081110E94FC1F80910001909101010C942C
:104070008C1508950C94392098E0899F90011124A3
:10408000622B609336020E94321E80913602859523
:10409000859585950C943A201092360280E00C9418
:1040A0003A20909136028095892380933602282FFA
:1040B000277071F4282F082E000C330B921713066B
:1040C00039F08595859585950E94531E0C944C205A
:1040D00008959093AF018093AE010895CF92DF923F
:1040E000EF92FF926C01EE24FF2420E0C114D10472
:1040F000E104F10419F0C701B60120E1C72ED82E62
:10410000E92EFF24C114D104E104F10419F0285F61
:10411000C701B6016B017C0154E0F694E794D79493
:10412000C7945A95D1F7C114D104E104F10419F0F0
:104130002C5FC701B6016B017C0142E0F694E79465
:10414000D794C7944A95D1F7C114D104E104F1047E
:1041500019F02E5FC701B6019695879577956795FB
:10416000672B682B692B09F02F5F822FFF90EF9050
:10417000DF90CF900895829590E09C01220F331F2D
:10418000220F331F2C7C9595879595958795837382
:10419000282B30E0C901880F991F8A7A3595279519
:1041A0002575822B08956FEF7FEF90E080E00C94EF
:1041B000C33390E080E00E949F3321E08C3E9E4F0D
:1041C00009F020E0822F089582E090E00C9497336C
:1041D00083E090E00C949733CF9384E090E00E94CA
:1041E0009733C82F81E290E00E949733982F8C2F4D
:1041F000CF910895CF93C92F682F84E090E00E945B
:10420000A5336C2F81E290E0CF910C94A533AB01E4
:10421000BC018FE090E00C94B733AB01BC0183E1AB
:1042200090E00C94B73360E070E0CB010C940D216A
:1042300060E070E0CB010E9407210C9413216CEE2A
:104240007EEF90E080E00E94C33360E082E090E087
:104250000E94A53360E083E090E00E94A5331092B5
:10426000320210923302109234021092350260E052
:1042700084E090E00E94A53360E081E290E00E943B
:10428000A53360E085E090E00E94A53360E086E021
:1042900090E00E94A5336FEF87E090E00E94A53385
:1042A00040E050E0BA0188E090E00E94B73360E05F
:1042B0008DE090E00E94A53340E050E0BA0188E133
:1042C00090E00E94B73360E087E190E00E94A53360
:1042D00040E050E0BA018CE190E00E94B73360E02A
:1042E00080E290E00E94A5330C9418210C941F21C9
:1042F000682F8EE090E00C94A5339C012E5F3F4F19
:10430000AC01485F5F4F80E02417350709F408953A
:10431000F90191919F019923B9F38F5FF5CF66233E
:1043200049F0FC01329608962191261729F0E817EA
:10433000F907D1F780E0089581E008959C01FC0120
:1043400032969FEF80E04191461751F09F3F19F45C
:10435000411101C0982F8F5F8630A9F79F3F09F464
:104360000895290F311D97FD3A95F901628308954B
:10437000FC01329608962191261303C0DF011197A4
:104380001C92E817F907B9F708950C949E210C9434
:10439000B821029626E0FC0111922A95E9F70895CA
:1043A000089508950C94D1210E94D2218091730226
:1043B000843049F11092440288E190E020E40FB685
:1043C000F894A895809360000FBE2093600080E071
:1043D0000E942C090E94D22183B7817F846083BF11
:1043E00083B7816083BF7894889583B78E7F83BFBE
:1043F0000FB6F894A8958091600088618093600062
:10440000109260000FBE08950895CF930E94D021AE
:104410000E944B0C0E940422C0E08C2F0E94AA0B29
:10442000811105C0CF5FC430C1F7CF91089581E0FD
:10443000FCCF08950C9419220E94371A0E9480150F
:104440000E942C090C941A221F921FB61F9211244D
:104450008F939F93AF93BF9380914402811113C0B8
:104460008091690290916A02A0916B02B0916C02F6
:104470004196A11DB11D8093690290936A02A09399
:104480006B02B0936C02BF91AF919F918F911F907F
:104490001FBE1F90189582E084BD93E095BD9AEFF2
:1044A00097BD80936E0008952FB7F89480916902AC
:1044B00090916A02A0916B02B0916C022FBF089597
:1044C0002FB7F8946091690270916A0280916B0233
:1044D00090916C022FBF08959C014FB7F894809182
:1044E000690290916A02A0916B02B0916C024FBF79
:1044F000821B930B089578941F921FB61F9211246C
:104500008F939F93AF93BF938091690290916A02BA
:10451000A0916B02B0916C020196A11DB11D809318
:10452000690290936A02A0936B02B0936C02BF91F0
:10453000AF919F918F911F901FBE1F90189587E795
:1045400097E7909301088093000888E19AE00FB6FE
:10455000F894A895809360000FBE90936000FFCF01
:104560000C94860D0E944B0C8FE39CE90197F1F7A8
:1045700000C000000E944B0C83E00E94AA0B80FF49
:1045800004C00E94B0220C949F2208950E94D9205A
:10459000811102C00E9476210E94E4208093430290
:1045A0000E94EC2090936E0280936D020E94E8209E
:1045B000682F70E090E080E00E94D21D60912E0292
:1045C00070912F0280913002909131020C9441073A
:1045D00080914B0280FF12C06091070185E0689FC7
:1045E000B0011124759567957595679560387105CB
:1045F000A8F561157105A1F1862F089581FF09C005
:104600006091070185E0689FB00111247595679559
:10461000EDCF6091070182FD0AC080914A02882394
:10462000D1F09091060160910701891728F085E08B
:10463000689FB0011124DACF869FB001112485E074
:10464000869F9001879F300D1124692F70E0C9016A
:104650000E944033CBCF65E070E0CECF8FE7089566
:1046600081E0089580914B0280FF0CC060910301AE
:1046700070E075956795759567956115710549F1B8
:10468000862F089581FF06C06091030170E0759543
:104690006795F3CF6091030182FD0BC090914902B1
:1046A0009923A1F06091020180910301961738F0DF
:1046B000682F70E06038710500F38FE70895899FD7
:1046C000C001112470E00E944033F4CF61E070E03B
:1046D000D7CF81E00895803F31F40E94E822819590
:1046E00080934F020895813F19F40E94E822F8CF89
:1046F000823F31F40E94E822819580934E02089512
:10470000833F19F40E94E822F8CF893F29F40E94E0
:1047100032238093500208958A3F21F40E9432236D
:104720008195F7CF8B3F31F40E943223819580939E
:10473000510208958C3F19F40E943223F8CF843F30
:1047400031F480914D02816080934D020895853F40
:1047500021F480914D028260F7CF863F21F4809151
:104760004D028460F1CF873F21F480914D02886033
:10477000EBCF883F21F480914D028061E5CF8D3FE2
:1047800031F480914B02816080934B0208958E3FFB
:1047900021F480914B028260F7CF8F3FB9F780916F
:1047A0004B028460F1CF90914E02803F59F480918A
:1047B0004F0287FF0DC010924F0291110BC0109253
:1047C0004A0208C0813F81F480914F0218169CF381
:1047D000992381F08091500290915102892B09F028
:1047E00064C0109249020895823F49F497FFF0CFC8
:1047F00010924E0280914F028111ECCFE0CF833FA7
:1048000019F41916ACF3E4CF20915002893F29F432
:104810001216F4F610925002DBCF8A3F19F427FFEC
:10482000D7CFF8CF209151028B3F29F427FFD0CF6B
:1048300010925102CDCF8C3F19F41216CCF3C8CF91
:10484000843F31F480914D028E7F80934D02C0CF22
:10485000853F21F480914D028D7FF7CF863F21F473
:1048600080914D028B7FF1CF873F21F480914D02E3
:10487000877FEBCF883F21F480914D028F7EE5CF7B
:104880008D3F31F480914B028E7F80934B02A0CFFD
:104890008E3F21F480914B028D7FF7CF8F3F09F03F
:1048A00097CF80914B028B7FF0CF08958091430288
:1048B00083FF7EC088E392E00E94980680914D02BB
:1048C0001F928F9383E392E09F938F930E9431070F
:1048D00081E392E00E94980680914E02282F082ED4
:1048E000000C330B3F938F938EE292E09F938F9354
:1048F0000E9431078CE292E00E94980680914F025C
:10490000282F082E000C330B3F938F9389E292E0FF
:104910009F938F930E94310787E292E00E9498064E
:1049200080915002282F082E000C330B3F938F9359
:1049300084E292E09F938F930E94310782E292E09B
:104940000E94980680915102282F082E000C330BEC
:104950003F938F938FE192E09F938F930E94310753
:104960008CE192E00E94980680914A021F928F93F8
:1049700089E192E09F938F930E94310787E192E053
:104980000E94980680914B021F928F9384E192E0DF
:104990009F938F930E94310781E192E00E949806D5
:1049A0008DB79EB74C960FB6F8949EBF0FBE8DBFC5
:1049B0000E9454229C0190914E0280914F02982BAC
:1049C00021F0309348022093470290915002809149
:1049D0005102982B21F030934602209345028CE43B
:1049E00092E00C94D815EF92FF920F931F93CF9300
:1049F000DF9300D000D000D0CDB7DEB786E0ECE486
:104A0000F2E0DE01119601900D928A95E1F7E090B7
:104A10004E02F0904F0200915002109151021092FC
:104A20004E0210924F0210925002109251028E2D9F
:104A30008F2991F080914702909148020E946C2248
:104A4000AC0190914A02992309F43FC0809108017A
:104A50008417150608F447C0802F812B91F08091B0
:104A60004502909146020E946C22AC01909149024D
:104A7000992309F477C0809104018417150608F47E
:104A80007FC080914E0290914F02892B90915002ED
:104A9000892B90915102892B11F00E94562486E0B7
:104AA000FE013196ACE4B2E001900D928A95E1F7F7
:104AB00026960FB6F894DEBF0FBECDBFDF91CF9123
:104AC0001F910F91FF90EF900895209109018AE0C6
:104AD000289F900111242417350708F0BDCF9F5F50
:104AE00090934A0202C09F3FD1F7EE2059F00E94F6
:104AF000E8229FEF1E140CF491E0899F802D112471
:104B000080934E02FF2059F00E94E8229FEF1F146D
:104B10000CF491E0899F802D112480934F023091F5
:104B20004E02332309F498CF20914F02222309F437
:104B300093CF45EB3403C0011124992359F090938E
:104B40004E0245EB240390011124332339F03093B6
:104B50004F0282CF81E080934E02F3CF81E08093B9
:104B60004F027ACF209105018AE0289F90011124FD
:104B70002417350708F085CF9F5F9093490202C044
:104B80009F3FD1F7002359F00E9432239FEF101668
:104B90000CF491E0899F802D112480935002112301
:104BA00059F00E9432239FEF11160CF491E0899F77
:104BB000802D11248093510230915002332309F447
:104BC00060CF20915102222309F45BCF45EB3403DF
:104BD000C0011124992359F09093500245EB24030E
:104BE00090011124332339F0309351024ACF81E0F0
:104BF00080935002F3CF81E08093510242CF86E050
:104C0000ECE4F2E0DF011D928A95E9F710924A0286
:104C10001092490210924B0208958BE594E00E9495
:104C200098061F9281E08F931F9285E08F938DE00D
:104C300094E09F938F930E9431070F900F900F90F5
:104C40000F900F900F900895833009F445C028F419
:104C5000813061F0823049F10895853009F46AC0ED
:104C600008F451C0863009F47CC008958091090190
:104C7000482F460F5527551F4F3F510594F4680F95
:104C800060930901809109011F928F9386E493E05C
:104C90009F938F930E9431070F900F900F900F906A
:104CA00008958FEF80930901EDCF80910801482F7F
:104CB000460F5527551F4F3F510554F4680F609319
:104CC0000801809108011F928F9384E393E0E0CF65
:104CD0008FEF80930801F5CF80910701482F460F91
:104CE0005527551F4F3F510554F4680F6093070136
:104CF000809107011F928F9381E293E0C9CF8FEFDC
:104D000080930701F5CF80910601482F460F552764
:104D1000551F4F3F510554F4680F60930601809171
:104D200006011F928F938CE093E0B2CF8FEF8093B8
:104D30000601F5CF80910301482F460F5527551FD7
:104D40004F3F510554F4680F6093030180910301B4
:104D50001F928F9383EF92E09BCF8FEF809303019D
:104D6000F5CF80910201482F460F5527551F4F3F21
:104D7000510554F4680F60930201809102011F9263
:104D80008F9388ED92E084CF8FEF80930201F5CF6F
:104D90008330C9F128F4813061F0823019F108952F
:104DA000853009F452C008F43FC0863009F45EC073
:104DB000089580910901681790F4861B809309017A
:104DC000809109011F928F9389EC92E09F938F93BA
:104DD0000E9431070F900F900F900F90089510923E
:104DE0000901EECF80910801681750F4861B80936B
:104DF0000801809108011F928F9387EB92E0E6CF24
:104E000010920801F6CF80910701681750F4861BB5
:104E100080930701809107011F928F9384EA92E0AB
:104E2000D5CF10920701F6CF80910601681750F494
:104E3000861B80930601809106011F928F938FE855
:104E400092E0C4CF10920601F6CF8091030168175B
:104E500050F4861B80930301809103011F928F936E
:104E600086E792E0B3CF10920301F6CF8091020162
:104E7000681750F4861B80930201809102011F92F3
:104E80008F938BE592E0A2CF10920201F6CFCF93E1
:104E9000C82F1F928F9380E695E09F938F930E9477
:104EA000310761E070E080E090E004C0660F771F9A
:104EB000881F991FCA95D2F70E94D21D0F900F909C
:104EC0000F900F90CF910C94371ACF93DF938B31C3
:104ED00009F4FAC108F09CC18B3009F4B8C108F09C
:104EE0006AC1863009F4C6C148F4853009F49EC110
:104EF0008CEE99E00E94980680E0CCC1873009F4DE
:104F0000CCC18830A9F78BE89AE00E9498068CED16
:104F100099E00E9498060E94E8201F928F9389EDE5
:104F200099E09F938F930E94310787ED99E00E944B
:104F300098060E94E420C82F84EC99E00E9498060D
:104F40001F92CF938FEB99E09F938F930E9431072D
:104F50008DEB99E00E94980683EB99E00E949806F9
:104F60008C2F81701F928F9380EB99E09F938F938A
:104F70000E9431078EEA99E00E94980684EA99E03F
:104F80000E949806C1FB882780F91F928F9381EABF
:104F900099E09F938F930E9431078FE999E00E94D7
:104FA000980683E999E00E949806C2FB882780F959
:104FB0001F928F9380E999E09F938F930E9431070E
:104FC0008EE899E00E94980685E899E00E9498068C
:104FD000C3FBCC27C0F91F92CF9382E899E09F933F
:104FE0008F930E94310780E899E00E9498060E9402
:104FF000EC20EC018CE699E00E949806DF93CF93B9
:1050000087E699E09F938F930E94310785E699E0A8
:105010000E9498068CE499E00E9498068C2F81707B
:105020001F928F9389E499E09F938F930E94310799
:105030008DB79EB780960FB6F8949EBF0FBE8DBFFA
:1050400087E499E00E94980680E399E00E94980620
:10505000C1FB882780F91F928F938DE299E09F937F
:105060008F930E9431078BE299E00E94980689E1B4
:1050700099E00E9498068D2F81701F928F9386E190
:1050800099E09F938F930E94310784E199E00E94F9
:10509000980682E099E00E949806D695D1701F92FA
:1050A000DF938FEF98E09F938F930E9431078DEFEE
:1050B00098E00E9498068BEE98E00E949806C2FB4A
:1050C000882780F91F928F9388EE98E09F938F93A3
:1050D0000E94310786EE98E00E94980684ED98E0E1
:1050E0000E949806C3FB882780F91F928F9381ED59
:1050F00098E09F938F930E9431078FEC98E00E9475
:10510000980685EC98E00E949806C4FB882780F9F1
:105110001F928F9382EC98E09F938F930E943107A8
:1051200080EC98E00E9498068EEA98E00E9498062B
:10513000C5FB882780F91F928F938BEA98E09F9395
:105140008F930E94310789EA98E00E9498068DE8C3
:1051500098E00E949806C6FB882780F91F928F93DB
:105160008AE898E09F938F930E9431078DB79EB78E
:1051700080960FB6F8949EBF0FBE8DBF88E898E06A
:105180000E94980680E898E00E949806C7FBCC270A
:10519000C0F91F92CF938DE798E09F938F930E9461
:1051A00031078BE798E00E9498060F900F900F90C0
:1051B0000F9081E06FC0803109F49EC080F48E3082
:1051C00009F096CE90914302892F8B7F92FF8460E5
:1051D0008093430282FF8DC087E19AE081C08631CF
:1051E00009F49AC0893109F083CE82EA96E00E94E0
:1051F000980688E696E00E9498068FE296E00E9464
:10520000980689EF95E00E9498068EEC95E021C003
:105210008A3249F190F4873211F128F48E3108F482
:1052200067CE8D511DC0893209F062CE8AE59AE0C1
:105230000E9498060E943409BCCF833468F48A33F4
:1052400008F0A1C0853359F0883309F051CE88EDBC
:1052500096E00E949806ADCF833409F049CE80E0F5
:105260000E944727A6CF8AE79AE00E9498060E94EC
:1052700076219FCF80914302807F8093430281EB10
:1052800096E00E94980686E79AE00E94980681E0E0
:1052900080935302DF91CF91089590914302892F1B
:1052A0008E7F90FF81608093430280FF03C08EE475
:1052B0009AE0CFCF81E49AE00E9498068091430261
:1052C000817F8093430275CF90914302892F8D7F18
:1052D00091FF82608093430281FF08C084E39AE0DB
:1052E0000E949806809143028160EBCF86E29AE0AB
:1052F000B0CF87E09AE0ADCF90914302892F877FAE
:1053000093FF88608093430283FF03C08BEF99E093
:10531000E7CF8EEE99E09DCF80EC95E00E94980655
:105320000E9480151F928F9386EA95E09F938F933A
:105330000E943107809114011F928F938FE895E0AE
:105340009F938F930E943107809160021F928F93E9
:105350008CE795E09F938F930E9431070E94602213
:105360009F938F937F936F9385E695E09F938F93A1
:105370000E9431078DB79EB742960FB6F8949EBF34
:105380000FBE8DBF16CF89536BCF80E008950C946C
:10539000C5298E518A3030F4E82FF0E0E057FE4FF7
:1053A0008081089580E00895CF93C82F80915302A3
:1053B0008130C1F0882339F0823009F447C010925F
:1053C000530280E00DC00E94BA1F8232D1F78C2FA9
:1053D0000E94C52981111BC08C2F0E9465278170F6
:1053E000CF9108950E94BA1F823289F38C2F0E94B8
:1053F000C72981111BC0C431D9F060F4CB3071F0E2
:10540000C031D1F086E595E00E94980613C081E096
:1054100090E0E5CFC93261F0C833A1F781EB96E0A7
:105420000E9498068CE595E00E94980681E0D7CF0F
:105430001092530280E0D3CF0E940D2688E595E0BC
:105440000E94980682E080935302F0CFC432C8F4E1
:10545000CE3108F0BEC0CB30E1F040F4C73009F4E3
:10546000CCC08AEF93E00E94980626C0C331C1F1F8
:10547000C431B9F780915202882351F1109252023F
:105480000AC0CB3409F4B7C0C8F4C93299F3C833A1
:1054900041F70E940D2680915202882309F4C4C06E
:1054A0001F928F9384EF93E09F938F930E94310715
:1054B0000F900F900F900F9081E092CFC13509F4BB
:1054C00094C0C23509F48BC0CE3459F66AE08EC060
:1054D00089E094E00E94980681E08093530280CF97
:1054E00083EE93E00E94980681ED93E00E94980677
:1054F000809109011F928F938EEC93E09F938F937D
:105500000E9431078CEC93E00E9498068AEB93E0AE
:105510000E949806809108011F928F9387EB93E079
:105520009F938F930E94310785EB93E00E9498062A
:1055300086EA93E00E949806809107011F928F935C
:1055400083EA93E09F938F930E94310781EA93E06F
:105550000E94980680E993E00E94980680910601D7
:105560001F928F938DE893E09F938F930E94310752
:105570008BE893E00E94980686E793E00E949806E5
:10558000809103011F928F9383E793E09F938F9302
:105590000E94310781E793E00E9498068AE593E034
:1055A0000E949806809102011F928F9387E593E0F5
:1055B0009F938F930E94310785E593E00E949806A0
:1055C0008DB79EB748960FB6F8949EBF0FBE8DBF9D
:1055D00062CF8C2F0E94C929809352025CCF61E078
:1055E000809152020E94242656CF61E0809152029F
:1055F0000E94C82650CF6AE0F3CF8EE18093090164
:1056000082E3809308018AE08093070184E180931C
:10561000060188E08093030188E2809302018CEF09
:1056200093E00E94980637CF81EF93E01CCF8091E2
:105630005F0208959FB7F894109256029FBF909111
:105640007302943009F048C02091E9002F70309126
:10565000EC00932F917030FD90E8922B25E0209381
:10566000E9002091EB0020FF34C02091EE0027FFDD
:1056700030C020915402222321F02091E80025FF20
:1056800028C01092540226E03091E80035FF14C083
:105690008093F1008091E80085FD27C08091E800AB
:1056A00080FFFCCF8091E8008E778093E8009F70A8
:1056B0009093E90080E0089530917302343049F40A
:1056C0003091EB0035FD05C0215041F481E080931D
:1056D00054029F709093E9008FEF0895EFE9FFE087
:1056E0003197F1F700C00000CFCF8FB7F89421E0D9
:1056F000209356028FBFDBCFCF93DF9300D00F9262
:10570000CDB7DEB790917302943011F589837B8316
:105710006A839093E9008FEF9091E800815095FDA6
:1057200006C095ED9A95F1F700008111F5CF8091B3
:10573000E80085FF0DC050E040E063E070E0CE017E
:1057400001960E94552E8091E8008E778093E800A4
:105750000F900F900F90DF91CF910895BC0184E0DE
:105760000C947C2BBC0183E00C947C2B9C0184E08A
:105770008093E9009FEF8091E800915085FD06C07D
:1057800085ED8A95F1F700009111F5CF8091E80041
:1057900085FF0CC050E040E066E070E0C9010E9467
:1057A000552E8091E8008E778093E8000895CF937E
:1057B000DF93EC0181E08093E9008FEF9091E800A6
:1057C000815095FD06C095ED9A95F1F70000811185
:1057D000F5CF8091E80085FF14C050E040E068E01C
:1057E00070E0CE010E94552E8091E8008E77809364
:1057F000E80088E0FE01A7E5B2E001900D928A95ED
:10580000E1F7DF91CF910895CF93FC01603221F54C
:1058100080917302843001F5C091E900CF7020912E
:10582000EC00922F917020FD90E8C92B82E08093CC
:10583000E9008091E80080FF0CC050E040E060E2A9
:1058400070E0CF010E94552E8091E8008E77809302
:10585000E800CF70C093E900CF9108958BEB9AE0F8
:105860000E94980680917202811109C00E94343012
:105870000E9491308091E20084608093E20008955C
:1058800087EB9AE00E94980610927202089583EBCB
:105890009AE00C9498068FEA9AE00C9498068BEAAA
:1058A0009AE00E9498060C941C22209155022F5FCA
:1058B000822F62E30E943433992319F0209355021A
:1058C000089510925502809156028823F1F080913C
:1058D00073028430C1F49091E9009F702091EC0034
:1058E000822F817020FD80E8892B95E09093E9005C
:1058F0009091EB0090FF04C09091EE0097FD08C0DE
:105900008F708093E9001092560208951092F10072
:105910009091E80095FDFACF9091E80090FFF0CFCC
:105920009091E8009E779093E800EACF42E061EC26
:1059300081E00E94B02F42E261EC84E00E94B02F2F
:1059400042E261EC82E00E94B02F42E260EC83E030
:105950000E94B02F42E261EC85E00C94B02F809160
:105960007502833009F461C030F48130D1F18230A6
:1059700009F49DC008958A3009F489C08B3009F478
:105980006FC0893009F050C080917402813209F0F3
:105990004BC08091780290917902009719F002979C
:1059A00009F042C08091E800877F8093E8008091F1
:1059B000E80082FF35C09091F3008091F2000297D9
:1059C00029F48091F1008B7F813021F48091F100E6
:1059D00080935F028091E8008B778093E8000C94BD
:1059E000E42F80917402813AF9F48091E800877F76
:1059F0008093E8008091780290917902892B61F47C
:105A000068E087E592E070E00E94F32E8091E80064
:105A10008B778093E800089560E090E080E0F3CF1A
:105A2000809173028111C3CF089580917402813AED
:105A3000D9F78091780290917902892BA9F780910A
:105A4000E800877F8093E8008091E80080FFFCCF2A
:105A5000809114018093F1008091E8008E77BDCF92
:105A600080917402813201F78091780290917902DD
:105A7000892BD1F68091E800877F8093E8000E940F
:105A8000E42F80917602809314010C94371A809150
:105A90007402813249F68091E800877F8093E800A4
:105AA0000E94E42F80917702809360020895809194
:105AB0007402813A09F0B8CF8091E800877F809323
:105AC000E8008091E80080FFFCCF80916002C2CFA7
:105AD000CDB7DEB7A0970FB6F894DEBF0FBECDBF2F
