:100000000C947B060C94C2060C94C2060C94C20697
:100010000C94C2060C94C2060C94C2060C94C20640
:100020000C94C2060C94C2060C943E320C9410330D
:100030000C947F230C94C2060C94C2060C94C20646
:100040000C94C2060C94C2060C94C2060C94C20610
:100050000C94C2060C94D8230C94C2060C94C206CD
:100060000C94C2060C94C2060C94C2060C94C206F0
:100070000C94C2060C94C2060C94C2060C94C206E0
:100080000C94C2060C94C2060C94C2060C94C206D0
:100090000C94C2060C94C2060C94C2060C94C206C0
:1000A0000C94C2060C94C2060C94C206590E5C0E47
:1000B0007C0E8D0E950EA00EF80EF80EF80EE60EC4
:1000C000E90EA30EA60EAB0EB80EC50EC80ECC0ED2
:1000D000D90EFB18FB182D192D197A199819B91A70
:1000E000B91AA319381A491A491AA91AB91AB91A00
:1000F000B21A591B591B6B1B6B1B621B6B1B6B1BB7
:100100006B1B591B591B671B6B1B6B1B671B7D33C1
:10011000A4339C34A4339C34F03313349C346A34B9
:10012000793400002400250026002A000000210068
:1001300022002300290000001E001F0020002B00C9
:10014000F4000158270037002800000001000100DA
:100150000100005C000001000100010057000000E8
:100160000100010001005600DE5C010001000100F9
:100170002E0044454255473A2064697361626C65BC
:10018000642E0A0044454255473A20656E61626C10
:1001900065642E0A0000000000000000002A2B28E1
:1001A000000000000000000000000000000000004F
:1001B00029000000002C1E3420212224342627256B
:1001C0002E362D3738271E1F2021222324252633A3
:1001D00033362E37381F0405060708090A0B0C0DA5
:1001E0000E0F101112131415161718191A1B1C1DB7
:1001F0002F3130232D350405060708090A0B0C0D95
:100200000E0F101112131415161718191A1B1C1D96
:100210002F3130354C0000000000000000000000CD
:100220000000000000000000007E0F00D4FFFFFF70
:10023000C7000000780A0025303862003A20002507
:10024000303258000A722F63203031323334353661
:10025000370A000A002530325820006B6579626F3A
:100260006172645F7265706F72743A20000A0025D3
:10027000303258006B6579626F6172645F736574C8
:100280005F6C65643A2000290A002575002F00255F
:1002900075005D28002564002000256400200025ED
:1002A000640020002564007C0025303258006D6F0A
:1002B0007573656B6579205B62746E7C782079203C
:1002C0007620685D287265702F61636C293A205B27
:1002D000006D6B5F776865656C5F74696D655F74F1
:1002E0006F5F6D6178203D2025640A006D6B5F773C
:1002F0006865656C5F6D61785F7370656564203DEE
:100300002025640A006D6B5F74696D655F746F5FB3
:100310006D6178203D2025640A006D6B5F6D61780A
:100320005F7370656564203D2025640A006D6B5F16
:10033000696E74657276616C203D2025640A006DDB
:100340006B5F64656C6179203D2025640A006D6BEC
:100350005F776865656C5F74696D655F746F5F6D0D
:100360006178203D2025640A006D6B5F77686565C4
:100370006C5F6D61785F7370656564203D202564F6
:100380000A006D6B5F74696D655F746F5F6D617896
:10039000203D2025640A006D6B5F6D61785F73708E
:1003A000656564203D2025640A006D6B5F696E748D
:1003B000657276616C203D2025640A006D6B5F6478
:1003C000656C6179203D2025640A000A00257500CE
:1003D000363A20776865656C5F74696D655F746F28
:1003E0005F6D61783A20000A00257500353A207764
:1003F0006865656C5F6D61785F73706565643A20F0
:10040000000A00257500343A2074696D655F746FC9
:100410005F6D61783A20000A00257500333A206D3F
:1004200061785F73706565643A20000A0025750085
:10043000323A20696E74657276616C286D73293A60
:1004400020000A00257500313A2064656C61792826
:100450002A31306D73293A20000A092D2056616C2B
:10046000756573202D0A004D3E004D25643E200029
:100470003F007365742064656661756C740A00439F
:100480003E200077686572652064656C74613A206F
:10049000637572736F723D25642C20776865656C97
:1004A0003D25640A53656520687474703A2F2F6582
:1004B0006E2E77696B6970656469612E6F72672F44
:1004C00077696B692F4D6F7573655F6B6579730A1B
:1004D000000A092D204D6F7573656B6579202D0A13
:1004E0004553432F713A09717569740A313A0964A9
:1004F000656C6179282A31306D73290A323A0969AD
:100500006E74657276616C286D73290A333A096DD1
:1005100061785F73706565640A343A0974696D6562
:100520005F746F5F6D61780A353A09776865656C4D
:100530005F6D61785F73706565640A363A09776844
:1005400065656C5F74696D655F746F5F6D61780A76
:100550000A703A097072696E742076616C75657301
:100560000A643A097365742064656661756C747316
:100570000A75703A092B310A646F776E3A092D318A
:100580000A706775703A092B31300A7067646F77AB
:100590006E3A092D31300A0A7370656564203D207A
:1005A00064656C7461202A206D61785F7370656585
:1005B00064202A2028726570656174202F20746978
:1005C0006D655F746F5F6D6178290A003F004D3E75
:1005D0002000433E20004C25640A0074696D65725A
:1005E0005F72656164333228293A202530346C58B3
:1005F0000A006B6579626F6172645F69646C653A69
:100600002025580A006B6579626F6172645F7072B1
:100610006F746F636F6C3A2025580A00686F7374AB
:100620005F6B6579626F6172645F6C6564732829C2
:100630003A2025580A000A092D20537461747573F5
:10064000202D0A004743433A20352E342E302041D6
:1006500056522D4C4942433A20322E302E30204102
:1006600056525F415243483A20617672350A004F34
:100670005054494F4E533A204C554641204D4F550A
:1006800053454B45592045585452414B45592043F9
:100690004F4E534F4C4520434F4D4D414E44203417
:1006A0003039360A004255494C443A2022302E391E
:1006B0002E35302D33382D6765633931653722206B
:1006C0002831363A31393A35352041756720323490
:1006D0002032303230290A005649443A20307844DA
:1006E00045414628696D63686970776F6F6429209A
:1006F0005049443A203078303931332864756D627E
:1007000070616429205645523A20307830303031BB
:100710000A000A092D2056657273696F6E202D0A32
:10072000000A092D20436F6E736F6C65202D0A45FA
:1007300053432F713A09717569740A6D3A096D6FE7
:100740007573656B65790A000A092D204D6167692B
:1007500063202D0A443A094465627567204D65732C
:100760007361676520546F67676C650A583A094D75
:100770006174726978204465627567204D6F6465A5
:1007800020546F67676C65202D2053686F77206B4E
:1007900065797072657373657320696E206D61741D
:1007A00072697820677269640A4B3A094B6579620D
:1007B0006F61726420446562756720546F67676C6F
:1007C00065202D2053686F77206B65797072657393
:1007D00073207265706F72740A4D3A0944656275D0
:1007E00067204D6F75736520546F67676C650A5697
:1007F0003A0956657273696F6E0A533A0953746108
:100800007475730A433A09416374697661746520AB
:10081000436F6E736F6C65204D6F64650A46312DB2
:100820004631303A0953776974636820746F204CFD
:100830006179657220302D392028463130203D20E5
:100840004C30290A302D393A09537769746368208E
:10085000746F204C6179657220302D390A475241FE
:1008600056453A0953776974636820746F204C6168
:1008700079657220302028616C7465726E617465D0
:10088000290A423A094A756D7020746F20426F6FD1
:10089000746C6F616465720A4553433A094A756D19
:1008A0007020746F20426F6F746C6F61646572208A
:1008B00028616C7465726E617465290A453A095045
:1008C00072696E7420454550524F4D2053657474C3
:1008D000696E67730A4253504143453A09436C6558
:1008E000617220454550524F4D0A000A002575009F
:1008F0002E6E6B726F3A20000A002575002E7377FA
:1009000061705F6261636B736C6173685F62616386
:100910006B73706163653A20000A002575002E73C1
:100920007761705F67726176655F6573633A200017
:100930000A002575002E6E6F5F6775693A20000A00
:10094000002575002E737761705F72616C745F7241
:100950006775693A20000A002575002E737761706B
:100960005F6C616C745F6C6775693A20000A0025E2
:1009700075002E737761705F7263746C5F72677558
:10098000693A20000A002575002E737761705F6C4C
:1009900063746C5F6C6775693A20000A0025750006
:1009A0002E636170736C6F636B5F746F5F636F6EE8
:1009B00074726F6C3A20000A002575002E737761FF
:1009C000705F636F6E74726F6C5F636170736C6F76
:1009D000636B3A20000A0025303258006B65796D50
:1009E00061705F636F6E6669672E7261773A20008F
:1009F0000A002575002E6D6F7573653A20000A0098
:100A00002575002E6B6579626F6172643A20000A69
:100A1000002575002E6D61747269783A20000A0015
:100A20002575002E656E61626C653A20000A00250E
:100A30003032580064656275675F636F6E66696720
:100A40002E7261773A20000A0025750064656661A0
:100A5000756C745F6C617965723A20003F000A6DB5
:100A60006F7573653A206F66660A000A6D6F75735D
:100A7000653A206F6E0A000A6B6579626F61726475
:100A80003A206F66660A000A6B6579626F6172646C
:100A90003A206F6E0A000A6D61747269783A206FAD
:100AA00066660A000A6D61747269783A206F6E0A90
:100AB000000A64656275673A206F66660A000A6418
:100AC000656275673A206F6E0A000A0A4A756D7092
:100AD000696E6720746F20626F6F746C6F616465FC
:100AE000722E2E2E2000433E2000436C65617269F9
:100AF0006E6720454550524F4D0A006565636F6E25
:100B00006669673A0A005B735D004B6579626F61E5
:100B100072642073746172742E0A005B575D005B0F
:100B2000535D005B525D005B445D005B435D000410
:100B300003300000001003640075006D0062007057
:100B400000610064000000160369006D0063006826
:100B5000006900700077006F006F006400000004FF
:100B600003090409027B00040100A0FA0904000043
:100B700001030101000921110100012240000705C4
:100B8000810308000A090401000203000000092192
:100B90001101000122220007058203200001070540
:100BA00003032000010904020001030000000921E1
:100BB000110100012281000705840320000A0904B5
:100BC000030002030000000921110100012222009C
:100BD0000705850320000107050503200001120118
:100BE000100100000008AFDE13090100010203013B
:100BF0000631FF0974A1010975150026FF00952033
:100C0000750881020976150026FF00952075089168
:100C100002C00660FF0961A1010962150026FF00FC
:100C20009520750881020963150026FF009520753F
:100C3000089102C005010902A10185020901A10074
:100C40000509190129051500250195057501810280
:100C50009501750381010501093009311581257F51
:100C600095027508810609381581257F950175085B
:100C70008106050C0A38021581257F9501750881CA
:100C800006C0C005010980A101850319012AB7002A
:100C9000150126B700950175108100C0050C0901EA
:100CA000A101850419012AA002150126A0029501BF
:100CB00075108100C005010906A101050719E02989
:100CC000E7150025019508750181029501750881D8
:100CD000010507190029FF150026FF009506750874
:100CE00081000508190129059505750191029501F5
:100CF00075039101C00011241FBECFEFDAE0DEBF03
:100D0000CDBF04B603FE27C080917C0290917D0286
:100D1000A0917E02B0917F028730904BA740B04BEC
:100D2000D1F410927C0210927D0210927E021092F9
:100D30007F0214BE84B7877F84BF0FB6F894A8954E
:100D400080916000886180936000109260000FBE07
:100D5000E0E0F8E3099511E0A0E0B1E0ECEEFAE69E
:100D600002C005900D92AE3AB107D9F722E0AEEA83
:100D7000B1E001C01D92AC37B207E1F70E94F72E37
:100D80000C9474350C940000FF93EF93E091AE0146
:100D9000F091AF01309709F00995EF91FF91089517
:100DA000FC018591803011F0EFDFFBCF0895FF2724
:100DB000E0E230E247FF0CC0419597FF09C0EDE249
:100DC0006095709580959095611D711D811D911D97
:100DD00027FF02C0219530E350E2AA27660F771F54
:100DE000881F991FAA1FA41710F0A41B63955A957A
:100DF000A9F7AA3008F0A95FA05DAF93F39561153C
:100E000071058105910541F7ED3211F4EF93F395EA
:100E1000F21718F43F93F395FBCF8F91B5DFFA9556
:100E2000E1F70895E991F9918591803021F08532BB
:100E300019F0AADFF9CF089520E0E89455915532D2
:100E4000C1F3503311F4689455915A3348F4505318
:100E500090F3220F022E220F220F200D250FF4CF28
:100E60000EF4219589919991533619F3533729F14D
:100E7000533559F1BC0188279927E8945C3621F451
:100E80008991999168945591543639F446EF7EF0E2
:100E900077FF0DC08FEF9FEF0AC055374AE039F05A
:100EA000583540E121F0523642E009F00895FF93B1
:100EB000EF937DDFEF91FF91B7CFFF93EF93FC01AD
:100EC00081918030B9F360DFFBCFFF93EF9368DF50
:100ED000F1CFDF93CF93CDB7DEB72596A3DFCF91C8
:100EE000DF910895239A219A0C9403172B9829983F
:100EF0000895CF92DF92EF92FF926B017C010E94E6
:100F0000CC2180FF02C02B9A01C02B9881FF02C028
:100F1000299A01C02998C701B601FF90EF90DF9090
:100F2000CF900C942F1F82E090E02B9A29982FEFFE
:100F300031EE44E0215030404040E1F700C0000075
:100F40002B9A299A2FEF31EE44E021503040404057
:100F5000E1F700C000002B98299A2FEF31EE44E012
:100F6000215030404040E1F700C000002B98299804
:100F70002FEF31EE44E0215030404040E1F700C017
:100F80000000019791F60C94CE070C94CF070C94B7
:100F9000CB070C94D00781E0089508950895089533
:100FA0000895CF9381111BC0C62F60912E027091BE
:100FB0002F0280913002909131020E94CC21811148
:100FC00006C0CC2311F08EE407C08BE405C0CC230F
:100FD00011F081E501C082E5CF910C94A418CF9166
:100FE000089581E0089508950C94F3071F93CF931B
:100FF000DF9300D000D01F92CDB7DEB749835A836C
:101000006B833091E60189819A81311114C0662386
:1010100059F0222349F00E949520182F682F8981CA
:101020009A810E943C2003C00E946820182F698189
:101030007A81812F04C00E94952069817A810F9066
:101040000F900F900F900F90DF91CF911F910C9404
:10105000C80FFC01262F40815181628173818481F8
:101060000C94F607CF93DF93EC0160E00E9429080F
:10107000BE01DF91CF910C94F407FF920F931F9361
:10108000CF93DF93E82FF0E0EB56FE4FF490C82F9C
:10109000C695C695C695D0E0FE01EB5DFD4F049167
:1010A000877010E0082E02C0159507950A94E2F7A4
:1010B00001701127FE01EB5EFD4FC491D0E002C02C
:1010C000D595C7958A95E2F7C170DD270115110501
:1010D00019F081EE0E941518209719F086EE0E94F3
:1010E00015188F2D0E94A418CD2B19F086EE0E94A2
:1010F0007018012B41F081EEDF91CF911F910F917C
:10110000FF900C947018DF91CF911F910F91FF9079
:101110000895EF92FF920F931F93CF93DF93EC010B
:10112000162F0AE08881882309F455C0813009F020
:1011300043C08981813041F47E0182E0E80EF11CD8
:101140008A810E94A41809C0823049F47E01E2E03D
:10115000EE0EF11C8A810E941518E7012FC0833022
:1011600041F47E01F2E0EF0EF11C8A810E947018BA
:10117000F4CF843011F0219621C02A81229680E09C
:1011800090E030E0205331092A30310558F4089FAF
:10119000A001099F500D1124C901840F951F2196AC
:1011A0002881EFCF009751F0EFE9FFE03197F1F799
:1011B00000C000000197F6CF0E943D082196812FC4
:1011C000882309F4AFCFEFE9FFE03197F1F700C0D2
:1011D00000008150F5CFDF91CF911F910F91FF90CB
:1011E000EF90089560E00C9489088F929F92AF92DF
:1011F000BF92CF92DF92EF92FF920F931F936B01FA
:101200007C0181E090E0A0E0B0E04C015D0104C011
:10121000880C991CAA1CBB1C4A95D2F7AC01BD01D5
:1012200004C0440F551F661F771F2A95D2F748291F
:1012300059296A297B2904C0880F991FAA1FBB1F3F
:101240000A95D2F78A019B010C211D212E213F21F5
:10125000401751076207730739F4BC01CD016C29AF
:101260007D298E299F290AC080959095A095B095DB
:10127000BC01CD016C217D218E219F211F910F91F9
:10128000FF90EF90DF90CF90BF90AF909F908F90A6
:1012900008950F93382F262F60912E0270912F0200
:1012A0008091300290913102042F432F0E94F50863
:1012B0000F910C94781F0E9411240E9434228111F6
:1012C00002C00E94D4220C9493070C94C50781E0BD
:1012D00008950C946709CF93C82F0E94C9078C2FDB
:1012E0000E946909CF9108950E94471B0E947607CA
:1012F0002FEF84E39CE0215080409040E1F700C054
:1013000000000C94FE230F931F93CF93DF9300D024
:10131000CDB7DEB78C0161E00E9429089A838983EA
:10132000B801CE0101960E94D012882309F457C05B
:10133000B80189819A810E94080E882309F44FC060
:10134000B80189819A810E94C707882309F447C0A0
:10135000B80189819A810E942211882309F43FC033
:10136000B80189819A810E9474118823C1F1B80162
:1013700089819A810E949F12882389F1F8018281D4
:10138000882341F189819A8181302CE5920751F0BF
:101390008F3DECE59E07D9F081159C45D9F40E945C
:1013A00074091DC080914302182F1095117010FB15
:1013B00080F980934302112329F084E891E00E9490
:1013C000D0060DC082E791E00E94D00609C00E94BD
:1013D000D42205C0C8010E94F107182F01C010E0F7
:1013E000812F0F900F90DF91CF911F910F91089552
:1013F00080E090E008950895880F991FFC01EB5C50
:10140000FD4F859194910895CF93DF930E94C80F6B
:101410000E941C0BEC018115904508F041C0C115DC
:1014200080E4D80708F0D1C0C83ED10510F5C03E11
:10143000D10508F0FDC0C83AD10578F4C53AD10508
:1014400008F0A2C0C130D10509F4F2C008F4EEC022
:10145000C430D10508F0ECC0E9C0CF3BD10508F499
:101460009BC0C03CD10508F4E1C0CE01805C91096D
:101470009EC0C11590E2D90758F4C11521E0D207EA
:1014800008F0D6C0C03FD10508F4D0C0D065D0C0A8
:10149000C11580E3D80708F08EC0CE019F7087C0C9
:1014A000C11595E5D90708F043C0C11524E5D20759
:1014B00008F0A2C0C11582E5D80708F5C11591E56D
:1014C000D90708F085C0CE0174E0969587957A9586
:1014D000E1F783709C2F937021E030E002C0220F6F
:1014E000331F9A95E2F73C68382BCF70C695C695A6
:1014F00080E2C89FE0011124C22BD32B99C09E012A
:10150000237033278C2F86958695C115D34508F017
:1015100064C0C1E0D0E002C0CC0FDD1F2A95E2F725
:1015200020E2829FC0011124C82BD92BDC6880C027
:10153000C11529E5D207A0F4C11588E5D80708F040
:1015400060C0C11596E5D90708F070C08C2F0E94C5
:10155000B00B8F71C82FD0E0DC2FCC27D06268C0D1
:10156000C1152AE5D20708F451C0CE019056811565
:10157000904208F05BC08D2F8F710E94B00BDD2769
:10158000D0628F71D82B54C0C55AD0E0CD5BDE4FEE
:10159000C881D0E0D0644CC0C85AD0E0CC0FDD1F69
:1015A000CB5EDE4F0990D881C02DD46441C00E942B
:1015B000FC09EC013DC0CE019927D3FF03C0EC012B
:1015C000D86C36C0EC01D06C33C0DF70D06A30C04C
:1015D000DC2FCC27C16FD06A2BC0C1E0D0E002C0A5
:1015E000CC0FDD1F2A95E2F720E2829FC001112473
:1015F000C82BD92BDA681CC0DC2FCC27C46FD06A6B
:1016000017C0DC2FCC27C06FD06A12C08C2F8F7010
:101610000E94B00B94E0D695C7959A95E1F7CF70EC
:10162000D0E0DC2FCC27D069C82B02C0C0E0D0E0CE
:10163000CE01DF91CF9108958238910569F1B0F420
:101640008133910509F46DC048F48932910509F49C
:1016500063C08A32910509F469C008958533910504
:1016600009F455C089339105B9F00895833E910579
:1016700069F138F4803E9105B1F0823E910509F19F
:101680000895863E9105A9F1873E9105B9F1843E02
:10169000910509F064C023C020916D0220FD4FC068
:1016A00021FD4DC0089580916D0280FD44C0809160
:1016B0006E0280FF44C080916D0284FD42C083EEC3
:1016C0004DC080916D0282FF38C0F5CF80916D02D0
:1016D00082FD33C080916E0280FD31C0ECCF8091DD
:1016E0006E0281FF32C080916D0284FD2AC087EEB8
:1016F00035C080916D0283FF26C0F5CF80916D02C9
:1017000083FD21C080916E0281FD1FC0ECCF8091CE
:101710006D0285FD1CC01DC080916D0285FD19C044
:1017200016C080916D0286FD16C017C080916D02B3
:1017300086FD13C010C089E311C082EE0FC080EE99
:101740000DC080E00BC086EE09C084EE07C089E2C0
:1017500005C085E303C08AE201C081E390E00895FB
:1017600090916D0292FF0DC0282F2871283019F436
:10177000877F846006C0282F2471243011F48B7F6A
:10178000886093FF0DC0282F2871283119F4877EB7
:10179000846106C0282F2471243111F48B7E886166
:1017A00020916E0220FF0DC0382F3871383019F4A7
:1017B000877F816006C0382F3171313011F48E7F00
:1017C000886021FF0DC0282F2871283119F4877EE9
:1017D000816106C0282F2171213111F48E7E88612C
:1017E00094FD877E0895E82FF0E0EB59FD4F80814E
:1017F0000895CF92DF92EF92FF920F931F93CF93B2
:10180000DF9384E492E00E94D00685E6E82E82E031
:10181000F82EC0E0D0E09FE3C92E92E0D92E07E376
:1018200012E0DF93CF93DF92CF920E9469078CE39F
:1018300092E00E94D006F70181917F010E941C2254
:101840001F928F931F930F930E94690785E392E085
:101850000E94D00621968DB79EB708960FB6F894D1
:101860009EBF0FBE8DBFC430D105D9F6DF91CF9199
:101870001F910F91FF90EF90DF90CF90089580EA35
:101880008A95F1F70895CF93DF93ABE4B1E04FE48D
:1018900051E061E070E08D91E82FE295EF70F0E0AB
:1018A00021A18F70EB0102C0CC0FDD1F8A95E2F7FA
:1018B000CE019C2F9095922391A392A1892B82A374
:1018C0004A175B0741F7A6E4B1E041E050E08D9193
:1018D000E82FE295EF70F0E021A18F70BA0102C00D
:1018E000660F771F8A95E2F7CB01962F909592238A
:1018F00091A392A1892B82A371E0AB34B70739F78A
:1019000010926102109265021092620210926602B9
:1019100010926302109267021092640210926802A1
:1019200084E00E941D0DDF91CF910C945B096F92B2
:101930007F928F929F92AF92BF92CF92DF92EF925F
:10194000FF920F931F93CF93DF938BE4882E81E058
:10195000982E01E612E095E6A92E92E0B92E712CA0
:10196000CC24C394D12CF40181914F01C82FC2958E
:10197000CF70D0E099A18F70760101C0EE0C8A95EE
:10198000EAF7892F8E2989A38AA16E2C609486217B
:101990008AA30E943F0CE6E4F1E040E050E020E042
:1019A0003191A32FA295AF70B0E090968C9190E00A
:1019B0003F7002C0959587953A95E2F780FD07C084
:1019C0008C2D042E01C0880F0A94EAF701C080E034
:1019D000282B4F5F5F4F4530510511F789A16822D1
:1019E00069A28AA1E82AEAA2F8018081281719F0E1
:1019F000208381E001C080E0782A0F5F1F4FA0168E
:101A0000B10609F0B0CF272D44E065E672E081E62B
:101A100092E00E941E0D0E946509872DDF91CF91F3
:101A20001F910F91FF90EF90DF90CF90BF90AF90FC
:101A30009F908F907F906F9008950895FF920F93DD
:101A40001F93CF93DF938C01F62ED72FC42F222321
:101A500049F081E08093B2010E94B1239093B101DB
:101A60008093B0018091B2018823C1F08091B001D0
:101A70009091B1010E94C923069780F0EF2DFD2FB0
:101A8000D8014C2F50E0CD01801B910B8417950796
:101A90001CF48D918193F7CF1092B201DF91CF9119
:101AA0001F910F91FF9008950C94D1075098589A68
:101AB00054985C9A89B181704C9902C090E001C041
:101AC00092E0892B8093B5010895E091B501EE0F66
:101AD000EE0FE093B50149B1842F817090E049B1D8
:101AE00044FB222720F930E044FF02C022E030E02E
:101AF000822B932B8E2B8093B5018F70E82FF0E013
:101B0000E15BFE4F90818091B401890F8093B40115
:101B100084304CF08091B3018F5F8093B30160E01B
:101B200080E00E94540D8091B4018D3F4CF480916F
:101B3000B30181508093B30161E080E00E94540DB5
:101B40008091B401837887FF03C081508C6F8F5FD1
:101B50008093B401089582E290E00E943235803291
:101B600081F483E290E00E943235883051F484E2BF
:101B700090E00E94323591E0843209F090E0892FA4
:101B800001C080E081700895CF93C82F811102C0F9
:101B90006FEF01C060E282E290E00E944035C11127
:101BA00002C06FEF01C068E083E290E00E94403520
:101BB000C11102C06FEF01C064E284E290E0CF91F6
:101BC0000C94403580E00E94C40D0C942E220895A0
:101BD00085E290E00E943235682F70E080E090E06E
:101BE000089585E290E00C9440350E94E70D0E9434
:101BF000AB0D81110CC060E070E0CB010E94F10DD3
:101C00000E94450F0E94221081E00C94C40D08959B
:101C1000CF93FB01C281CC23E9F09C0122513F45C7
:101C20002031310520F482510E9432100CC08031E5
:101C3000FFE59F0751F481E00E949E1F43E062E0B0
:101C400081E00E944909C0E018C081319F45A9F494
:101C500082E0F2CF8031EFE59E0711F481E004C00D
:101C600081319F4549F482E00E94BF1F43E062E05A
:101C700081E00E94490901C0C1E08C2FCF910895F5
:101C80002FEFFC0120830895EF92FF920F931F9393
:101C9000CF93DF93EC01162FE8818E2F90E0FC01AB
:101CA0003197E331F10508F0A3C0EA5AFF4F0C94D5
:101CB000EF34198289E04DC08981823039F0833058
:101CC00061F0813029F50E94BD2302C00E94E80D19
:101CD0009A838B837C836D838DC07E0122E0E20E2C
:101CE000F11C00E0802F0E94F30BF70181937F012C
:101CF0000F5F0430B9F77EC08981823049F46A8170
:101D00007B818C819D810E94F5340E94F10D72C00F
:101D1000612FCE010E94400E6DC04B816A81898186
:101D20000E94170F9C838D8365C02C813D813227D3
:101D3000232732274B816A8189810E94300F5AC044
:101D40000E94450F57C00E94D50F24C00E94D70F94
:101D500099838A834FC06B8170E089819A81AE013B
:101D60004C5F5F4F9827892798270E94DA0F42C05F
:101D70006B8170E089819A81AE014C5F5F4F98273B
:101D8000892798270E94FF0F35C00E94221032C079
:101D90000E94040F89832EC06B8170E089819A8133
:101DA000AE014C5F5F4F9827892798270E94840FC8
:101DB00021C06B8170E089819A81AE014C5F5F4FD9
:101DC0009827892798270E94A70F14C00E94E20D28
:101DD00011C0CE010E948F2DFFEF21EE84E0F15063
:101DE00020408040E1F700C000000E94FE2302C0B6
:101DF0008FEF8883612FCE01DF91CF911F910F91DB
:101E0000FF90EF900C948F2D84E0089550E0440FE4
:101E1000551F2AE0629F400D511D11249A0168E26E
:101E2000869F200D311D1124C901869608950F93B8
:101E30001F93CF93DF930E94060F8C010E943235CF
:101E4000C82FD0E0DC2FCC27C80101960E94323584
:101E50009E01282BC901DF91CF911F910F91089509
:101E60000F931F93CF93DF93122F032F0E94060F20
:101E7000EC01602F0E944035612FCE010196DF9169
:101E8000CF911F910F910C944035AF92BF92CF929A
:101E9000DF92EF92FF920F931F93CF93DF93A12CCA
:101EA000E12CF12CB12C00E010E0C0E0D0E06701A3
:101EB000C00ED11EFE01EE0FFF1FEC0DFD1DEE5DED
:101EC000FE4F259134914C2F6B2D8A2D0E94300F9F
:101ED0002196C530D10571F7065F1F4FB39484E09A
:101EE000B812E3CF88E2E80EF11CA39484E0A812B4
:101EF000D9CFDF91CF911F910F91FF90EF90DF909D
:101F0000CF90BF90AF900895EF92FF920F931F93E1
:101F1000CF93DF93EA017A01E60EF71E8C01C80128
:101F20008696CE15DF0561F0003A110520F40E9477
:101F30003235888301C0188221960F5F1F4FEFCF83
:101F4000DF91CF911F910F91FF90EF900895EF9245
:101F5000FF920F931F93CF93DF93EA017A01E60E6E
:101F6000F71E8C01C8018696CE15DF0551F0003AA8
:101F7000110518F468810E94403521960F5F1F4FAC
:101F8000F1CFDF91CF911F910F91FF90EF900895C6
:101F9000462F843038F4743028F4653018F4672FF5
:101FA0000C94170F80E090E0089580E108958AE393
:101FB00093E00895EF92FF920F931F93CF93DF93D7
:101FC000EA017A01E60EF71E8C01C8018A539F4F81
:101FD000CE15DF0569F00A3323E0120720F40E94D2
:101FE0003235888301C0188221960F5F1F4FEDCFD5
:101FF000DF91CF911F910F91FF90EF900895EF9295
:10200000FF920F931F93CF93DF93EA017A01E60EBD
:10201000F71E8C01C8018A539F4FCE15DF0559F07A
:102020000A3323E0120718F468810E944035219694
:102030000F5F1F4FEFCFDF91CF911F910F91FF9057
:10204000EF900895CF93DF93C6ECD0E060E0CE012F
:102050000E9440352196C11584E0D807B9F7DF9179
:10206000CF910895DF92EF92FF920F931F93CF933A
:10207000DF9300D000D0CDB7DEB7F82E8FE08F15FC
:10208000E8F18FEF93E00E943235811137C006EC02
:1020900010E0FF2069F0011584E0180779F1C8010C
:1020A0000E943235811101C0FA940F5F1F4FF1CFAA
:1020B00019821A821B821C82DD24D39478018FEF4F
:1020C000E81AF80AC8010E94323589831A828823E7
:1020D000A9F09FEF980F933058F48A83D9820E5F4E
:1020E0001F4FC7010E9432358B83882339F0780156
:1020F000CE0101960E94F2088701E0CF0F900F9069
:102100000F900F90DF91CF911F910F91FF90EF9063
:10211000DF900895AF92BF92CF92DF92EF92FF923D
:102120000F931F93CF93DF937C015B01C42FD22FBA
:10213000FC0182818823F9F04093B8010E94B12309
:102140009093B7018093B60180E28C0F883008F03D
:102150006EC0C77081E001C0880FCA95EAF7DF91B1
:10216000CF911F910F91FF90EF90DF90CF90BF9094
:10217000AF900C94B7188091B801481335C0809186
:10218000B6019091B7010E94C9236C01B701C50146
:102190000E94001EC816D90638F510E21D0FCD1793
:1021A000B9F080E28C0F883040F4C77081E001C044
:1021B000880FCA95EAF70E94BE18183058F581E0DA
:1021C0009D2F977001C0880F9A95EAF70E94B71863
:1021D000802F0E94A418183050F5D77081E001C0FC
:1021E000880FDA95EAF70AC080E28C0F8830F8F49D
:1021F000C77081E001C0880FCA95EAF7DF91CF91DF
:102200001F910F91FF90EF90DF90CF90BF90AF9014
:102210000C94BE18802FDF91CF911F910F91FF90EA
:10222000EF90DF90CF90BF90AF900C94A418DF9107
:10223000CF911F910F91FF90EF90DF90CF90BF90C3
:10224000AF9008950F939C01CB01243F4CE53407D8
:1022500031F188F4283DFCE53F07D9F0293D4CE5F4
:10226000340779F1273D3C45A9F506E221EE41EE20
:1022700067ED7CE52BC0263FFCE53F07E1F0A8F0C9
:10228000273F3C4539F507E225EE46EE67EF7CE552
:102290001DC007E225EE45EE68ED7CE517C006E2BD
:1022A00021EE40EE64EF7CE511C007E225EE44EE3E
:1022B00065EF7CE50BC006E221EE42EE66EF7CE5C1
:1022C00005C008E221E045EE69ED7CE50E948A1038
:1022D00080E008C0FC018281882319F01092B801C7
:1022E00001C081E00F910895CF93DF93EC01FB01D2
:1022F0008281882309F41FC1C230FCE5DF0708F49E
:102300001BC1C6319CE5D90738F09E012B5F3C45C7
:102310002930310508F010C10E94472290936E02C7
:1023200080936D02C031ECE5DE0709F4C3C008F00C
:1023300041C0C8308CE5D80709F49AC0F0F4C43025
:10234000ECE5DE0709F487C068F4C2308CE5D807F5
:1023500009F477C0C330DC4509F0E3C080916D0219
:10236000826076C0C630ECE5DE0709F46EC008F086
:102370007BC080916D0288606BC0CC308CE5D80743
:1023800009F485C068F4CA30ECE5DE0709F474C0CE
:1023900008F079C00E94471B80916D02806858C088
:1023A000CE308CE5D80709F476C008F07FC0809164
:1023B0006D028BC0CC3FECE5DE0709F44FC018F589
:1023C000C3318CE5D80709F47DC078F4C131ECE560
:1023D000DE0709F473C0C231DC4509F0A2C00E94D7
:1023E000471B80916D028F7733C0C5318CE5D807CC
:1023F00009F472C008F486C0CB3FDC4509F091C0F7
:1024000080916E023EC0C115FDE5DF0709F45FC093
:1024100058F4CE3F9CE5D90709F444C008F43FC006
:1024200080916E0282602DC0C230FDE5DF0709F4A5
:1024300075C008F45DC0C330DD4509F072C080E0AE
:102440006EC080916D02816003C080916D028061D9
:1024500080936D0266C080916D0211C080916E0202
:10246000826080936E025DC080916D028062F0CFC9
:1024700080916D028064ECCF80916D0288608460F1
:10248000E7CF8160EECF80916D028E7FE1CF8091AA
:102490006D028D7FDDCF80916D02877FD9CF8091D6
:1024A0006E0218C080916E028D7FDBCF80916D022D
:1024B0008F7ECECF80916D028F7DCACF80916D02CD
:1024C0008F7BC6CF80916D02877F8B7FC1CF80913C
:1024D0006E028D7F8E7FC5CF80916D0282FB222799
:1024E00020F991E0922790FB82F990FB83F9B0CF1D
:1024F00080916E02982F909591708E7F892B90FB22
:1025000081F9AFCF0E94471B80916D0287FB222784
:1025100020F991E0922790FB87F99ACF81E00E9401
:10252000D62280916D0290916E020E9458220E94E4
:10253000471B80E001C081E0DF91CF910895CF93E8
:10254000DF9386319C4541F5EB010E941621982FBF
:102550008A812091000130910101882379F09A7AD3
:1025600081E009F480E08093B901911102C069E231
:1025700001C065E3C9010E941D230AC08091B90111
:10258000811102C069E201C065E3C9010E941F23F5
:102590000E94642180E001C081E0DF91CF91089525
:1025A0008F929F92AF92BF92CF92DF92EF92FF9263
:1025B0000F931F93CF93DF937C01DC01ED91FC918E
:1025C000CF01815095458F3F910510F4B5E5FB276C
:1025D000DB011296CC91CC2309F4B4C2EF3FF10594
:1025E00079F070F0EE3DFC4519F01092BA0160C32D
:1025F0009091BA0181E089278093BA01A0E059C384
:10260000A091BA01AA2309F4EBC01092BA01E03CF0
:10261000F10540F4E038F10508F073C0E034F1054D
:10262000D0F505C0EF3FF10509F008F4A0C021E0A6
:1026300030E040E050E060E070E080E090E00E2F9D
:102640000E94FC34B091BB012B2BB091BC013B2B01
:10265000B091BD014B2BB091BE015B2BB091BF017E
:102660006B2BB091C0017B2BB091C1018B2BB09132
:10267000C2019B2B2093BB013093BC014093BD0151
:102680005093BE016093BF017093C0018093C1015C
:102690009093C201A1C021E030E040E050E060E052
:1026A00070E080E090E08F01005411090E94FC343A
:1026B000B091C3012B2BB091C4013B2BB091C5014C
:1026C0004B2BB091C6015B2BB091C7016B2BB09126
:1026D000C8017B2BB091C9018B2BB091CA019B2BF8
:1026E0002093C3013093C4014093C5015093C601A8
:1026F0006093C7017093C8018093C9019093CA0188
:102700006BC021E030E040E050E060E070E080E04D
:1027100090E08F01005811090E94FC34B091CB0168
:102720002B2BB091CC013B2BB091CD014B2BB09119
:10273000CE015B2BB091CF016B2BB091D0017B2BE5
:10274000B091D1018B2BB091D2019B2B2093CB0167
:102750003093CC014093CD015093CE016093CF01D3
:102760007093D0018093D1019093D20135C021E0C4
:1027700030E040E050E060E070E080E090E08F0109
:10278000005C11090E94FC34B091D3012B2BB09155
:10279000D4013B2BB091D5014B2BB091D6015B2BD3
:1027A000B091D7016B2BB091D8017B2BB091D9019F
:1027B0008B2BB091DA019B2B2093D3013093D40162
:1027C0004093D5015093D6016093D7017093D801FF
:1027D0008093D9019093DA01E701F983E88369C214
:1027E000E034F105D0F4A090BB01B090BC01C090E2
:1027F000BD01D090BE01E090BF01F090C001B0914A
:10280000C1011091C20121E030E040E050E060E001
:1028100070E080E090E00E2F5DC0E038F105E8F454
:10282000A090C301B090C401C090C501D090C60172
:10283000E090C701F090C801B091C9011091CA01A0
:1028400021E030E040E050E060E070E080E090E0C7
:102850004F01D0E48D1A91083CC0E03CF105E8F44A
:10286000A090CB01B090CC01C090CD01D090CE0112
:10287000E090CF01F090D001B091D1011091D20140
:1028800021E030E040E050E060E070E080E090E087
:102890004F01D0E88D1A91081CC0A090D301B090D0
:1028A000D401C090D501D090D601E090D701F0902E
:1028B000D801B091D9011091DA0121E030E040E077
:1028C00050E060E070E080E090E04F01D0EC8D1AC5
:1028D0009108082D0E94FC34A222B322C422D522E2
:1028E000E622F722B823192321E030E040E050E04F
:1028F00060E070E080E090E0E034F105A0F04F018E
:10290000E038F10520F4D0E48D1A91080AC0E03CCB
:10291000F10520F4D0E88D1A910803C0D0EC8D1A8F
:102920009108082D01C00E2F0E94FC340B2F0E942D
:10293000153509F0BDC1E03CF10548F4E038F1057A
:1029400008F084C0E034F10508F042C005C0EF3F54
:10295000F10509F008F4B8C021E030E040E050E0B3
:1029600060E070E080E090E00E2F0E94FC34209543
:102970003095409550956095709580959095E09133
:10298000BB012E23E091BC013E23E091BD014E230B
:10299000E091BE015E23E091BF016E23E091C00192
:1029A0007E23E091C1018E23E091C2019E232093FA
:1029B000BB013093BC014093BD015093BE016093B5
:1029C000BF017093C0018093C1019093C20171C196
:1029D0008F010054110921E030E040E050E060E058
:1029E00070E080E090E00E94FC34209530954095A6
:1029F00050956095709580959095E091C3012E2338
:102A0000E091C4013E23E091C5014E23E091C6014F
:102A10005E23E091C7016E23E091C8017E23E0911F
:102A2000C9018E23E091CA019E232093C3013093F4
:102A3000C4014093C5015093C6016093C7017093D0
:102A4000C8018093C9019093CA0133C18F01005816
:102A5000110921E030E040E050E060E070E080E00B
:102A600090E00E94FC3420953095409550956095FB
:102A7000709580959095E091CB012E23E091CC014B
:102A80003E23E091CD014E23E091CE015E23E09103
:102A9000CF016E23E091D0017E23E091D1018E23FE
:102AA000E091D2019E232093CB013093CC0140933F
:102AB000CD015093CE016093CF017093D0018093EC
:102AC000D1019093D201F5C08F01005C110921E082
:102AD00030E040E050E060E070E080E090E00E9494
:102AE000FC34209530954095509560957095809573
:102AF0009095E091D3012E23E091D4013E23E09103
:102B0000D5014E23E091D6015E23E091D7016E23DB
:102B1000E091D8017E23E091D9018E23E091DA0182
:102B20009E232093D3013093D4014093D501509339
:102B3000D6016093D7017093D8018093D901909307
:102B4000DA01B7C0EF3FF10511F008F0AEC0E03494
:102B5000F105D0F4C090BB01D090BC01E090BD0164
:102B6000F090BE011091BF01C091C001B091C101B0
:102B7000A091C20121E030E040E050E060E070E070
:102B800080E090E00E2F5DC0E038F105E8F4C090E1
:102B9000C301D090C401E090C501F090C60110912E
:102BA000C701C091C801B091C901A091CA0121E03B
:102BB00030E040E050E060E070E080E090E05F01F5
:102BC000D0E4AD1AB1083CC0E03CF105E8F4C09097
:102BD000CB01D090CC01E090CD01F090CE011091CE
:102BE000CF01C091D001B091D101A091D20121E0DB
:102BF00030E040E050E060E070E080E090E05F01B5
:102C0000D0E8AD1AB1081CC0C090D301D090D40157
:102C1000E090D501F090D6011091D701C091D80174
:102C2000B091D901A091DA0121E030E040E050E01C
:102C300060E070E080E090E05F01D0ECAD1AB10898
:102C40000A2D0E94FC34A22EAC20B32EBD20C42E2F
:102C5000CE20D52EDF20E62EE122F72EFC22B8234F
:102C6000192F1A23E034F10570F0E038F10518F45B
:102C7000E054F10908C0E03CF10518F4E058F1090E
:102C800002C0E05CF10921E030E040E050E060E0AB
:102C900070E080E090E00E2F0E94FC34A1E00B2F4A
:102CA0000E94153519F4A0E001C0A1E0A17001C097
:102CB000AC2F8A2FDF91CF911F910F91FF90EF9052
:102CC000DF90CF90BF90AF909F908F90089590939A
:102CD000E0018093DF010895E091DF01F091E001D0
:102CE000309721F00190F081E02D099480E0089563
:102CF000EF92FF920F931F93CF93DF93E091DF0149
:102D0000F091E0013097B1F18C010280F381E02D68
:102D100009958091430282FF2DC080FF04C08BE59E
:102D200092E00E94D006E80118E085E5E82E82E0F6
:102D3000F82E8091430280FF0BC088811F928F93F1
:102D4000FF92EF920E9469070F900F900F900F90E3
:102D5000115021961111EDCF8091430280FF0AC0DE
:102D600083E592E0DF91CF911F910F91FF90EF905B
:102D70000C94D006DF91CF911F910F91FF90EF90AF
:102D80000895E091DF01F091E001309739F022E001
:102D9000DC012C930480F581E02D099408952091A5
:102DA000DD013091DE012817390771F09093DE01C3
:102DB0008093DD01E091DF01F091E001309721F097
:102DC0000680F781E02D099408952091DB01309170
:102DD000DC012817390771F09093DC018093DB0147
:102DE000E091DF01F091E001309721F00084F1855E
:102DF000E02D0994089585B7806885BF85B7806800
:102E000085BF089508950C9402170C9402170C9432
:102E1000CD070E94FB160E9405170C94720781E0F3
:102E200008950C940F170E94A8230E94430C0E943F
:102E3000F50D0E9425240E94560D0C940717CF9380
:102E4000C82F8091430282FF1EC080FF04C084E728
:102E500092E00E94D0068091430280FF0CC01F9236
:102E6000CF938FE692E09F938F930E9469070F9014
:102E70000F900F900F908091430280FF04C08DE669
:102E800092E00E94D0068C2FCF910C946B09AF92E8
:102E9000BF92CF92DF92EF92FF920F931F93CF9347
:102EA000DF93CDB7DEB72A970FB6F894DEBF0FBE1B
:102EB000CDBF0E94970C0E941117811111C08FEF96
:102EC00089838A831B820E94B1238160782F9D832E
:102ED0008C8349815A816B818D810E94E11740C0AA
:102EE00082EEA82E81E0B82E00E010E0C02E802FE8
:102EF0000E94F30BE82EF501D1905F01D82631F442
:102F00000F5F1F4F0430110589F7D9CF809143021D
:102F100081FD0E94F90B80E0FF24F3949D2D9F21F9
:102F2000D1F08E83CF82EF2081E009F480E08887A2
:102F30000E94B1238160782F9A8789874E815F81B3
:102F400068858A850E94E117F801EE51FE4F808165
:102F5000F826F08205C08F5FFF0C8530F9F6D0CFE0
:102F60000E94650D0E9456260E946C169091E10108
:102F70008917B1F00E946C168093E1012A960FB672
:102F8000F894DEBF0FBECDBFDF91CF911F910F919F
:102F9000FF90EF90DF90CF90BF90AF900C941F17F1
:102FA0002A960FB6F894DEBF0FBECDBFDF91CF914A
:102FB0001F910F91FF90EF90DF90CF90BF90AF9057
:102FC0000895CF93DF93CDB7DEB72B970FB6F89464
:102FD000DEBF0FBECDBF4F83588769877A878B8747
:102FE000DE01119686E0FD0111928A95E9F785E0F0
:102FF000FE01379601900D928A95E1F749815A8139
:103000006B817C818D819E810E94031E2B960FB661
:10301000F894DEBF0FBECDBFDF91CF910895FC01C4
:10302000808191810E94D7200895CF93882309F44D
:1030300055C0C82F8CEF8C0F813AF8F48C2F0E946A
:10304000582B81114BC06C2F809100019091010190
:103050000E94E722882349F06C2F80910001909113
:1030600001010E941F230E9464216C2F80910001A6
:10307000909101010E941D230CC080E28C0F8830CA
:1030800058F4C77081E001C0880FCA95EAF70E9422
:103090001921CF910C946421EBE5EC0FE33040F45F
:1030A000F0E0E357FE4F808190E0CF910C94CF1673
:1030B000E8E5EC0FE73150F4F0E0EE0FFF1FE15AC6
:1030C000FE4F80819181CF910C94E516C03F30F086
:1030D0008C2F0E94C924CF910C94B625CF910895CE
:1030E000882389F19CEF980F913A40F4682F8091E2
:1030F0000001909101010E941F230DC090E2980FE2
:10310000983058F4877091E001C0990F8A95EAF7DA
:10311000892F0E941F210C9464219BE5980F933006
:1031200020F480E090E00C94CF1698E5980F97314A
:1031300020F480E090E00C94E516803F20F00E949F
:1031400031250C94B6250895CF93C82F0E941518E9
:10315000C93349F42FEF87EE93E02150804090402F
:10316000E1F700C000008C2FCF910C9470188823D9
:1031700021F00E9419210C9464210895882321F0E4
:103180000E941F210C9464210895CF92DF92EF9248
:10319000FF920F931F93CF93DF937C01062FC72FCE
:1031A000FC01158112951F70D281D1110E94362128
:1031B0000E940F21882399F0DD2389F08C2F807FD6
:1031C000803421F080E2800F883048F082E00E9455
:1031D000AE210E940F2191E0D82ED92601C0D12C1A
:1031E000CC2EC2948FE0C8228C2D90E0FC01E759D0
:1031F000FF4F0C94EF348C2F807FCF70882311F019
:10320000C295C07FDD2399F0CC2309F48DC180E203
:10321000800F883010F0011104C08C2F0E941921FA
:1032200003C08C2F0E9429210E9464217DC1802F20
:103230000E947018CC2309F49CC180E2800F883072
:1032400010F0011104C08C2F0E941F2103C08C2F8D
:103250000E942F210E9464218CC18C2F807FCF700F
:10326000803211F0C295C07F002319F00130C9F0FF
:1032700022C0DD2371F0112341F0113031F40E949E
:1032800049218C2B0E94512174C10E9449218C2B11
:103290001DC0112319F0113009F46BC10E945A218D
:1032A00025C0DD2321F0133008F063C10EC01230B9
:1032B00008F05FC11BC0DD2361F0112331F0F7017D
:1032C000858180FF31C18F7085838C2F0E94B71854
:1032D00050C1112359F0093309F037C1FFEF27EE30
:1032E00083E0F15020408040E1F72DC18C2F0E94F7
:1032F000BE183FC18C2F86958695837019F081305A
:1033000061F037C1DD2321F0802F9C2F937002C024
:1033100080E090E00E94CF1634C1DD2321F0802FA1
:103320009C2F937002C080E090E00E94E51629C1B6
:10333000802FDD2319F00E94C92402C00E9431258C
:103340000E94B6251EC18C2F837009F045C0D11193
:1033500014C1402F429546954770440F440F602F8B
:103360006F70862F90E0A0E0B0E0042E04C0880FBC
:10337000991FAA1FBB1F0A94D2F704FF10C00FE0C9
:1033800010E020E030E004C0000F111F221F331FA7
:103390004A95D2F7009510952095309503C000E02E
:1033A00010E09801C695C695C370BC01CD01602B95
:1033B000712B822B932BC23049F058F4C13019F095
:1033C0000E94541FDAC00E94421FD7C00E94661F8D
:1033D000D4C00E94401FD1C0DD2319F08C2F817012
:1033E00001C08695882309F4C8C0402F42954695B0
:1033F0004770440F440F602F6F70862F90E0A0E05D
:10340000B0E0042E04C0880F991FAA1FBB1F0A94A6
:10341000D2F704FF10C00FE010E020E030E004C05D
:10342000000F111F221F331F4A95D2F700951095E8
:103430002095309503C000E010E09801C695C69530
:10344000C370BC01CD01602B712B822B932BC2303A
:1034500049F058F4C13019F00E9417208EC00E9424
:1034600005208BC00E94292088C00E94781F85C03B
:10347000CF70DD2339F08C2F0E949E1F802F0E9479
:10348000B7187BC0802F0E94BE188C2F0E94BF1FD0
:1034900074C0023F01F128F4003F41F0013FA1F068
:1034A0003FC0033FF9F0043F39F13AC0DD2341F05A
:1034B000123008F05EC08C2F8F710E94E41F59C03B
:1034C000133008F056C0F7CFDD2339F08C2F8F7101
:1034D0000E949E1F4EC0DD23C9F38C2F8F710E9466
:1034E000BF1F47C0DD2329F08C2F8F710E94891FD9
:1034F00040C00E94841F3DC0DD2349F0CF718C2F56
:103500000E949E1F63E08C2F0E94992132C081E0AF
:103510000E94AE21123068F182E00E94AE2129C0E3
:10352000DD2331F0112391F2802F0E94151821C064
:10353000112399F2093349F49FEFE7EEF3E091503C
:10354000E040F040E1F700C00000802F0E947018BA
:1035500010C04C2F4F70602FC7010E94F8090E94C5
:10356000B11E0FC04C2F4F70602FC7010E94FB0986
:1035700008C088EF8C0D843020F40E946C160E94E5
:103580006B09DD20C9F00E940B2180FD15C0F701F9
:1035900012820E9405210E949E1FC7010E94FD1AEF
:1035A0000E940521DF91CF911F910F91FF90EF9025
:1035B000DF90CF900C94BF1FDF91CF911F910F919F
:1035C000FF90EF90DF90CF9008950F931F93CF93CC
:1035D000DF93EC01688179818A810E94E2208C016D
:1035E0000E943B200E942E1FB801CE010E94C518E8
:1035F000DF91CF911F910F910895CF93DF93EC014D
:10360000988189812B813C81232B31F08F3F31F4CC
:1036100081E09F3F19F403C081E001C080E080FD9C
:1036200019C0CE010E94830981110CC00E940F2194
:10363000882381F08A81882369F082E0DF91CF912D
:103640000C94AE21CE010E94E51ACE01DF91CF91FC
:103650000C943208DF91CF9108950E9436210E9488
:1036600046210E9464210E9469270E94B62580E0BD
:1036700090E00E94CF1680E090E00C94E5168091D7
:103680000001909101010E9421230C942D1B0E94A6
:1036900026210C943F1BE92FE295EF704E2F50E04E
:1036A000FA013297EE30F105B0F4E758FF4F0C9471
:1036B000EF34803F91F018F4883E68F40EC0843FE8
:1036C00051F40BC0883E48F0813F29F406C093FBBB
:1036D000882780F9089580E0089581E008950E9488
:1036E000D7200E944B1B0895CF93DF9300D000D0CA
:1036F0001F92CDB7DEB70F900F900F900F900F90E5
:10370000DF91CF910895CF93DF9300D000D000D008
:10371000CDB7DEB726960FB6F894DEBF0FBECDBF8D
:10372000DF91CF9108951F93CF93DF93C091E7016D
:1037300016E08091E801C81799F0D0E01C9FF001D5
:103740001D9FF00D1124E751FE4F40815181628190
:103750007381848195810E94831B2196C770E9CF74
:10376000DF91CF911F9108954091190250911A0253
:1037700060911B0270911C0280911D0290911E02AB
:103780000C94831B0F931F93CF93DF9380911E02A2
:1037900082958F7009F05DC080911B02882309F427
:1037A00058C08091E7011091E80160911902709171
:1037B0001A02C0911C02D0911D0291E06F3F09F0E6
:1037C00090E0292F06E0811709F443C0209721F0EB
:1037D0007F3F21F030E003C031E001C0322F90E0A4
:1037E00030FD34C0089FF001099FF00D1124DF0166
:1037F000A751BE4F11963C911197371327C03C91AA
:10380000361324C012963C91129731111FC01396A3
:103810004D915C9114974C1B5D0B483C5105B0F4E5
:1038200080911E028F70806180931E02E251FE4FD4
:1038300080818F708061808389E192E00E94FD1A0F
:10384000DF91CF911F910F910C94931B019687707C
:10385000BACFDF91CF911F910F9108959F92AF92B0
:10386000BF92CF92DF92EF92FF920F931F93CF936D
:10387000DF93CDB7DEB761970FB6F894DEBF0FBE0A
:10388000CDBF8C0185E0F801DE011D9601900D92FF
:103890008A95E1F7F80140815181E2809091190207
:1038A00060911A0220911C0230911D0221153105F0
:1038B00031F06F3F31F481E09F3F19F403C081E0A4
:1038C00001C080E0F82FF1709F2E80FD46C1F80105
:1038D000A380B48089E1C82E82E0D82EF0901B022C
:1038E000F501E21BF30BFF2009F4DFC080911E02FB
:1038F000E83CF10508F09BC0282F207F09F052C05A
:10390000561313C0491311C0FE2CE1100EC08F7066
:10391000806180931E020E94B41BC6010E94FD1AA2
:1039200080911E02F801858358C1AB2831F05F3FBA
:1039300031F481E04F3F19F403C081E001C080E021
:1039400080FD03C081E08E2502C080E090E0F82F6A
:10395000F170FF2E80FF1CC08091E7012091E801EB
:1039600036E0821709F417C190E0389FF001399FC3
:10397000F00D1124E751FE4F6181561306C060819E
:10398000461303C06281E61203C001968770E9CF37
:10399000FE2CEE2009F421C180911E0281608093EB
:1039A0001E025AC0561306C0491304C0E11002C0DB
:1039B000F8019FC04D875E878D859E850E946F1B95
:1039C000882379F1EE2069F120911E02822F8295E1
:1039D0008F7090E0029774F08091190290911A0212
:1039E00098878F831986BB86AA862C87CE01079677
:1039F0000E94FD1A86E0F801A9E1B2E001900D9263
:103A00008A95E1F70E94C21B0E94B41B0DC0561795
:103A100029F14D875E878D859E850E946F1B8111E0
:103A20002CC0C8010E94FD1AFF24F394D6C0282F91
:103A3000207F69F77A2DB98AA88A6E2D89890E941C
:103A4000741B89E192E00E94FD1A86E0F601119252
:103A50008A95E9F70E94B41BF12CBFC04913D9CF56
:103A6000E110D7CFF8018583C8010E94FD1A86E0D6
:103A7000F60111928A95E9F7B0C0EE2091F22091FB
:103A80001E02822F82958F7090E002970CF4B2CFC5
:103A90008091190290911A029A8389831B82BD82B8
:103AA000AC822E83CE010196A3CFE83CF10508F04D
:103AB00047C0FE2CEE2009F4B4CF561330C0491392
:103AC0002EC020911E0220FD21C0822F82958F7072
:103AD000482F50E041155105C9F0F80125834F30BA
:103AE000510541F08F5F982F9295907F822F8F70B4
:103AF000892B8583C8010E94FD1A86E0F801A9E19F
:103B0000B2E001900D928A95E1F742C086E0F8019B
:103B1000A9E1B2E001900D928A95E1F75EC04D8770
:103B20005E878D859E850E946F1B811163CF80917A
:103B30001E02816080931E02C8010E94FD1A4DC0C2
:103B40007A2DB98AA88A6E2D89890E94741B86E015
:103B5000F60111928A95E9F71BC0EE2009F461CFB6
:103B60004D875E878D859E850E946F1BF82E88236A
:103B700009F457CF86E0F801A9E1B2E001900D9277
:103B80008A95E1F789E192E00E940F180E94C21B1A
:103B90000E94B41B22C04D875E878D859E850E9442
:103BA000D720292F22952F70223028F49F7039F0CA
:103BB000811105C00BC0243028F49F7049F4805E49
:103BC000883020F0C8010E94FD1A9F2CF92C05C0F6
:103BD000F8019581907F99F7F9CF8F2D61960FB6F7
:103BE000F894DEBF0FBECDBFDF91CF911F910F9133
:103BF000FF90EF90DF90CF90BF90AF909F9008958F
:103C000088EC90E008951F93CF93DF93CDB7DEB794
:103C10002C970FB6F894DEBF0FBECDBF4F835887E9
:103C200069877A878B879C87CE0107960E942E1C16
:103C30008823D1F09F8188852A853B85232B31F00D
:103C40008F3F31F481E09F3F19F403C081E001C050
:103C500080E080FD47C04F81588569857A858B85D6
:103C60009C850E94831B3EC086E0FE013796DE01E4
:103C7000119601900D928A95E1F7FF81E8856A859A
:103C80007B856115710531F0EF3F31F481E0FF3F35
:103C900019F403C081E001C080E080FD23C02091C1
:103CA000E80130E0C9010196877099274091E7014A
:103CB00050E084179507F1F1F983EA837D836C83E3
:103CC00096E0929FD001939FB00D1124A751BE4F53
:103CD000FE01319601900D929A95E1F78093E801EB
:103CE0000E94931B16E08091E7019091E8018917EB
:103CF00071F1189FC001112487519E4F0E942E1C04
:103D0000882329F1E091E7011E9FF0011124E7517A
:103D1000FE4F4081518162817381848195810E942F
:103D2000831B8091E70190E001968770992780932B
:103D3000E701D9CF0E94471B1092E8011092E701DA
:103D4000E9E1F2E086E0DF011D928A95E9F72C9621
:103D50000FB6F894DEBF0FBECDBFDF91CF911F919C
:103D60000895EF92FF920F931F93CF93DF938C01EF
:103D7000892B09F46CC0F12CEE24E394E801219620
:103D8000F8018491843740F4843008F051C08130C8
:103D900081F0823019F15BC0853709F444C0A8F185
:103DA0009CE7980F903708F052C08F770E947018E8
:103DB00041C00E5F1F4FFE01849190E2980F983032
:103DC00050F48770FE2D01C0FF0F8A95EAF78F2F00
:103DD0000E94392114C00E9415182DC00E5F1F4F7C
:103DE000FE01849190E2980F983060F48770FE2D68
:103DF00001C0FF0F8A95EAF78F2F0E943F210E9492
:103E0000642119C00E94701816C00E5F1F4FFE017A
:103E1000C491CC2381F08FE99FE00197F1F700C0B6
:103E20000000C150F6CF0E5F1F4FFE01F49003C09B
:103E30000E9415188E018F2D882309F49FCFEFE97A
:103E4000FFE03197F1F700C000008150F5CFDF911E
:103E5000CF911F910F91FF90EF90089508950895CD
:103E60000C942F1F0C94301F0E94321F609332025B
:103E70007093330280933402909335020C942D1B7F
:103E80000C94341F0F931F93009132021091330250
:103E90002091340230913502602B712B822B932BB1
:103EA0001F910F910C94341F0F931F9300913202B6
:103EB0001091330220913402309135026023712336
:103EC000822393231F910F910C94341F0F931F9300
:103ED0000091320210913302209134023091350268
:103EE00060277127822793271F910F910C94341F0D
:103EF0000E94790760932E0270932F028093300204
:103F0000909331020C942D1B60E070E0CB010C9477
:103F1000781F0F931F9341E050E060E070E08A014A
:103F20009B0104C0000F111F221F331F8A95D2F777
:103F3000C901B8011F910F910C94781F0F931F9323
:103F400041E050E060E070E004C0440F551F661F80
:103F5000771F8A95D2F780912E0290912F02A0911F
:103F60003002B09131028A019B01082B192B2A2BB8
:103F70003B2BC901B8011F910F910C94781F0F932F
:103F80001F9341E050E060E070E004C0440F551F13
:103F9000661F771F8A95D2F740955095609570956A
:103FA00080912E0290912F02A0913002B0913102A7
:103FB0008A019B01082319232A233B23C901B80145
:103FC0001F910F910C94781F0F931F9341E050E0C5
:103FD00060E070E004C0440F551F661F771F8A958C
:103FE000D2F780912E0290912F02A0913002B091D1
:103FF00031028A019B01082719272A273B27C9017B
:10400000B8011F910F910C94781F0F931F9300918B
:104010002E0210912F022091300230913102602B3C
:10402000712B822B932B1F910F910C94781F0F9360
:104030001F9300912E0210912F0220913002309197
:10404000310260237123822393231F910F910C94DB
:10405000781F0F931F9300912E0210912F02209131
:1040600030023091310260277127822793271F91F8
:104070000F910C94781F089524E0929F900D1124C5
:10408000890FE82FE695E695E695877051E001C027
:10409000550F8A95EAF785E0E89FF0011124E15E6B
:1040A000FD4F20E030E070E04081CB01022E02C0E5
:1040B000969587950A94E2F78170819584278523E8
:1040C000842781932F5F3F4F2530310569F708958D
:1040D00024E0929F900D1124890F682F66956695B4
:1040E0006695982F977085E0689FB001112440E095
:1040F00050E080E0FB01E40FF51FE15EFD4F208101
:1041000030E0092E02C0369527950A94E2F7217017
:104110003327042E01C0220F0A94EAF7822B4F5F47
:104120005F4F4530510531F70895BF92CF92DF922E
:10413000EF92FF920F931F93CF93DF938C01C09068
:104140002E02D0902F02E0903002F0903102809148
:10415000320290913302A0913402B0913502C82A04
:10416000D92AEA2AFB2ACFE1D0E0D701C6010C2EDA
:1041700004C0B695A795979587950A94D2F780FDC8
:1041800004C0219790F7B12C07C0BC2EB8018C2F2A
:104190000E94040A0197A9F38B2DDF91CF911F9103
:1041A0000F91FF90EF90DF90CF90BF900895CF9345
:1041B000DF93EC010E949520BE010E94040ADF916A
:1041C000CF9108951F93CF93DF93EB019091E60178
:1041D000992321F0CB010E94D72013C0882349F0F6
:1041E000CB010E949520182F682FCE010E943C2001
:1041F00004C0CB010E946820182FBE01812F0E94AD
:10420000040ADF91CF911F91089580913602859520
:1042100085958595089580913602877008959091CF
:104220003602977081E009F480E00895809142029F
:10423000089590914202892B8093420208958095BF
:104240009091420289238093420208951092420283
:10425000089590914102892B8093410208958095A1
:104260009091410289238093410208951092410266
:10427000089590914002892B809340020895809583
:104280009091400289238093400208951092400249
:10429000089580913702089508950C944C210C9450
:1042A0004D2190913702981721F0809337020C949A
:1042B0004F21089580913702882329F01092370208
:1042C00080E00C944F210895E0910001F0910101EC
:1042D000809142028083E0910001F0910101908180
:1042E00080914102892B8083E0910001F0910101CE
:1042F000908180914002892B8083809137028823AE
:1043000081F0E0910001F09101019081892B80837F
:1043100080910001909101010E94DB2281110E9495
:104320005A2180910001909101010C9478160C940F
:104330004C2198E0899F90011124262B209336026E
:104340000E949E1F809136028595859585950C94D7
:1043500097211092360280E00C949721209136022A
:104360008095822380933602982F977079F430E0FD
:10437000482F082E000C550B2417350739F085956A
:10438000859585950E94BF1F0C94A921089590934F
:10439000AF018093AE010895CF92DF92EF92FF922A
:1043A0006C01EE24FF24C114D104E104F10421F0D6
:1043B000C701B60120E101C020E0C72ED82EE92EAA
:1043C000FF24C114D104E104F10419F0285FC701EE
:1043D000B6016B017C0154E0F694E794D794C7943E
:1043E0005A95D1F7C114D104E104F10419F02C5FFE
:1043F000C701B6016B017C0142E0F694E794D794C3
:10440000C7944A95D1F7C114D104E104F10419F01D
:104410002E5FC701B601DC01CB01B695A795979534
:104420008795892B8A2B8B2B09F02F5F822FFF908A
:10443000EF90DF90CF9008958295982F937344E08A
:10444000949F900111248C7C86958695282B822F31
:104450008575880F2A7A2695822B08956FEF7FEF56
:1044600080E090E00C945E3580E090E00E943A3568
:1044700021E08C3E9E4F09F020E0822F089582E0DB
:1044800090E00C94323583E090E00C943235CF9379
:1044900084E090E00E943235C82F81E290E00E94D3
:1044A00032352C2F30E0A901582BCA01CF91089545
:1044B000CF93C92F682F84E090E00E9440356C2F85
:1044C00081E290E0CF910C944035AB01BC018FE0CC
:1044D00090E00C945235AB01BC0183E190E00C9468
:1044E000523560E070E0CB010C946B2260E070E02C
:1044F000CB010E9465220C9471226CEE7EEF80E06D
:1045000090E00E945E3560E082E090E00E944035DD
:1045100060E083E090E00E944035109232021092F9
:104520003302109234021092350260E084E090E091
:104530000E94403560E081E290E00E94403560E0FA
:1045400085E090E00E94403560E086E090E00E94C7
:1045500040356FEF87E090E00E94403540E050E04A
:10456000BA0188E090E00E94523560E08DE090E072
:104570000E94403540E050E0BA0188E190E00E949E
:10458000523560E087E190E00E94403540E050E025
:10459000BA018CE190E00E94523560E080E290E048
:1045A0000E9440350C9476220C947D22682F8EE078
:1045B00090E00C944035FC01329697E080E09150F9
:1045C00029F021912223D9F38F5FF9CF0895662333
:1045D00049F0FC01329608962191621729F0E817FC
:1045E000F907D1F780E0089581E008959C01FC016E
:1045F00032969FEF80E04191461789F09F3F19F472
:10460000411101C0982F8F5F8630A9F79F3F39F085
:10461000F901E90FF11D97FDFA9562830895089558
:104620009C012A5F3F4FFC014281461301C0128268
:10463000019682179307B9F708950C94F6220C940B
:104640001023029626E0FC0111922A95E9F70895BD
:1046500008950C9428230C942823CF930E942B2395
:104660000E94970C0E942923C0E08C2F0E94F30B1C
:10467000811104C0CF5FC430C1F701C081E0CF9188
:1046800008950C9428230C9441230E944323809185
:104690007302843049F11092440220E488E190E0F2
:1046A0000FB6F894A895809360000FBE2093600029
:1046B00080E00E946B090E94432383B7817F84605E
:1046C00083BF83B7816083BF7894889583B78E7FDB
:1046D00083BF0FB6F894A89580916000886180939D
:1046E0006000109260000FBE08950C9428230E9471
:1046F000471B0E946C160E946B090C9475231F9235
:104700000F920FB60F9211248F939F93AF93BF9385
:1047100080914402811113C08091690290916A02D4
:10472000A0916B02B0916C024196A11DB11D8093C6
:10473000690290936A02A0936B02B0936C02BF91DE
:10474000AF919F918F910F900FBE0F901F90189572
:1047500082E084BD93E095BD9AEF97BD80936E0093
:1047600008952FB7F8948091690290916A02A09100
:104770006B02B0916C022FBF08952FB7F89460912F
:10478000690270916A0280916B0290916C022FBF56
:1047900008959C014FB7F8948091690290916A0244
:1047A000A0916B02B0916C024FBF821B930B0895D6
:1047B00078941F920F920FB60F9211248F939F93AC
:1047C000AF93BF938091690290916A02A0916B02AE
:1047D000B0916C020196A11DB11D80936902909366
:1047E0006A02A0936B02B0936C02BF91AF919F914C
:1047F0008F910F900FBE0F901F90189587E797E746
:1048000090930108809300089AE088E10FB6F8942D
:10481000A895809360000FBE90936000FFCF0C942A
:10482000E20D0E94970C8FE39CE90197F1F700C01D
:1048300000000E94970C83E00E94F30B80FF04C0ED
:104840000E940F240C94FE2308950E9434228111AB
:1048500002C00E94D4220E943F22809343020E9401
:10486000472290936E0280936D020E944322682F2C
:1048700070E080E090E00E94401F60912E027091F5
:104880002F0280913002909131020C94790780912F
:104890004B0280FF0BC06091070185E0689FB0016B
:1048A000112475956795759567952BC081FF09C093
:1048B0006091070185E0689FB001112475956795A7
:1048C00020C082FF07C06091070185E0689FB001AA
:1048D000112417C090914A029923D1F060910601EA
:1048E000961788F72091070185E0289F90011124F1
:1048F000929FA001939F500D112470E0CA010E9465
:10490000DB346038710540F46115710519F406C097
:1049100065E070E0862F08958FE7089581E008959F
:1049200080914B0280FF08C06091030170E0759593
:1049300067957595679521C081FF06C06091030159
:1049400070E07595679519C082FF04C060910301FE
:1049500070E010C090914902992399F06091020192
:104960009617A0F780910301899FC001112470E080
:104970000E94DB346038710540F46115710519F44B
:1049800006C061E070E0862F08958FE7089581E00A
:104990000895803F21F40E944724819504C0813FFF
:1049A00029F40E94472480934F020895823F21F406
:1049B0000E944724819504C0833F29F40E94472424
:1049C00080934E020895893F19F40E94902405C0F7
:1049D0008A3F31F40E94902481958093500208957B
:1049E0008B3F21F40E949024819504C08C3F29F4D0
:1049F0000E949024809351020895843F21F4809175
:104A00004D02816017C0853F21F480914D02826084
:104A100011C0863F21F480914D0284600BC0873F16
:104A200021F480914D02886005C0883F31F4809167
:104A30004D02806180934D0208958D3F21F4809155
:104A40004B0281600BC08E3F21F480914B0282604B
:104A500005C08F3F29F480914B02846080934B0204
:104A60000895803F39F480914F0287FF6AC0109209
:104A70004F0267C0813F29F480914F021816BCF3A2
:104A800060C090914E02823F29F497FF5AC0109265
:104A90004E0257C0833F19F41916CCF352C09091BF
:104AA0005002893F31F419160CF04BC0109250029D
:104AB00048C08A3F19F497FF44C0F8CF8B3F39F4C0
:104AC0008091510287FF3DC0109251023AC08C3F45
:104AD00029F4809151021816BCF333C0843F21F4AD
:104AE00080914D028E7F17C0853F21F480914D0249
:104AF0008D7F11C0863F21F480914D028B7F0BC0CA
:104B0000873F21F480914D02877F05C0883F31F4B3
:104B100080914D028F7E80934D0213C08D3F21F412
:104B200080914B028E7F0BC08E3F21F480914B020F
:104B30008D7F05C08F3F29F480914B028B7F80933E
:104B40004B0280914E02811106C080914F0281116B
:104B500002C010924A0280915002811106C08091D9
:104B60005102811102C010924902089580914302BE
:104B700083FF7EC08EEA92E00E94D00680914D02B3
:104B80001F928F9389EA92E09F938F930E94690707
:104B900087EA92E00E94D00680914E02282F082ECC
:104BA000000C330B3F938F9384EA92E09F938F9393
:104BB0000E94690782EA92E00E94D00680914F022B
:104BC000282F082E000C330B3F938F938FE992E030
:104BD0009F938F930E9469078DE992E00E94D0060F
:104BE00080915002282F082E000C330B3F938F9397
:104BF0008AE992E09F938F930E94690788E992E087
:104C00000E94D00680915102282F082E000C330BF1
:104C10003F938F9385E992E09F938F930E9469075A
:104C200082E992E00E94D00680914A021F928F93FF
:104C30008FE892E09F938F930E9469078DE892E03E
:104C40000E94D00680914B021F928F938AE892E0D7
:104C50009F938F930E94690787E892E00E94D00695
:104C60008DB79EB74C960FB6F8949EBF0FBE8DBF02
:104C70000E94B12320914E02211104C020914F02C5
:104C8000222321F090934802809347022091500202
:104C9000211104C020915102222321F09093460259
:104CA000809345028CE492E00C94C116EF92FF923F
:104CB0000F931F93CF93DF9300D000D000D0CDB7D8
:104CC000DEB786E0ECE4F2E0DE01119601900D9291
:104CD0008A95E1F7E0904E02F0904F020091500269
:104CE0001091510210924E0210924F0210925002F7
:104CF00010925102E11003C0FF2009F45DC08091C1
:104D00004702909148020E94C923AC0190914A0247
:104D1000992339F02091080130E02417350758F025
:104D20004BC0209109018AE0289F9001112424178B
:104D3000350718F041C09F3F19F09F5F90934A02DA
:104D4000EE2061F00E9447241E1414F09FEF01C072
:104D500091E0989F902D112490934E02FF2061F0D6
:104D60000E9447241F1414F09FEF01C091E0989F08
:104D7000902D112490934F0230914E023323E1F095
:104D800020914F022223C1F045EB3403C0011124CE
:104D9000992319F090934E0203C081E080934E0254
:104DA00035EB2303C0011124992319F090934F028E
:104DB00003C081E080934F02011103C0112309F465
:104DC0005DC080914502909146020E94C923AC01CA
:104DD00090914902992339F02091040130E0241781
:104DE000350758F04BC0209105018AE0289F9001BB
:104DF00011242417350718F041C09F3F19F09F5F19
:104E000090934902002361F00E949024101614F040
:104E10009FEF01C091E0989F902D11249093500234
:104E2000112361F00E949024111614F09FEF01C02D
:104E300091E0989F902D112490935102309150024F
:104E40003323E1F0209151022223C1F045EB3403DA
:104E5000C0011124992319F09093500203C081E0FE
:104E60008093500235EB2303C0011124992319F0DC
:104E70009093510203C081E08093510280914E02D1
:104E800081110BC080914F02811107C080915002A7
:104E9000811103C08091510281110E94B625EB82DD
:104EA000FC820D831E8386E0FE013196ACE4B2E005
:104EB00001900D928A95E1F726960FB6F894DEBF21
:104EC0000FBECDBFDF91CF911F910F91FF90EF905B
:104ED0000895ECE4F2E086E0DF011D928A95E9F79F
:104EE00010924A021092490210924B02089581EDED
:104EF00094E00E94D0061F9281E08F931F9285E07C
:104F00008F9383E894E09F938F930E9469070F909B
:104F10000F900F900F900F900F9008958330E9F14C
:104F200028F4813061F0823009F10895853009F468
:104F300062C008F449C0863009F474C008958091B5
:104F40000901262F30E0280F311D2F3F310524F4B1
:104F5000680F6093090103C08FEF8093090180916E
:104F600009011F928F938CEB93E072C0809108012E
:104F7000262F30E0280F311D2F3F310524F4680F14
:104F80006093080103C08FEF8093080180910801AE
:104F90001F928F938AEA93E05BC080910701262FCE
:104FA00030E0280F311D2F3F310524F4680F609346
:104FB000070103C08FEF80930701809107011F92C3
:104FC0008F9387E993E044C080910601262F30E05B
:104FD000280F311D2F3F310524F4680F609306011F
:104FE00003C08FEF80930601809106011F928F937B
:104FF00082E893E02DC080910301262F30E0280F36
:10500000311D2F3F310524F4680F6093030103C065
:105010008FEF80930301809103011F928F9389E6A4
:1050200093E016C080910201262F30E0280F311D39
:105030002F3F310524F4680F6093020103C08FEF06
:1050400080930201809102011F928F938EE493E07E
:105050009F938F930E9469070F900F900F900F906E
:105060000895833081F128F4813059F08230D1F0F5
:105070000895853009F449C0B8F1863009F456C066
:10508000089580910901681720F4861B8093090117
:1050900002C010920901809109011F928F938FE342
:1050A00093E054C080910801681720F4861B809318
:1050B000080102C010920801809108011F928F938D
:1050C0008DE293E043C080910701681720F4861BAE
:1050D0008093070102C010920701809107011F927F
:1050E0008F938AE193E032C080910601681720F423
:1050F000861B8093060102C0109206018091060172
:105100001F928F9385E093E021C08091030168177F
:1051100020F4861B8093030102C01092030180914A
:1051200003011F928F938CEE92E010C080910201D8
:10513000681720F4861B8093020102C010920201BE
:10514000809102011F928F9381ED92E09F938F9344
:105150000E9469070F900F900F900F900895CF93C2
:10516000C82F1F928F9386ED95E09F938F930E9497
:10517000690781E090E0A0E0B0E0BC01CD0104C08F
:10518000660F771F881F991FCA95D2F70E94401F8C
:105190000F900F900F900F90CF910C94471BCF93CF
:1051A000DF938B3109F4EAC108F08BC18B3009F42D
:1051B000AEC108F065C1863009F4ACC120F4853079
:1051C00009F4BAC15DC2873009F4BDC1883009F065
:1051D00057C28BEF9AE00E94D0068CE49AE00E94BE
:1051E000D0060E9443221F928F9389E49AE09F93F6
:1051F0008F930E94690787E49AE00E94D0060E947C
:105200003F22C82F84E39AE00E94D0061F92CF93DA
:105210008FE29AE09F938F930E9469078DE29AE054
:105220000E94D00683E29AE00E94D0068C2F817003
:105230001F928F9380E29AE09F938F930E94690759
:105240008EE19AE00E94D00684E19AE00E94D006A6
:10525000C1FB882780F91F928F9381E19AE09F9389
:105260008F930E9469078FE09AE00E94D00683E046
:105270009AE00E94D006C2FB882780F91F928F9384
:1052800080E09AE09F938F930E9469078EEF99E0E8
:105290000E94D00685EF99E00E94D006C3FBCC2780
:1052A000C0F91F92CF9382EF99E09F938F930E9452
:1052B000690780EF99E00E94D0060E944722EC0126
:1052C0008CED99E00E94D006DF93CF9387ED99E0B3
:1052D0009F938F930E94690785ED99E00E94D00605
:1052E0008CEB99E00E94D0068C2F81701F928F93D7
:1052F00089EB99E09F938F930E9469078DB79EB7C2
:1053000080960FB6F8949EBF0FBE8DBF87EB99E0D5
:105310000E94D00680EA99E00E94D006C1FB88274F
:1053200080F91F928F938DE999E09F938F930E944C
:1053300069078BE999E00E94D00689E899E00E940C
:10534000D0068D2F81701F928F9386E899E09F93EE
:105350008F930E94690784E899E00E94D00682E753
:1053600099E00E94D006D695D1701F92DF938FE608
:1053700099E09F938F930E9469078DE699E00E94C0
:10538000D0068BE599E00E94D006C2FB882780F901
:105390001F928F9388E599E09F938F930E946907EE
:1053A00086E599E00E94D00684E499E00E94D00648
:1053B000C3FB882780F91F928F9381E499E09F9324
:1053C0008F930E9469078FE399E00E94D00685E3DE
:1053D00099E00E94D006C4FB882780F91F928F9322
:1053E00082E399E09F938F930E94690780E399E09D
:1053F0000E94D0068EE199E00E94D006C5FB882766
:1054000080F91F928F938BE199E09F938F930E9475
:10541000690789E199E00E94D0068DEF98E00E942B
:10542000D006C6FB882780F91F928F938AEF98E0F9
:105430009F938F930E9469078DB79EB780960FB692
:10544000F8949EBF0FBE8DBF88EF98E00E94D006F3
:1054500080EF98E00E94D006C7FBCC27C0F91F92CE
:10546000CF938DEE98E09F938F930E9469078BEE08
:1054700098E00E94D0060F900F900F900F9045C0BB
:10548000803109F4A5C020F48E3009F48BC0F8C037
:10549000863109F4B8C0893109F0F2C082E197E0A1
:1054A0000E94D00688ED96E00E94D00685EA96E03C
:1054B0000E94D0068FE696E00E94D00684E496E033
:1054C00084C08A32E1F060F4873209F4D5C028F450
:1054D0008E3108F4D5C08D51D0C0893269F1D0C069
:1054E000833448F48A3308F0C5C0853309F4C4C056
:1054F000883369F0C5C0833409F4BEC0C1C08AEEE8
:105500009AE00E94D0060E94D422C1E0BEC088E486
:1055100097E05BC080914302817F8E7F809343023E
:1055200081E297E00E94D00686EE9AE00E94D006C3
:1055300081E080935302E9CF8AEC9AE00E94D00682
:105540000E947409E2CF80914302C82FC095C170B8
:10555000C0FB80F980934302CC2329F08EEB9AE0C4
:105560000E94D00692C081EB9AE00E94D006809102
:105570004302897F877F80934302C7CF9091430284
:1055800091FBCC27C0F981E0C827892FC0FB81F9A6
:1055900080934302CC2319F084EA9AE029C086E97B
:1055A0009AE013C09091430292FBCC27C0F981E0AE
:1055B000C827892FC0FB82F980934302CC2319F0BE
:1055C00087E89AE015C087E79AE00E94D0069DCF51
:1055D0009091430293FBCC27C0F981E0C827892F23
:1055E000C0FB83F980934302CC2351F08BE69AE011
:1055F0000E94D0068091430281608093430245C09F
:105600008EE59AE0E2CF86E396E00E94D0060E9403
:105610006C161F928F938CE196E09F938F930E945C
:105620006907809114011F928F9385E096E09F9304
:105630008F930E946907809160021F928F9382EF7F
:1056400095E09F938F930E9469070E94BD239F93CB
:105650008F937F936F938BED95E09F938F930E9431
:1056600069078DB79EB742960FB6F8949EBF0FBEDE
:105670008DBF4BCF895301C080E00E94AF2845CF3A
:105680008CE59AE00E94D006C0E08C2FDF91CF918C
:10569000089580E008950C94492B8E518A3030F49F
:1056A000E82FF0E0E057FE4F8081089580E00895F4
:1056B000CF93C82F80915302813059F020F082306F
:1056C00009F445C039C10E941621823209F036C161
:1056D00004C00E941621823261F48C2F0E944B2B51
:1056E000811104C08C2F0E94CF282FC081E090E050
:1056F0002CC08C2F0E94492B811126C0C431E1F0AF
:1057000070F4CB3081F0C031D1F40E9477278EEC59
:1057100095E00E94D00682E08093530215C0C93202
:1057200059F0C83361F481E297E00E94D00682ED1F
:1057300095E00E94D00608C01092530201C18CEC83
:1057400095E00E94D006FCC081E08170FBC0C432AD
:1057500028F5CE3108F0C1C0CB30A1F1D0F4C7306C
:1057600009F0D0C08EE18093090182E380930801A3
:105770008AE08093070184E18093060188E08093AA
:10578000030188E28093020182E794E00E94D00640
:10579000BCC0C33149F1C431C1F0B4C0CB3409F449
:1057A000A6C028F4C93289F0C83361F0ABC0C13556
:1057B00009F49BC0C23509F496C0CE3409F0A2C0EA
:1057C0006AE09BC00E947727A0C080915202882384
:1057D00019F01092520299C08FE794E00E94D0060F
:1057E00081E080935302AEC089E594E00E94D00628
:1057F00087E494E00E94D006809109011F928F9364
:1058000084E494E09F938F930E94690782E494E07C
:105810000E94D00680E394E00E94D00680910801A7
:105820001F928F938DE294E09F938F930E9469075C
:105830008BE294E00E94D0068CE194E00E94D006B6
:10584000809107011F928F9389E194E09F938F933A
:105850000E94690787E194E00E94D00686E094E008
:105860000E94D006809106011F928F9383E094E0FE
:105870009F938F930E94690781E094E00E94D00675
:105880008CEE93E00E94D006809103011F928F93CB
:1058900089EE93E09F938F930E94690787EE93E0D0
:1058A0000E94D00680ED93E00E94D0068091020114
:1058B0001F928F938DEC93E09F938F930E946907C3
:1058C0008BEC93E00E94D0068DB79EB748960FB63A
:1058D000F8949EBF0FBE8DBF18C08C2F0E944D2B19
:1058E0008093520212C061E003C061E006C06AE02A
:1058F000809152020E948E2708C0809152020E941D
:10590000312803C080E794E013C0809152028823BD
:1059100069F01F928F938AE694E09F938F930E9481
:1059200069070F900F900F900F9004C087E694E0E6
:105930000E94D00681E006C01092530280E002C0AF
:1059400080E003CFCF91089580915F0208959FB7C3
:10595000F894109256029FBF90917302943009F010
:1059600057C09091E9009F703091EC00232F217077
:1059700030FD20E8922B25E02093E9002091EB00F8
:1059800020FF43C02091EE0027FF3FC0209154022A
:10599000222321F02091E80025FF37C01092540205
:1059A00026E03091E80035FD15C0309173023430A7
:1059B00061F53091EB0035FD28C0215021F481E0E4
:1059C0008093540222C0EFE9FFE03197F1F700C065
:1059D0000000E7CF8093F1008091E80085FD0AC0C8
:1059E0008091E80080FFFCCF8091E8008E77809363
:1059F000E80006C08FB7F89421E0209356028FBFCD
:105A00009F709093E90080E008959F709093E90063
:105A10008FEF0895CF93DF9300D01F92CDB7DEB7FD
:105A200090917302943011F589837B836A839093FC
:105A3000E9008FEF9091E800815095FD06C095ED4B
:105A40009A95F1F700008111F5CF8091E80085FF6C
:105A50000DC040E050E063E070E0CE0101960E948E
:105A6000E72F8091E8008E778093E8000F900F90E9
:105A70000F90DF91CF910895BC0184E00C940A2D22
:105A8000BC0183E00C940A2D24E02093E9002FEF61
:105A90003091E800215035FD06C035ED3A95F1F71B
:105AA00000002111F5CF2091E80025FF0BC040E058
:105AB00050E066E070E00E94E72F8091E8008E776A
:105AC0008093E8000895CF93DF9321E02093E900CD
:105AD0002FEF3091E800215035FD06C035ED3A95A5
